{"contracts/PhotonRouter.sol":{"PhotonRouter":{"abi":[{"inputs":[],"name":"TransferFailed","type":"error"},{"anonymous":false,"inputs":[{"indexed":true,"internalType":"address","name":"previousOwner","type":"address"},{"indexed":true,"internalType":"address","name":"newOwner","type":"address"}],"name":"OwnershipTransferred","type":"event"},{"inputs":[{"internalType":"address","name":"pairAddress","type":"address"},{"internalType":"uint256","name":"tokenXAmount","type":"uint256"},{"internalType":"int24","name":"tick","type":"int24"}],"name":"createLimitOrder","outputs":[{"internalType":"uint256","name":"orderId","type":"uint256"}],"stateMutability":"nonpayable","type":"function"},{"inputs":[{"internalType":"address","name":"tokenX","type":"address"},{"internalType":"address","name":"tokenY","type":"address"},{"internalType":"uint256","name":"tickMode","type":"uint256"}],"name":"createPair","outputs":[{"internalType":"address","name":"pair","type":"address"}],"stateMutability":"nonpayable","type":"function"},{"inputs":[{"internalType":"address","name":"tokenX","type":"address"},{"internalType":"address","name":"tokenY","type":"address"},{"internalType":"uint256","name":"tickMode","type":"uint256"}],"name":"getPair","outputs":[{"internalType":"address","name":"pair","type":"address"}],"stateMutability":"view","type":"function"},{"inputs":[],"name":"owner","outputs":[{"internalType":"address","name":"","type":"address"}],"stateMutability":"view","type":"function"},{"inputs":[{"internalType":"address","name":"","type":"address"},{"internalType":"address","name":"","type":"address"},{"internalType":"uint256","name":"","type":"uint256"}],"name":"pairAddresses","outputs":[{"internalType":"address","name":"","type":"address"}],"stateMutability":"view","type":"function"},{"inputs":[],"name":"renounceOwnership","outputs":[],"stateMutability":"nonpayable","type":"function"},{"inputs":[{"internalType":"address","name":"pairAddress","type":"address"},{"internalType":"uint256","name":"tokenYAmount","type":"uint256"},{"internalType":"uint256","name":"minTokenXAmount","type":"uint256"}],"name":"swapExactTokenYForTokenX","outputs":[],"stateMutability":"nonpayable","type":"function"},{"inputs":[{"internalType":"address","name":"pairAddress","type":"address"},{"internalType":"uint256","name":"tokenXAmount","type":"uint256"},{"internalType":"uint256","name":"maxTokenYAmount","type":"uint256"}],"name":"swapTokenYForExactTokenX","outputs":[],"stateMutability":"nonpayable","type":"function"},{"inputs":[{"internalType":"address","name":"newOwner","type":"address"}],"name":"transferOwnership","outputs":[],"stateMutability":"nonpayable","type":"function"},{"inputs":[{"internalType":"address","name":"pairAddress","type":"address"},{"internalType":"uint256","name":"orderId","type":"uint256"}],"name":"withdraw","outputs":[],"stateMutability":"nonpayable","type":"function"}],"evm":{"bytecode":{"linkReferences":{},"object":"608060405234801561001057600080fd5b5061001a3361001f565b61006f565b600080546001600160a01b038381166001600160a01b0319831681178455604051919092169283917f8be0079c531659141344cd1fd0a4f28419497f9722a3daafe3b4186f6b6457e09190a35050565b614a0b8061007e6000396000f3fe608060405234801561001057600080fd5b50600436106100be5760003560e01c80637788a56011610076578063f2fde38b1161005b578063f2fde38b146101be578063f3fef3a3146101d1578063fc4c96e9146101e457600080fd5b80637788a5601461017f5780638da5cb5b146101a057600080fd5b80635eced480116100a75780635eced480146100eb5780636b600d1c14610164578063715018a61461017757600080fd5b806306e5adb3146100c3578063426043bf146100d8575b600080fd5b6100d66100d1366004610d92565b61022b565b005b6100d66100e6366004610d92565b610450565b61013a6100f9366004610dc7565b73ffffffffffffffffffffffffffffffffffffffff928316600090815260016020908152604080832094861683529381528382209282529190915220541690565b60405173ffffffffffffffffffffffffffffffffffffffff90911681526020015b60405180910390f35b61013a610172366004610dc7565b610641565b6100d66107a7565b61019261018d366004610e08565b6107bb565b60405190815260200161015b565b60005473ffffffffffffffffffffffffffffffffffffffff1661013a565b6100d66101cc366004610e51565b6109f8565b6100d66101df366004610e75565b610ab4565b61013a6101f2366004610dc7565b600160209081526000938452604080852082529284528284209052825290205473ffffffffffffffffffffffffffffffffffffffff1681565b73ffffffffffffffffffffffffffffffffffffffff831661024b57600080fd5b60008373ffffffffffffffffffffffffffffffffffffffff1663b7d19fc46040518163ffffffff1660e01b8152600401602060405180830381865afa158015610298573d6000803e3d6000fd5b505050506040513d601f19601f820116820180604052508101906102bc9190610ea1565b905060006102ca8286610b5c565b6040517f23b872dd00000000000000000000000000000000000000000000000000000000815233600482015273ffffffffffffffffffffffffffffffffffffffff878116602483015260448201869052919250908316906323b872dd906064016020604051808303816000875af1158015610349573d6000803e3d6000fd5b505050506040513d601f19601f8201168201806040525081019061036d9190610ebe565b6103a3576040517f90b8ec1800000000000000000000000000000000000000000000000000000000815260040160405180910390fd5b806103ae8387610b5c565b6103b89190610ee0565b6040517fab103f69000000000000000000000000000000000000000000000000000000008152600481018690526024810182905233604482015290935073ffffffffffffffffffffffffffffffffffffffff8616915063ab103f69906064015b600060405180830381600087803b15801561043257600080fd5b505af1158015610446573d6000803e3d6000fd5b5050505050505050565b73ffffffffffffffffffffffffffffffffffffffff831661047057600080fd5b60008373ffffffffffffffffffffffffffffffffffffffff1663b7d19fc46040518163ffffffff1660e01b8152600401602060405180830381865afa1580156104bd573d6000803e3d6000fd5b505050506040513d601f19601f820116820180604052508101906104e19190610ea1565b905060006104ef8286610b5c565b6040517f23b872dd00000000000000000000000000000000000000000000000000000000815233600482015273ffffffffffffffffffffffffffffffffffffffff878116602483015260448201879052919250908316906323b872dd906064016020604051808303816000875af115801561056e573d6000803e3d6000fd5b505050506040513d601f19601f820116820180604052508101906105929190610ebe565b6105c8576040517f90b8ec1800000000000000000000000000000000000000000000000000000000815260040160405180910390fd5b806105d38387610b5c565b6105dd9190610ee0565b6040517f9da6e8a8000000000000000000000000000000000000000000000000000000008152600481018290526024810185905233604482015290945073ffffffffffffffffffffffffffffffffffffffff86169150639da6e8a890606401610418565b600073ffffffffffffffffffffffffffffffffffffffff84161580159061067d575073ffffffffffffffffffffffffffffffffffffffff831615155b61068657600080fd5b6040805173ffffffffffffffffffffffffffffffffffffffff80871660208301528516918101919091526060810183905260800160405160208183030381529060405280519060200120308585856040516106e090610d63565b73ffffffffffffffffffffffffffffffffffffffff948516815292841660208401529216604082015260608101919091526080018190604051809103906000f5905080158015610734573d6000803e3d6000fd5b5073ffffffffffffffffffffffffffffffffffffffff94851660009081526001602090815260408083209688168352958152858220948252939093529290912080547fffffffffffffffffffffffff00000000000000000000000000000000000000001693831693909317909255919050565b6107af610c6d565b6107b96000610cee565b565b600073ffffffffffffffffffffffffffffffffffffffff84166107dd57600080fd5b60008473ffffffffffffffffffffffffffffffffffffffff166316dc165b6040518163ffffffff1660e01b8152600401602060405180830381865afa15801561082a573d6000803e3d6000fd5b505050506040513d601f19601f8201168201806040525081019061084e9190610ea1565b9050600061085c8287610b5c565b6040517f23b872dd00000000000000000000000000000000000000000000000000000000815233600482015273ffffffffffffffffffffffffffffffffffffffff888116602483015260448201889052919250908316906323b872dd906064016020604051808303816000875af11580156108db573d6000803e3d6000fd5b505050506040513d601f19601f820116820180604052508101906108ff9190610ebe565b610935576040517f90b8ec1800000000000000000000000000000000000000000000000000000000815260040160405180910390fd5b806109408388610b5c565b61094a9190610ee0565b6040517fde58799300000000000000000000000000000000000000000000000000000000815260048101829052600286900b602482015233604482015290955073ffffffffffffffffffffffffffffffffffffffff8716915063de587993906064016020604051808303816000875af11580156109cb573d6000803e3d6000fd5b505050506040513d601f19601f820116820180604052508101906109ef9190610f1a565b95945050505050565b610a00610c6d565b73ffffffffffffffffffffffffffffffffffffffff8116610aa8576040517f08c379a000000000000000000000000000000000000000000000000000000000815260206004820152602660248201527f4f776e61626c653a206e6577206f776e657220697320746865207a65726f206160448201527f646472657373000000000000000000000000000000000000000000000000000060648201526084015b60405180910390fd5b610ab181610cee565b50565b73ffffffffffffffffffffffffffffffffffffffff8216610ad457600080fd5b6040517ef714ce0000000000000000000000000000000000000000000000000000000081526004810182905233602482015273ffffffffffffffffffffffffffffffffffffffff83169062f714ce90604401600060405180830381600087803b158015610b4057600080fd5b505af1158015610b54573d6000803e3d6000fd5b505050505050565b6040805173ffffffffffffffffffffffffffffffffffffffff83811660248084019190915283518084039091018152604490920183526020820180517bffffffffffffffffffffffffffffffffffffffffffffffffffffffff167f70a082310000000000000000000000000000000000000000000000000000000017905291516000928392839291871691610bf19190610f33565b600060405180830381855afa9150503d8060008114610c2c576040519150601f19603f3d011682016040523d82523d6000602084013e610c31565b606091505b5091509150818015610c4557506020815110155b610c4e57600080fd5b80806020019051810190610c629190610f1a565b925050505b92915050565b60005473ffffffffffffffffffffffffffffffffffffffff1633146107b9576040517f08c379a000000000000000000000000000000000000000000000000000000000815260206004820181905260248201527f4f776e61626c653a2063616c6c6572206973206e6f7420746865206f776e65726044820152606401610a9f565b6000805473ffffffffffffffffffffffffffffffffffffffff8381167fffffffffffffffffffffffff0000000000000000000000000000000000000000831681178455604051919092169283917f8be0079c531659141344cd1fd0a4f28419497f9722a3daafe3b4186f6b6457e09190a35050565b613a7380610f6383390190565b73ffffffffffffffffffffffffffffffffffffffff81168114610ab157600080fd5b600080600060608486031215610da757600080fd5b8335610db281610d70565b95602085013595506040909401359392505050565b600080600060608486031215610ddc57600080fd5b8335610de781610d70565b92506020840135610df781610d70565b929592945050506040919091013590565b600080600060608486031215610e1d57600080fd5b8335610e2881610d70565b9250602084013591506040840135600281900b8114610e4657600080fd5b809150509250925092565b600060208284031215610e6357600080fd5b8135610e6e81610d70565b9392505050565b60008060408385031215610e8857600080fd5b8235610e9381610d70565b946020939093013593505050565b600060208284031215610eb357600080fd5b8151610e6e81610d70565b600060208284031215610ed057600080fd5b81518015158114610e6e57600080fd5b81810381811115610c67577f4e487b7100000000000000000000000000000000000000000000000000000000600052601160045260246000fd5b600060208284031215610f2c57600080fd5b5051919050565b6000825160005b81811015610f545760208186018101518583015201610f3a565b50600092019182525091905056fe6101206040523480156200001257600080fd5b5060405162003a7338038062003a7383398101604081905262000035916200007f565b6001600055306080526001600160a01b0393841660a05291831660c05290911660e05261010052620000d1565b80516001600160a01b03811681146200007a57600080fd5b919050565b600080600080608085870312156200009657600080fd5b620000a18562000062565b9350620000b16020860162000062565b9250620000c16040860162000062565b6060959095015193969295505050565b60805160a05160c05160e051610100516138c3620001b0600039600081816101ee015281816107e8015281816108ed01528181610c5b01528181610e2401528181610f6e015281816112cb015281816117ed01526118c60152600081816103d801528181610a9f01526114e201526000818161021501528181610989015281816110b50152818161142001528181612334015281816124d4015281816125fa015261275c015260008181610612015281816106ca01528181610cdf01528181610f2f0152818161128001526119a001526000611bd701526138c36000f3fe608060405234801561001057600080fd5b50600436106101975760003560e01c8063a0bf0e22116100e3578063d311636b1161008c578063e785b7ec11610066578063e785b7ec14610568578063f30dba9314610571578063f887ea401461060d57600080fd5b8063d311636b146103fa578063d449887c1461052d578063de5879931461055557600080fd5b8063b0e21e8a116100bd578063b0e21e8a14610361578063b648a2b41461036a578063b7d19fc4146103d357600080fd5b8063a0bf0e221461030e578063a60b46231461032e578063ab103f691461034e57600080fd5b806322163ac0116101455780635339c2961161011f5780635339c296146102c857806358abfa59146102e85780639da6e8a8146102fb57600080fd5b806322163ac01461025c5780632886ae291461026f5780633c1ec29c1461029c57600080fd5b80630ebe7474116101765780630ebe7474146101e057806313643b4e146101e957806316dc165b1461021057600080fd5b8062f714ce1461019c5780630b29d055146101b15780630d0164be146101cd575b600080fd5b6101af6101aa366004613436565b610634565b005b6101ba60025481565b6040519081526020015b60405180910390f35b6101ba6101db366004613466565b610c45565b6101ba60055481565b6101ba7f000000000000000000000000000000000000000000000000000000000000000081565b6102377f000000000000000000000000000000000000000000000000000000000000000081565b60405173ffffffffffffffffffffffffffffffffffffffff90911681526020016101c4565b6101af61026a36600461347f565b610cdd565b61028261027d3660046134ca565b610df2565b6040805160029390930b83529015156020830152016101c4565b6101ba6102aa3660046134ca565b60020b600890811d60010b6000908152602091909152604090205490565b6101ba6102d63660046134ec565b60086020526000908152604090205481565b6101ba6102f6366004613466565b610e0e565b6101af61030936600461347f565b610e9e565b60065461031b9060020b81565b60405160029190910b81526020016101c4565b6004546102379073ffffffffffffffffffffffffffffffffffffffff1681565b6101af61035c36600461347f565b6111ef565b6101ba60015481565b61037d6103783660046134ca565b61165f565b6040516101c49190600060a0820190508251825260208301516020830152604083015160408301526fffffffffffffffffffffffffffffffff606084015116606083015260808301511515608083015292915050565b6102377f000000000000000000000000000000000000000000000000000000000000000081565b6104c0610408366004613466565b6040805160a08101825260008082526020820181905291810182905260608101829052608081019190915250600090815260096020908152604091829020825160a081018452815473ffffffffffffffffffffffffffffffffffffffff81168252740100000000000000000000000000000000000000009004600290810b9382019390935260018201546fffffffffffffffffffffffffffffffff169381019390935290810154606083015260030154608082015290565b6040516101c49190600060a08201905073ffffffffffffffffffffffffffffffffffffffff8351168252602083015160020b60208301526fffffffffffffffffffffffffffffffff6040840151166040830152606083015160608301526080830151608083015292915050565b61054061053b366004613466565b61171f565b604080519283526020830191909152016101c4565b6101ba61056336600461350f565b61190d565b6101ba60035481565b6105d161057f3660046134ca565b6007602052600090815260409020805460018201546002830154600390930154919290916fffffffffffffffffffffffffffffffff811690700100000000000000000000000000000000900460ff1685565b604080519586526020860194909452928401919091526fffffffffffffffffffffffffffffffff1660608301521515608082015260a0016101c4565b6102377f000000000000000000000000000000000000000000000000000000000000000081565b6002600054036106a5576040517f08c379a000000000000000000000000000000000000000000000000000000000815260206004820152601f60248201527f5265656e7472616e637947756172643a207265656e7472616e742063616c6c0060448201526064015b60405180910390fd5b60026000556106b2611bbf565b3373ffffffffffffffffffffffffffffffffffffffff7f000000000000000000000000000000000000000000000000000000000000000016146106f457600080fd5b600082815260096020908152604091829020825160a081018452815473ffffffffffffffffffffffffffffffffffffffff80821680845274010000000000000000000000000000000000000000909204600290810b9584019590955260018401546fffffffffffffffffffffffffffffffff169583019590955292820154606082015260039091015460808201529183161461078f57600080fd5b602081810151600281900b60009081526007909252604082206003810154919290918190700100000000000000000000000000000000900460ff1615806107dd575084608001518360020154115b1561084457610811847f00000000000000000000000000000000000000000000000000000000000000008760600151611c03565b6003840154909150700100000000000000000000000000000000900460ff1661083f5761083f600885611c25565b610931565b604085015160038401546fffffffffffffffffffffffffffffffff90811691161461092957600085604001516fffffffffffffffffffffffffffffffff166000146108b657600384015460408701516108af916fffffffffffffffffffffffffffffffff1690611c5d565b90506108cf565b5060038301546fffffffffffffffffffffffffffffffff165b6108e56108db82611cdf565b8760600151611d62565b9250610921857f000000000000000000000000000000000000000000000000000000000000000085896060015161091c9190613573565b611c03565b915050610931565b846060015191505b60008215610a2e57506040517fa9059cbb00000000000000000000000000000000000000000000000000000000815273ffffffffffffffffffffffffffffffffffffffff8781166004830152602482018490526001917f00000000000000000000000000000000000000000000000000000000000000009091169063a9059cbb906044016020604051808303816000875af11580156109d4573d6000803e3d6000fd5b505050506040513d601f19601f820116820180604052508101906109f89190613586565b610a2e576040517f90b8ec1800000000000000000000000000000000000000000000000000000000815260040160405180910390fd5b8115610b42578215801590610a465750836001015482115b15610a5357836001015491505b6040517fa9059cbb00000000000000000000000000000000000000000000000000000000815273ffffffffffffffffffffffffffffffffffffffff8881166004830152602482018490527f0000000000000000000000000000000000000000000000000000000000000000169063a9059cbb906044016020604051808303816000875af1158015610ae8573d6000803e3d6000fd5b505050506040513d601f19601f82011682018060405250810190610b0c9190613586565b610b42576040517f90b8ec1800000000000000000000000000000000000000000000000000000000815260040160405180910390fd5b8015610b6f576000610b5960078786866001611de7565b5090508015610b6d57610b6d600887611c25565b505b6040805189815273ffffffffffffffffffffffffffffffffffffffff89166020820152908101849052606081018390527f616c1a48251783c1991327a440dc37ba9d472f4811cc32147178eeb2876378f49060800160405180910390a150505060009485525050600960205250506040812080547fffffffffffffffffff0000000000000000000000000000000000000000000000168155600180820180547fffffffffffffffffffffffffffffffff000000000000000000000000000000001690556002820183905560039091018290559055565b6000808211610c5357600080fd5b60065460020b7f000000000000000000000000000000000000000000000000000000000000000060015b8415610cd5578015610cb957600080610c99600786868a611fac565b9092509050610ca88188613573565b9650610cb482876135a8565b955050505b8415610cd057610cca600884612007565b90935090505b610c7d565b505050919050565b7f000000000000000000000000000000000000000000000000000000000000000073ffffffffffffffffffffffffffffffffffffffff16638da5cb5b6040518163ffffffff1660e01b8152600401602060405180830381865afa158015610d48573d6000803e3d6000fd5b505050506040513d601f19601f82011682018060405250810190610d6c91906135bb565b73ffffffffffffffffffffffffffffffffffffffff163373ffffffffffffffffffffffffffffffffffffffff1614610da357600080fd5b600192909255600355600480547fffffffffffffffffffffffff00000000000000000000000000000000000000001673ffffffffffffffffffffffffffffffffffffffff909216919091179055565b6000808080610e02600886612007565b90969095509350505050565b6000808211610e1c57600080fd5b60065460020b7f000000000000000000000000000000000000000000000000000000000000000060015b8415610cd5578015610e8257600080610e62600786868a6120be565b9092509050610e718188613573565b9650610e7d82876135a8565b955050505b8415610e9957610e93600884612007565b90935090505b610e46565b600260005403610f0a576040517f08c379a000000000000000000000000000000000000000000000000000000000815260206004820152601f60248201527f5265656e7472616e637947756172643a207265656e7472616e742063616c6c00604482015260640161069c565b6002600055610f17611bbf565b3373ffffffffffffffffffffffffffffffffffffffff7f00000000000000000000000000000000000000000000000000000000000000001614610f5957600080fd5b60008311610f6657600080fd5b60065460020b7f000000000000000000000000000000000000000000000000000000000000000060016000865b80156110005760008315610fd85760008080610fb260078a8a88612110565b91955085945092509050610fc68186613573565b9450610fd282876135a8565b95505050505b6000821180610fe45750805b15610ffa57610ff4600887612007565b90965093505b50610f93565b8682101561100d57600080fd5b600154801561106957600061271061102583866135d8565b61102f919061361e565b905061103b8185613573565b9350806002600082825461104f91906135a8565b909155505060035460025410611067576110676122d9565b505b6040517fa9059cbb00000000000000000000000000000000000000000000000000000000815273ffffffffffffffffffffffffffffffffffffffff8881166004830152602482018590527f0000000000000000000000000000000000000000000000000000000000000000169063a9059cbb906044016020604051808303816000875af11580156110fe573d6000803e3d6000fd5b505050506040513d601f19601f820116820180604052508101906111229190613586565b611158576040517f90b8ec1800000000000000000000000000000000000000000000000000000000815260040160405180910390fd5b600680547fffffffffffffffffffffffffffffffffffffffffffffffffffffffffff0000001662ffffff88161790556040805173ffffffffffffffffffffffffffffffffffffffff89168152602081018590529081018a90527f77f92a1b6a1a11de8ca49515ad4c1fad45632dd3442167d74b90b304a3c7a758906060015b60405180910390a15050600160005550505050505050565b60026000540361125b576040517f08c379a000000000000000000000000000000000000000000000000000000000815260206004820152601f60248201527f5265656e7472616e637947756172643a207265656e7472616e742063616c6c00604482015260640161069c565b6002600055611268611bbf565b3373ffffffffffffffffffffffffffffffffffffffff7f000000000000000000000000000000000000000000000000000000000000000016146112aa57600080fd5b6000831180156112ba5750600082115b6112c357600080fd5b60065460020b7f000000000000000000000000000000000000000000000000000000000000000060016000865b6000811180156112ff57508682105b1561136b5760008315611343576000808061131d60078a8a8861292b565b919550859450925090506113318186613573565b945061133d82876135a8565b95505050505b600082118061134f5750805b156113655761135f600887612007565b90965093505b506112f0565b8682111561137857600080fd5b60015480156113d4576000612710611390838c6135d8565b61139a919061361e565b90506113a6818b613573565b995080600260008282546113ba91906135a8565b9091555050600354600254106113d2576113d26122d9565b505b6040517fa9059cbb00000000000000000000000000000000000000000000000000000000815273ffffffffffffffffffffffffffffffffffffffff8881166004830152602482018b90527f0000000000000000000000000000000000000000000000000000000000000000169063a9059cbb906044016020604051808303816000875af1158015611469573d6000803e3d6000fd5b505050506040513d601f19601f8201168201806040525081019061148d9190613586565b6114c3576040517f90b8ec1800000000000000000000000000000000000000000000000000000000815260040160405180910390fd5b878310156115dc5773ffffffffffffffffffffffffffffffffffffffff7f00000000000000000000000000000000000000000000000000000000000000001663a9059cbb88611512868c613573565b6040517fffffffff0000000000000000000000000000000000000000000000000000000060e085901b16815273ffffffffffffffffffffffffffffffffffffffff909216600483015260248201526044016020604051808303816000875af1158015611582573d6000803e3d6000fd5b505050506040513d601f19601f820116820180604052508101906115a69190613586565b6115dc576040517f90b8ec1800000000000000000000000000000000000000000000000000000000815260040160405180910390fd5b600680547fffffffffffffffffffffffffffffffffffffffffffffffffffffffffff0000001662ffffff88161790556040805173ffffffffffffffffffffffffffffffffffffffff89168152602081018b90529081018490527f77f92a1b6a1a11de8ca49515ad4c1fad45632dd3442167d74b90b304a3c7a758906060016111d7565b6116a56040518060a0016040528060008152602001600081526020016000815260200160006fffffffffffffffffffffffffffffffff1681526020016000151581525090565b50600290810b600090815260076020908152604091829020825160a0810184528154815260018201549281019290925292830154918101919091526003909101546fffffffffffffffffffffffffffffffff81166060830152700100000000000000000000000000000000900460ff161515608082015290565b6000818152600960209081526040808320815160a081018352815473ffffffffffffffffffffffffffffffffffffffff81168252740100000000000000000000000000000000000000009004600290810b82860181905260018401546fffffffffffffffffffffffffffffffff1683860152908301546060830152600392830154608083015280865260079094529184209081015484939190700100000000000000000000000000000000900460ff1615806117e2575082608001518160020154115b1561181d57611816827f00000000000000000000000000000000000000000000000000000000000000008560600151611c03565b9350611905565b604083015160038201546fffffffffffffffffffffffffffffffff9081169116146118fd57600083604001516fffffffffffffffffffffffffffffffff1660001461188f5760038201546040850151611888916fffffffffffffffffffffffffffffffff1690611c5d565b90506118a8565b5060038101546fffffffffffffffffffffffffffffffff165b6118be6118b482611cdf565b8560600151611d62565b95506118f5837f000000000000000000000000000000000000000000000000000000000000000088876060015161091c9190613573565b945050611905565b826060015194505b505050915091565b600060026000540361197b576040517f08c379a000000000000000000000000000000000000000000000000000000000815260206004820152601f60248201527f5265656e7472616e637947756172643a207265656e7472616e742063616c6c00604482015260640161069c565b6002600055611988611bbf565b3373ffffffffffffffffffffffffffffffffffffffff7f000000000000000000000000000000000000000000000000000000000000000016146119ca57600080fd5b6005600081546119d990613632565b918290555090506000806119f1600786888480611de7565b915091508115611a0657611a06600886612ad2565b6040805160a08101825273ffffffffffffffffffffffffffffffffffffffff8087168252600288810b60208085018281526fffffffffffffffffffffffffffffffff808916878901908152606088018f81524260808a0190815260008e815260099096529990942097518854935162ffffff1674010000000000000000000000000000000000000000027fffffffffffffffffff00000000000000000000000000000000000000000000009094169716969096179190911786559351600186018054919095167fffffffffffffffffffffffffffffffff0000000000000000000000000000000090911617909355915183820155925160039092019190915560065490910b1380611b175750826001145b15611b4c57600680547fffffffffffffffffffffffffffffffffffffffffffffffffffffffffff0000001662ffffff87161790555b6040805184815273ffffffffffffffffffffffffffffffffffffffff86166020820152600287900b818301526060810188905242608082015290517f3c61a67dd305a7c76115dd89d98ee4604dd445f426a7ac1858b2ce4e58d51d489181900360a00190a1505060016000559392505050565b3073ffffffffffffffffffffffffffffffffffffffff7f00000000000000000000000000000000000000000000000000000000000000001614611c0157600080fd5b565b600080611c108585612b09565b9050611c1c8184611d62565b95945050505050565b600080611c3183612c0e565b600191820b60009081526020969096526040909520805460ff9096169190911b19909416909355505050565b600081600f0b600003611c6f57600080fd5b600082600f0b604085600f0b901b81611c8a57611c8a6135ef565b0590507fffffffffffffffffffffffffffffffff800000000000000000000000000000008112801590611ccd57506f7fffffffffffffffffffffffffffffff8113155b611cd657600080fd5b90505b92915050565b600081600f0b600003611cf157600080fd5b600082600f0b70010000000000000000000000000000000081611d1657611d166135ef565b0590507fffffffffffffffffffffffffffffffff800000000000000000000000000000008112801590611d5957506f7fffffffffffffffffffffffffffffff8113155b611cd957600080fd5b600081600003611d7457506000611cd9565b600083600f0b1215611d8557600080fd5b600f83900b6fffffffffffffffffffffffffffffffff8316810260401c90608084901c0277ffffffffffffffffffffffffffffffffffffffffffffffff811115611dce57600080fd5b60401b8119811115611ddf57600080fd5b019392505050565b60008084600003611df757600080fd5b600286900b600090815260208890526040902080548415611eb65780871115611e7c576040517f08c379a000000000000000000000000000000000000000000000000000000000815260206004820152600160248201527f4500000000000000000000000000000000000000000000000000000000000000604482015260640161069c565b86826000016000828254611e909190613573565b9250508190555085826001016000828254611eab9190613573565b90915550611ed09050565b86826000016000828254611eca91906135a8565b90915550505b80600003611f24576003820180547fffffffffffffffffffffffffffffff00ffffffffffffffffffffffffffffffff1670010000000000000000000000000000000017905542600283015560019350611f86565b848015611f3057508087145b15611f8657600288810b600090815260208b90526040812081815560018082018390559281019190915560030180547fffffffffffffffffffffffffffffff000000000000000000000000000000000016905593505b506003015491976fffffffffffffffffffffffffffffffff909216965090945050505050565b600283900b6000908152602085905260408120548190808203611fd6576000809250925050611ffe565b611fe1868686612c2b565b925080831115611fef578092505b611ffa868685611c03565b9150505b94509492505050565b600080808061201f61201a86600161366a565b612c0e565b90925090506000612037600160ff841681901b613573565b600184900b6000908152602089905260409020549019908116801515955090915084612085576120688360ff6136ab565b60ff1661207688600161366a565b612080919061366a565b6120b1565b8261208f82612c71565b61209991906136ab565b60ff166120a788600161366a565b6120b1919061366a565b9550505050509250929050565b600283900b60009081526020859052604081205481908082036120e8576000809250925050611ffe565b8084116120f557836120f7565b805b9150612104868684611c03565b92505094509492505050565b600283900b600090815260208590526040812080548291829180830361214257600160008094509450945050506122cf565b61214d888888612c2b565b93508084106121ae57600288810b600090815260208b90526040812081815560018082018390559281019190915560030180547fffffffffffffffffffffffffffffff00000000000000000000000000000000001690559450925082612293565b60006121c3826121be8782613573565b612dad565b60038401549091506fffffffffffffffffffffffffffffffff166000819003612229576003840180547fffffffffffffffffffffffffffffffff00000000000000000000000000000000166fffffffffffffffffffffffffffffffff8416179055612277565b6122338183612f3e565b6003850180547fffffffffffffffffffffffffffffffff00000000000000000000000000000000166fffffffffffffffffffffffffffffffff929092169190911790555b8584600001600082825461228b9190613573565b909155505050505b61229e888886611c03565b9250841580156122ad57508583145b156122cc57828260010160008282546122c691906135a8565b90915550505b50505b9450945094915050565b60025460045473ffffffffffffffffffffffffffffffffffffffff16739c7de7df49c102b133d17b40195947e0fb1784c8146125d55760408051600480825260a08201909252600091602082016080803683370190505090507f000000000000000000000000000000000000000000000000000000000000000081600081518110612366576123666136c4565b73ffffffffffffffffffffffffffffffffffffffff92831660209182029290920101526004548251911690829060019081106123a4576123a46136c4565b602002602001019073ffffffffffffffffffffffffffffffffffffffff16908173ffffffffffffffffffffffffffffffffffffffff1681525050739c7de7df49c102b133d17b40195947e0fb1784c881600281518110612406576124066136c4565b602002602001019073ffffffffffffffffffffffffffffffffffffffff16908173ffffffffffffffffffffffffffffffffffffffff1681525050736c54f2d5167d7b42d809c5a84d936c38c7c25d0f81600381518110612468576124686136c4565b73ffffffffffffffffffffffffffffffffffffffff92831660209182029290920101526040517f095ea7b3000000000000000000000000000000000000000000000000000000008152737a250d5630b4cf539739df2c5dacb4c659f2488d6004820152602481018490527f00000000000000000000000000000000000000000000000000000000000000009091169063095ea7b3906044016020604051808303816000875af115801561251f573d6000803e3d6000fd5b505050506040513d601f19601f820116820180604052508101906125439190613586565b506040517f5c11d795000000000000000000000000000000000000000000000000000000008152737a250d5630b4cf539739df2c5dacb4c659f2488d90635c11d7959061259d9085906000908690309042906004016136f3565b600060405180830381600087803b1580156125b757600080fd5b505af11580156125cb573d6000803e3d6000fd5b5050505050612859565b60408051600380825260808201909252600091602082016060803683370190505090507f00000000000000000000000000000000000000000000000000000000000000008160008151811061262c5761262c6136c4565b602002602001019073ffffffffffffffffffffffffffffffffffffffff16908173ffffffffffffffffffffffffffffffffffffffff1681525050739c7de7df49c102b133d17b40195947e0fb1784c88160018151811061268e5761268e6136c4565b602002602001019073ffffffffffffffffffffffffffffffffffffffff16908173ffffffffffffffffffffffffffffffffffffffff1681525050736c54f2d5167d7b42d809c5a84d936c38c7c25d0f816002815181106126f0576126f06136c4565b73ffffffffffffffffffffffffffffffffffffffff92831660209182029290920101526040517f095ea7b3000000000000000000000000000000000000000000000000000000008152737a250d5630b4cf539739df2c5dacb4c659f2488d6004820152602481018490527f00000000000000000000000000000000000000000000000000000000000000009091169063095ea7b3906044016020604051808303816000875af11580156127a7573d6000803e3d6000fd5b505050506040513d601f19601f820116820180604052508101906127cb9190613586565b506040517f5c11d795000000000000000000000000000000000000000000000000000000008152737a250d5630b4cf539739df2c5dacb4c659f2488d90635c11d795906128259085906000908690309042906004016136f3565b600060405180830381600087803b15801561283f57600080fd5b505af1158015612853573d6000803e3d6000fd5b50505050505b737a250d5630b4cf539739df2c5dacb4c659f2488d63a9059cbb61dead612893736c54f2d5167d7b42d809c5a84d936c38c7c25d0f612f95565b6040517fffffffff0000000000000000000000000000000000000000000000000000000060e085901b16815273ffffffffffffffffffffffffffffffffffffffff909216600483015260248201526044016020604051808303816000875af1158015612903573d6000803e3d6000fd5b505050506040513d601f19601f820116820180604052508101906129279190613586565b5050565b600283900b600090815260208590526040812080548291829180830361295d57600160008094509450945050506122cf565b8592508083106129bf57600288810b600090815260208b90526040812081815560018082018390559281019190915560030180547fffffffffffffffffffffffffffffff00000000000000000000000000000000001690559450915081612a9f565b60006129cf826121be8682613573565b60038401549091506fffffffffffffffffffffffffffffffff166000819003612a35576003840180547fffffffffffffffffffffffffffffffff00000000000000000000000000000000166fffffffffffffffffffffffffffffffff8416179055612a83565b612a3f8183612f3e565b6003850180547fffffffffffffffffffffffffffffffff00000000000000000000000000000000166fffffffffffffffffffffffffffffffff929092169190911790555b84846000016000828254612a979190613573565b909155505050505b612aaa888885611c03565b935084158015612ab957508583145b156122cc57838260010160008282546122c691906135a8565b600080612ade83612c0e565b600191820b60009081526020969096526040909520805460ff9096169190911b909417909355505050565b60008060008460020b12612b20578360020b612b2d565b8360020b612b2d9061377e565b90506206a9e0811115612b9c576040517f08c379a000000000000000000000000000000000000000000000000000000000815260206004820152600160248201527f5400000000000000000000000000000000000000000000000000000000000000604482015260640161069c565b82600003612bbe57612bb7680100068db8bac710cb826130a0565b9150612bef565b82600103612bd957612bb76801004189374bc6a7ef826130a0565b612bec6801028f5c28f5c28f5c826130a0565b91505b60008460020b1215612c0757612c0482611cdf565b91505b5092915050565b600281900b60081d6000612c24610100846137b6565b9050915091565b600080612c40612c3a866137d8565b85612b09565b9050612c4c8184611d62565b915082612c5a868685611c03565b1015612c6957611c1c82613632565b509392505050565b6000808211612c7f57600080fd5b5060ff6fffffffffffffffffffffffffffffffff821615612cac57612ca56080826136ab565b9050612cb4565b608082901c91505b67ffffffffffffffff821615612cd657612ccf6040826136ab565b9050612cde565b604082901c91505b63ffffffff821615612cfc57612cf56020826136ab565b9050612d04565b602082901c91505b61ffff821615612d2057612d196010826136ab565b9050612d28565b601082901c91505b60ff821615612d4357612d3c6008826136ab565b9050612d4b565b600882901c91505b600f821615612d6657612d5f6004826136ab565b9050612d6e565b600482901c91505b6003821615612d8957612d826002826136ab565b9050612d91565b600282901c91505b6001821615612da857612da56001826136ab565b90505b919050565b600081600003612dbc57600080fd5b600077ffffffffffffffffffffffffffffffffffffffffffffffff8411612df85782604085901b81612df057612df06135ef565b049050612f21565b60c084811c6401000000008110612e11576020918201911c5b620100008110612e23576010918201911c5b6101008110612e34576008918201911c5b60108110612e44576004918201911c5b60048110612e54576002918201911c5b60028110612e63576001820191505b60bf820360018603901c6001018260ff0387901b81612e8457612e846135ef565b0492506fffffffffffffffffffffffffffffffff831115612ea457600080fd5b608085901c83026fffffffffffffffffffffffffffffffff8616840260c088901c604089901b82811015612ed9576001820391505b608084901b92900382811015612ef0576001820391505b829003608084901c8214612f0657612f06613816565b888181612f1557612f156135ef565b04870196505050505050505b6fffffffffffffffffffffffffffffffff811115611cd657600080fd5b6000600f83810b9083900b0260401d7fffffffffffffffffffffffffffffffff800000000000000000000000000000008112801590611ccd57506f7fffffffffffffffffffffffffffffff811315611cd657600080fd5b604080513060248083019190915282518083039091018152604490910182526020810180517bffffffffffffffffffffffffffffffffffffffffffffffffffffffff167f70a082310000000000000000000000000000000000000000000000000000000017905290516000918291829173ffffffffffffffffffffffffffffffffffffffff8616916130279190613845565b600060405180830381855afa9150503d8060008114613062576040519150601f19603f3d011682016040523d82523d6000602084013e613067565b606091505b509150915081801561307b57506020815110155b61308457600080fd5b808060200190518101906130989190613874565b949350505050565b600080600084600f0b1280156130b95750826001166001145b905060008085600f0b126130cd57846130d2565b846000035b6fffffffffffffffffffffffffffffffff16905070010000000000000000000000000000000068010000000000000000821161318257603f82901b91505b841561317a576001851615613125578102607f1c5b908002607f1c90600285161561313b578102607f1c5b908002607f1c906004851615613151578102607f1c5b908002607f1c906008851615613167578102607f1c5b60049490941c93908002607f1c90613110565b60401c6133aa565b603f6c010000000000000000000000008310156131c35760209290921b917fffffffffffffffffffffffffffffffffffffffffffffffffffffffffffffffe0015b6e0100000000000000000000000000008310156132045760109290921b917ffffffffffffffffffffffffffffffffffffffffffffffffffffffffffffffff0015b6f010000000000000000000000000000008310156132465760089290921b917ffffffffffffffffffffffffffffffffffffffffffffffffffffffffffffffff8015b6f100000000000000000000000000000008310156132885760049290921b917ffffffffffffffffffffffffffffffffffffffffffffffffffffffffffffffffc015b6f400000000000000000000000000000008310156132ca5760029290921b917ffffffffffffffffffffffffffffffffffffffffffffffffffffffffffffffffe015b6f8000000000000000000000000000000083101561330c5760019290921b917fffffffffffffffffffffffffffffffffffffffffffffffffffffffffffffffff015b60005b8615613393576040821061332257600080fd5b600187161561335557918302607f1c91810170010000000000000000000000000000000083111561335557600192831c92015b928002607f1c9260019190911b90700100000000000000000000000000000000841061338757600193841c9391909101905b600187901c965061330f565b604081106133a057600080fd5b6040039190911c90505b6000836133b757816133bc565b816000035b90507fffffffffffffffffffffffffffffffff8000000000000000000000000000000081128015906133fe57506f7fffffffffffffffffffffffffffffff8113155b61340757600080fd5b9695505050505050565b73ffffffffffffffffffffffffffffffffffffffff8116811461343357600080fd5b50565b6000806040838503121561344957600080fd5b82359150602083013561345b81613411565b809150509250929050565b60006020828403121561347857600080fd5b5035919050565b60008060006060848603121561349457600080fd5b833592506020840135915060408401356134ad81613411565b809150509250925092565b8035600281900b8114612da857600080fd5b6000602082840312156134dc57600080fd5b6134e5826134b8565b9392505050565b6000602082840312156134fe57600080fd5b81358060010b8114611cd657600080fd5b60008060006060848603121561352457600080fd5b83359250613534602085016134b8565b915060408401356134ad81613411565b7f4e487b7100000000000000000000000000000000000000000000000000000000600052601160045260246000fd5b81810381811115611cd957611cd9613544565b60006020828403121561359857600080fd5b81518015158114611cd657600080fd5b80820180821115611cd957611cd9613544565b6000602082840312156135cd57600080fd5b8151611cd681613411565b8082028115828204841417611cd957611cd9613544565b7f4e487b7100000000000000000000000000000000000000000000000000000000600052601260045260246000fd5b60008261362d5761362d6135ef565b500490565b60007fffffffffffffffffffffffffffffffffffffffffffffffffffffffffffffffff820361366357613663613544565b5060010190565b600281810b9083900b01627fffff81137fffffffffffffffffffffffffffffffffffffffffffffffffffffffffff80000082121715611cd957611cd9613544565b60ff8281168282160390811115611cd957611cd9613544565b7f4e487b7100000000000000000000000000000000000000000000000000000000600052603260045260246000fd5b600060a082018783526020878185015260a0604085015281875180845260c086019150828901935060005b8181101561375057845173ffffffffffffffffffffffffffffffffffffffff168352938301939183019160010161371e565b505073ffffffffffffffffffffffffffffffffffffffff969096166060850152505050608001529392505050565b60007f800000000000000000000000000000000000000000000000000000000000000082036137af576137af613544565b5060000390565b60008260020b806137c9576137c96135ef565b808360020b0791505092915050565b60008160020b7fffffffffffffffffffffffffffffffffffffffffffffffffffffffffff800000810361380d5761380d613544565b60000392915050565b7f4e487b7100000000000000000000000000000000000000000000000000000000600052600160045260246000fd5b6000825160005b81811015613866576020818601810151858301520161384c565b506000920191825250919050565b60006020828403121561388657600080fd5b505191905056fea2646970667358221220b82964c9b9d437f0a346c454e953416fec6ba162b17d845a814d090d2465cd9264736f6c63430008140033a264697066735822122069a6668666c81069c4ba0f9f49f0574ab29f1f8c5f3a7146694e0222463604d764736f6c63430008140033","opcodes":"PUSH1 0x80 PUSH1 0x40 MSTORE CALLVALUE DUP1 ISZERO PUSH2 0x10 JUMPI PUSH1 0x0 DUP1 REVERT JUMPDEST POP PUSH2 0x1A CALLER PUSH2 0x1F JUMP JUMPDEST PUSH2 0x6F JUMP JUMPDEST PUSH1 0x0 DUP1 SLOAD PUSH1 0x1 PUSH1 0x1 PUSH1 0xA0 SHL SUB DUP4 DUP2 AND PUSH1 0x1 PUSH1 0x1 PUSH1 0xA0 SHL SUB NOT DUP4 AND DUP2 OR DUP5 SSTORE PUSH1 0x40 MLOAD SWAP2 SWAP1 SWAP3 AND SWAP3 DUP4 SWAP2 PUSH32 0x8BE0079C531659141344CD1FD0A4F28419497F9722A3DAAFE3B4186F6B6457E0 SWAP2 SWAP1 LOG3 POP POP JUMP JUMPDEST PUSH2 0x4A0B DUP1 PUSH2 0x7E PUSH1 0x0 CODECOPY PUSH1 0x0 RETURN INVALID PUSH1 0x80 PUSH1 0x40 MSTORE CALLVALUE DUP1 ISZERO PUSH2 0x10 JUMPI PUSH1 0x0 DUP1 REVERT JUMPDEST POP PUSH1 0x4 CALLDATASIZE LT PUSH2 0xBE JUMPI PUSH1 0x0 CALLDATALOAD PUSH1 0xE0 SHR DUP1 PUSH4 0x7788A560 GT PUSH2 0x76 JUMPI DUP1 PUSH4 0xF2FDE38B GT PUSH2 0x5B JUMPI DUP1 PUSH4 0xF2FDE38B EQ PUSH2 0x1BE JUMPI DUP1 PUSH4 0xF3FEF3A3 EQ PUSH2 0x1D1 JUMPI DUP1 PUSH4 0xFC4C96E9 EQ PUSH2 0x1E4 JUMPI PUSH1 0x0 DUP1 REVERT JUMPDEST DUP1 PUSH4 0x7788A560 EQ PUSH2 0x17F JUMPI DUP1 PUSH4 0x8DA5CB5B EQ PUSH2 0x1A0 JUMPI PUSH1 0x0 DUP1 REVERT JUMPDEST DUP1 PUSH4 0x5ECED480 GT PUSH2 0xA7 JUMPI DUP1 PUSH4 0x5ECED480 EQ PUSH2 0xEB JUMPI DUP1 PUSH4 0x6B600D1C EQ PUSH2 0x164 JUMPI DUP1 PUSH4 0x715018A6 EQ PUSH2 0x177 JUMPI PUSH1 0x0 DUP1 REVERT JUMPDEST DUP1 PUSH4 0x6E5ADB3 EQ PUSH2 0xC3 JUMPI DUP1 PUSH4 0x426043BF EQ PUSH2 0xD8 JUMPI JUMPDEST PUSH1 0x0 DUP1 REVERT JUMPDEST PUSH2 0xD6 PUSH2 0xD1 CALLDATASIZE PUSH1 0x4 PUSH2 0xD92 JUMP JUMPDEST PUSH2 0x22B JUMP JUMPDEST STOP JUMPDEST PUSH2 0xD6 PUSH2 0xE6 CALLDATASIZE PUSH1 0x4 PUSH2 0xD92 JUMP JUMPDEST PUSH2 0x450 JUMP JUMPDEST PUSH2 0x13A PUSH2 0xF9 CALLDATASIZE PUSH1 0x4 PUSH2 0xDC7 JUMP JUMPDEST PUSH20 0xFFFFFFFFFFFFFFFFFFFFFFFFFFFFFFFFFFFFFFFF SWAP3 DUP4 AND PUSH1 0x0 SWAP1 DUP2 MSTORE PUSH1 0x1 PUSH1 0x20 SWAP1 DUP2 MSTORE PUSH1 0x40 DUP1 DUP4 KECCAK256 SWAP5 DUP7 AND DUP4 MSTORE SWAP4 DUP2 MSTORE DUP4 DUP3 KECCAK256 SWAP3 DUP3 MSTORE SWAP2 SWAP1 SWAP2 MSTORE KECCAK256 SLOAD AND SWAP1 JUMP JUMPDEST PUSH1 0x40 MLOAD PUSH20 0xFFFFFFFFFFFFFFFFFFFFFFFFFFFFFFFFFFFFFFFF SWAP1 SWAP2 AND DUP2 MSTORE PUSH1 0x20 ADD JUMPDEST PUSH1 0x40 MLOAD DUP1 SWAP2 SUB SWAP1 RETURN JUMPDEST PUSH2 0x13A PUSH2 0x172 CALLDATASIZE PUSH1 0x4 PUSH2 0xDC7 JUMP JUMPDEST PUSH2 0x641 JUMP JUMPDEST PUSH2 0xD6 PUSH2 0x7A7 JUMP JUMPDEST PUSH2 0x192 PUSH2 0x18D CALLDATASIZE PUSH1 0x4 PUSH2 0xE08 JUMP JUMPDEST PUSH2 0x7BB JUMP JUMPDEST PUSH1 0x40 MLOAD SWAP1 DUP2 MSTORE PUSH1 0x20 ADD PUSH2 0x15B JUMP JUMPDEST PUSH1 0x0 SLOAD PUSH20 0xFFFFFFFFFFFFFFFFFFFFFFFFFFFFFFFFFFFFFFFF AND PUSH2 0x13A JUMP JUMPDEST PUSH2 0xD6 PUSH2 0x1CC CALLDATASIZE PUSH1 0x4 PUSH2 0xE51 JUMP JUMPDEST PUSH2 0x9F8 JUMP JUMPDEST PUSH2 0xD6 PUSH2 0x1DF CALLDATASIZE PUSH1 0x4 PUSH2 0xE75 JUMP JUMPDEST PUSH2 0xAB4 JUMP JUMPDEST PUSH2 0x13A PUSH2 0x1F2 CALLDATASIZE PUSH1 0x4 PUSH2 0xDC7 JUMP JUMPDEST PUSH1 0x1 PUSH1 0x20 SWAP1 DUP2 MSTORE PUSH1 0x0 SWAP4 DUP5 MSTORE PUSH1 0x40 DUP1 DUP6 KECCAK256 DUP3 MSTORE SWAP3 DUP5 MSTORE DUP3 DUP5 KECCAK256 SWAP1 MSTORE DUP3 MSTORE SWAP1 KECCAK256 SLOAD PUSH20 0xFFFFFFFFFFFFFFFFFFFFFFFFFFFFFFFFFFFFFFFF AND DUP2 JUMP JUMPDEST PUSH20 0xFFFFFFFFFFFFFFFFFFFFFFFFFFFFFFFFFFFFFFFF DUP4 AND PUSH2 0x24B JUMPI PUSH1 0x0 DUP1 REVERT JUMPDEST PUSH1 0x0 DUP4 PUSH20 0xFFFFFFFFFFFFFFFFFFFFFFFFFFFFFFFFFFFFFFFF AND PUSH4 0xB7D19FC4 PUSH1 0x40 MLOAD DUP2 PUSH4 0xFFFFFFFF AND PUSH1 0xE0 SHL DUP2 MSTORE PUSH1 0x4 ADD PUSH1 0x20 PUSH1 0x40 MLOAD DUP1 DUP4 SUB DUP2 DUP7 GAS STATICCALL ISZERO DUP1 ISZERO PUSH2 0x298 JUMPI RETURNDATASIZE PUSH1 0x0 DUP1 RETURNDATACOPY RETURNDATASIZE PUSH1 0x0 REVERT JUMPDEST POP POP POP POP PUSH1 0x40 MLOAD RETURNDATASIZE PUSH1 0x1F NOT PUSH1 0x1F DUP3 ADD AND DUP3 ADD DUP1 PUSH1 0x40 MSTORE POP DUP2 ADD SWAP1 PUSH2 0x2BC SWAP2 SWAP1 PUSH2 0xEA1 JUMP JUMPDEST SWAP1 POP PUSH1 0x0 PUSH2 0x2CA DUP3 DUP7 PUSH2 0xB5C JUMP JUMPDEST PUSH1 0x40 MLOAD PUSH32 0x23B872DD00000000000000000000000000000000000000000000000000000000 DUP2 MSTORE CALLER PUSH1 0x4 DUP3 ADD MSTORE PUSH20 0xFFFFFFFFFFFFFFFFFFFFFFFFFFFFFFFFFFFFFFFF DUP8 DUP2 AND PUSH1 0x24 DUP4 ADD MSTORE PUSH1 0x44 DUP3 ADD DUP7 SWAP1 MSTORE SWAP2 SWAP3 POP SWAP1 DUP4 AND SWAP1 PUSH4 0x23B872DD SWAP1 PUSH1 0x64 ADD PUSH1 0x20 PUSH1 0x40 MLOAD DUP1 DUP4 SUB DUP2 PUSH1 0x0 DUP8 GAS CALL ISZERO DUP1 ISZERO PUSH2 0x349 JUMPI RETURNDATASIZE PUSH1 0x0 DUP1 RETURNDATACOPY RETURNDATASIZE PUSH1 0x0 REVERT JUMPDEST POP POP POP POP PUSH1 0x40 MLOAD RETURNDATASIZE PUSH1 0x1F NOT PUSH1 0x1F DUP3 ADD AND DUP3 ADD DUP1 PUSH1 0x40 MSTORE POP DUP2 ADD SWAP1 PUSH2 0x36D SWAP2 SWAP1 PUSH2 0xEBE JUMP JUMPDEST PUSH2 0x3A3 JUMPI PUSH1 0x40 MLOAD PUSH32 0x90B8EC1800000000000000000000000000000000000000000000000000000000 DUP2 MSTORE PUSH1 0x4 ADD PUSH1 0x40 MLOAD DUP1 SWAP2 SUB SWAP1 REVERT JUMPDEST DUP1 PUSH2 0x3AE DUP4 DUP8 PUSH2 0xB5C JUMP JUMPDEST PUSH2 0x3B8 SWAP2 SWAP1 PUSH2 0xEE0 JUMP JUMPDEST PUSH1 0x40 MLOAD PUSH32 0xAB103F6900000000000000000000000000000000000000000000000000000000 DUP2 MSTORE PUSH1 0x4 DUP2 ADD DUP7 SWAP1 MSTORE PUSH1 0x24 DUP2 ADD DUP3 SWAP1 MSTORE CALLER PUSH1 0x44 DUP3 ADD MSTORE SWAP1 SWAP4 POP PUSH20 0xFFFFFFFFFFFFFFFFFFFFFFFFFFFFFFFFFFFFFFFF DUP7 AND SWAP2 POP PUSH4 0xAB103F69 SWAP1 PUSH1 0x64 ADD JUMPDEST PUSH1 0x0 PUSH1 0x40 MLOAD DUP1 DUP4 SUB DUP2 PUSH1 0x0 DUP8 DUP1 EXTCODESIZE ISZERO DUP1 ISZERO PUSH2 0x432 JUMPI PUSH1 0x0 DUP1 REVERT JUMPDEST POP GAS CALL ISZERO DUP1 ISZERO PUSH2 0x446 JUMPI RETURNDATASIZE PUSH1 0x0 DUP1 RETURNDATACOPY RETURNDATASIZE PUSH1 0x0 REVERT JUMPDEST POP POP POP POP POP POP POP POP JUMP JUMPDEST PUSH20 0xFFFFFFFFFFFFFFFFFFFFFFFFFFFFFFFFFFFFFFFF DUP4 AND PUSH2 0x470 JUMPI PUSH1 0x0 DUP1 REVERT JUMPDEST PUSH1 0x0 DUP4 PUSH20 0xFFFFFFFFFFFFFFFFFFFFFFFFFFFFFFFFFFFFFFFF AND PUSH4 0xB7D19FC4 PUSH1 0x40 MLOAD DUP2 PUSH4 0xFFFFFFFF AND PUSH1 0xE0 SHL DUP2 MSTORE PUSH1 0x4 ADD PUSH1 0x20 PUSH1 0x40 MLOAD DUP1 DUP4 SUB DUP2 DUP7 GAS STATICCALL ISZERO DUP1 ISZERO PUSH2 0x4BD JUMPI RETURNDATASIZE PUSH1 0x0 DUP1 RETURNDATACOPY RETURNDATASIZE PUSH1 0x0 REVERT JUMPDEST POP POP POP POP PUSH1 0x40 MLOAD RETURNDATASIZE PUSH1 0x1F NOT PUSH1 0x1F DUP3 ADD AND DUP3 ADD DUP1 PUSH1 0x40 MSTORE POP DUP2 ADD SWAP1 PUSH2 0x4E1 SWAP2 SWAP1 PUSH2 0xEA1 JUMP JUMPDEST SWAP1 POP PUSH1 0x0 PUSH2 0x4EF DUP3 DUP7 PUSH2 0xB5C JUMP JUMPDEST PUSH1 0x40 MLOAD PUSH32 0x23B872DD00000000000000000000000000000000000000000000000000000000 DUP2 MSTORE CALLER PUSH1 0x4 DUP3 ADD MSTORE PUSH20 0xFFFFFFFFFFFFFFFFFFFFFFFFFFFFFFFFFFFFFFFF DUP8 DUP2 AND PUSH1 0x24 DUP4 ADD MSTORE PUSH1 0x44 DUP3 ADD DUP8 SWAP1 MSTORE SWAP2 SWAP3 POP SWAP1 DUP4 AND SWAP1 PUSH4 0x23B872DD SWAP1 PUSH1 0x64 ADD PUSH1 0x20 PUSH1 0x40 MLOAD DUP1 DUP4 SUB DUP2 PUSH1 0x0 DUP8 GAS CALL ISZERO DUP1 ISZERO PUSH2 0x56E JUMPI RETURNDATASIZE PUSH1 0x0 DUP1 RETURNDATACOPY RETURNDATASIZE PUSH1 0x0 REVERT JUMPDEST POP POP POP POP PUSH1 0x40 MLOAD RETURNDATASIZE PUSH1 0x1F NOT PUSH1 0x1F DUP3 ADD AND DUP3 ADD DUP1 PUSH1 0x40 MSTORE POP DUP2 ADD SWAP1 PUSH2 0x592 SWAP2 SWAP1 PUSH2 0xEBE JUMP JUMPDEST PUSH2 0x5C8 JUMPI PUSH1 0x40 MLOAD PUSH32 0x90B8EC1800000000000000000000000000000000000000000000000000000000 DUP2 MSTORE PUSH1 0x4 ADD PUSH1 0x40 MLOAD DUP1 SWAP2 SUB SWAP1 REVERT JUMPDEST DUP1 PUSH2 0x5D3 DUP4 DUP8 PUSH2 0xB5C JUMP JUMPDEST PUSH2 0x5DD SWAP2 SWAP1 PUSH2 0xEE0 JUMP JUMPDEST PUSH1 0x40 MLOAD PUSH32 0x9DA6E8A800000000000000000000000000000000000000000000000000000000 DUP2 MSTORE PUSH1 0x4 DUP2 ADD DUP3 SWAP1 MSTORE PUSH1 0x24 DUP2 ADD DUP6 SWAP1 MSTORE CALLER PUSH1 0x44 DUP3 ADD MSTORE SWAP1 SWAP5 POP PUSH20 0xFFFFFFFFFFFFFFFFFFFFFFFFFFFFFFFFFFFFFFFF DUP7 AND SWAP2 POP PUSH4 0x9DA6E8A8 SWAP1 PUSH1 0x64 ADD PUSH2 0x418 JUMP JUMPDEST PUSH1 0x0 PUSH20 0xFFFFFFFFFFFFFFFFFFFFFFFFFFFFFFFFFFFFFFFF DUP5 AND ISZERO DUP1 ISZERO SWAP1 PUSH2 0x67D JUMPI POP PUSH20 0xFFFFFFFFFFFFFFFFFFFFFFFFFFFFFFFFFFFFFFFF DUP4 AND ISZERO ISZERO JUMPDEST PUSH2 0x686 JUMPI PUSH1 0x0 DUP1 REVERT JUMPDEST PUSH1 0x40 DUP1 MLOAD PUSH20 0xFFFFFFFFFFFFFFFFFFFFFFFFFFFFFFFFFFFFFFFF DUP1 DUP8 AND PUSH1 0x20 DUP4 ADD MSTORE DUP6 AND SWAP2 DUP2 ADD SWAP2 SWAP1 SWAP2 MSTORE PUSH1 0x60 DUP2 ADD DUP4 SWAP1 MSTORE PUSH1 0x80 ADD PUSH1 0x40 MLOAD PUSH1 0x20 DUP2 DUP4 SUB SUB DUP2 MSTORE SWAP1 PUSH1 0x40 MSTORE DUP1 MLOAD SWAP1 PUSH1 0x20 ADD KECCAK256 ADDRESS DUP6 DUP6 DUP6 PUSH1 0x40 MLOAD PUSH2 0x6E0 SWAP1 PUSH2 0xD63 JUMP JUMPDEST PUSH20 0xFFFFFFFFFFFFFFFFFFFFFFFFFFFFFFFFFFFFFFFF SWAP5 DUP6 AND DUP2 MSTORE SWAP3 DUP5 AND PUSH1 0x20 DUP5 ADD MSTORE SWAP3 AND PUSH1 0x40 DUP3 ADD MSTORE PUSH1 0x60 DUP2 ADD SWAP2 SWAP1 SWAP2 MSTORE PUSH1 0x80 ADD DUP2 SWAP1 PUSH1 0x40 MLOAD DUP1 SWAP2 SUB SWAP1 PUSH1 0x0 CREATE2 SWAP1 POP DUP1 ISZERO DUP1 ISZERO PUSH2 0x734 JUMPI RETURNDATASIZE PUSH1 0x0 DUP1 RETURNDATACOPY RETURNDATASIZE PUSH1 0x0 REVERT JUMPDEST POP PUSH20 0xFFFFFFFFFFFFFFFFFFFFFFFFFFFFFFFFFFFFFFFF SWAP5 DUP6 AND PUSH1 0x0 SWAP1 DUP2 MSTORE PUSH1 0x1 PUSH1 0x20 SWAP1 DUP2 MSTORE PUSH1 0x40 DUP1 DUP4 KECCAK256 SWAP7 DUP9 AND DUP4 MSTORE SWAP6 DUP2 MSTORE DUP6 DUP3 KECCAK256 SWAP5 DUP3 MSTORE SWAP4 SWAP1 SWAP4 MSTORE SWAP3 SWAP1 SWAP2 KECCAK256 DUP1 SLOAD PUSH32 0xFFFFFFFFFFFFFFFFFFFFFFFF0000000000000000000000000000000000000000 AND SWAP4 DUP4 AND SWAP4 SWAP1 SWAP4 OR SWAP1 SWAP3 SSTORE SWAP2 SWAP1 POP JUMP JUMPDEST PUSH2 0x7AF PUSH2 0xC6D JUMP JUMPDEST PUSH2 0x7B9 PUSH1 0x0 PUSH2 0xCEE JUMP JUMPDEST JUMP JUMPDEST PUSH1 0x0 PUSH20 0xFFFFFFFFFFFFFFFFFFFFFFFFFFFFFFFFFFFFFFFF DUP5 AND PUSH2 0x7DD JUMPI PUSH1 0x0 DUP1 REVERT JUMPDEST PUSH1 0x0 DUP5 PUSH20 0xFFFFFFFFFFFFFFFFFFFFFFFFFFFFFFFFFFFFFFFF AND PUSH4 0x16DC165B PUSH1 0x40 MLOAD DUP2 PUSH4 0xFFFFFFFF AND PUSH1 0xE0 SHL DUP2 MSTORE PUSH1 0x4 ADD PUSH1 0x20 PUSH1 0x40 MLOAD DUP1 DUP4 SUB DUP2 DUP7 GAS STATICCALL ISZERO DUP1 ISZERO PUSH2 0x82A JUMPI RETURNDATASIZE PUSH1 0x0 DUP1 RETURNDATACOPY RETURNDATASIZE PUSH1 0x0 REVERT JUMPDEST POP POP POP POP PUSH1 0x40 MLOAD RETURNDATASIZE PUSH1 0x1F NOT PUSH1 0x1F DUP3 ADD AND DUP3 ADD DUP1 PUSH1 0x40 MSTORE POP DUP2 ADD SWAP1 PUSH2 0x84E SWAP2 SWAP1 PUSH2 0xEA1 JUMP JUMPDEST SWAP1 POP PUSH1 0x0 PUSH2 0x85C DUP3 DUP8 PUSH2 0xB5C JUMP JUMPDEST PUSH1 0x40 MLOAD PUSH32 0x23B872DD00000000000000000000000000000000000000000000000000000000 DUP2 MSTORE CALLER PUSH1 0x4 DUP3 ADD MSTORE PUSH20 0xFFFFFFFFFFFFFFFFFFFFFFFFFFFFFFFFFFFFFFFF DUP9 DUP2 AND PUSH1 0x24 DUP4 ADD MSTORE PUSH1 0x44 DUP3 ADD DUP9 SWAP1 MSTORE SWAP2 SWAP3 POP SWAP1 DUP4 AND SWAP1 PUSH4 0x23B872DD SWAP1 PUSH1 0x64 ADD PUSH1 0x20 PUSH1 0x40 MLOAD DUP1 DUP4 SUB DUP2 PUSH1 0x0 DUP8 GAS CALL ISZERO DUP1 ISZERO PUSH2 0x8DB JUMPI RETURNDATASIZE PUSH1 0x0 DUP1 RETURNDATACOPY RETURNDATASIZE PUSH1 0x0 REVERT JUMPDEST POP POP POP POP PUSH1 0x40 MLOAD RETURNDATASIZE PUSH1 0x1F NOT PUSH1 0x1F DUP3 ADD AND DUP3 ADD DUP1 PUSH1 0x40 MSTORE POP DUP2 ADD SWAP1 PUSH2 0x8FF SWAP2 SWAP1 PUSH2 0xEBE JUMP JUMPDEST PUSH2 0x935 JUMPI PUSH1 0x40 MLOAD PUSH32 0x90B8EC1800000000000000000000000000000000000000000000000000000000 DUP2 MSTORE PUSH1 0x4 ADD PUSH1 0x40 MLOAD DUP1 SWAP2 SUB SWAP1 REVERT JUMPDEST DUP1 PUSH2 0x940 DUP4 DUP9 PUSH2 0xB5C JUMP JUMPDEST PUSH2 0x94A SWAP2 SWAP1 PUSH2 0xEE0 JUMP JUMPDEST PUSH1 0x40 MLOAD PUSH32 0xDE58799300000000000000000000000000000000000000000000000000000000 DUP2 MSTORE PUSH1 0x4 DUP2 ADD DUP3 SWAP1 MSTORE PUSH1 0x2 DUP7 SWAP1 SIGNEXTEND PUSH1 0x24 DUP3 ADD MSTORE CALLER PUSH1 0x44 DUP3 ADD MSTORE SWAP1 SWAP6 POP PUSH20 0xFFFFFFFFFFFFFFFFFFFFFFFFFFFFFFFFFFFFFFFF DUP8 AND SWAP2 POP PUSH4 0xDE587993 SWAP1 PUSH1 0x64 ADD PUSH1 0x20 PUSH1 0x40 MLOAD DUP1 DUP4 SUB DUP2 PUSH1 0x0 DUP8 GAS CALL ISZERO DUP1 ISZERO PUSH2 0x9CB JUMPI RETURNDATASIZE PUSH1 0x0 DUP1 RETURNDATACOPY RETURNDATASIZE PUSH1 0x0 REVERT JUMPDEST POP POP POP POP PUSH1 0x40 MLOAD RETURNDATASIZE PUSH1 0x1F NOT PUSH1 0x1F DUP3 ADD AND DUP3 ADD DUP1 PUSH1 0x40 MSTORE POP DUP2 ADD SWAP1 PUSH2 0x9EF SWAP2 SWAP1 PUSH2 0xF1A JUMP JUMPDEST SWAP6 SWAP5 POP POP POP POP POP JUMP JUMPDEST PUSH2 0xA00 PUSH2 0xC6D JUMP JUMPDEST PUSH20 0xFFFFFFFFFFFFFFFFFFFFFFFFFFFFFFFFFFFFFFFF DUP2 AND PUSH2 0xAA8 JUMPI PUSH1 0x40 MLOAD PUSH32 0x8C379A000000000000000000000000000000000000000000000000000000000 DUP2 MSTORE PUSH1 0x20 PUSH1 0x4 DUP3 ADD MSTORE PUSH1 0x26 PUSH1 0x24 DUP3 ADD MSTORE PUSH32 0x4F776E61626C653A206E6577206F776E657220697320746865207A65726F2061 PUSH1 0x44 DUP3 ADD MSTORE PUSH32 0x6464726573730000000000000000000000000000000000000000000000000000 PUSH1 0x64 DUP3 ADD MSTORE PUSH1 0x84 ADD JUMPDEST PUSH1 0x40 MLOAD DUP1 SWAP2 SUB SWAP1 REVERT JUMPDEST PUSH2 0xAB1 DUP2 PUSH2 0xCEE JUMP JUMPDEST POP JUMP JUMPDEST PUSH20 0xFFFFFFFFFFFFFFFFFFFFFFFFFFFFFFFFFFFFFFFF DUP3 AND PUSH2 0xAD4 JUMPI PUSH1 0x0 DUP1 REVERT JUMPDEST PUSH1 0x40 MLOAD PUSH31 0xF714CE00000000000000000000000000000000000000000000000000000000 DUP2 MSTORE PUSH1 0x4 DUP2 ADD DUP3 SWAP1 MSTORE CALLER PUSH1 0x24 DUP3 ADD MSTORE PUSH20 0xFFFFFFFFFFFFFFFFFFFFFFFFFFFFFFFFFFFFFFFF DUP4 AND SWAP1 PUSH3 0xF714CE SWAP1 PUSH1 0x44 ADD PUSH1 0x0 PUSH1 0x40 MLOAD DUP1 DUP4 SUB DUP2 PUSH1 0x0 DUP8 DUP1 EXTCODESIZE ISZERO DUP1 ISZERO PUSH2 0xB40 JUMPI PUSH1 0x0 DUP1 REVERT JUMPDEST POP GAS CALL ISZERO DUP1 ISZERO PUSH2 0xB54 JUMPI RETURNDATASIZE PUSH1 0x0 DUP1 RETURNDATACOPY RETURNDATASIZE PUSH1 0x0 REVERT JUMPDEST POP POP POP POP POP POP JUMP JUMPDEST PUSH1 0x40 DUP1 MLOAD PUSH20 0xFFFFFFFFFFFFFFFFFFFFFFFFFFFFFFFFFFFFFFFF DUP4 DUP2 AND PUSH1 0x24 DUP1 DUP5 ADD SWAP2 SWAP1 SWAP2 MSTORE DUP4 MLOAD DUP1 DUP5 SUB SWAP1 SWAP2 ADD DUP2 MSTORE PUSH1 0x44 SWAP1 SWAP3 ADD DUP4 MSTORE PUSH1 0x20 DUP3 ADD DUP1 MLOAD PUSH28 0xFFFFFFFFFFFFFFFFFFFFFFFFFFFFFFFFFFFFFFFFFFFFFFFFFFFFFFFF AND PUSH32 0x70A0823100000000000000000000000000000000000000000000000000000000 OR SWAP1 MSTORE SWAP2 MLOAD PUSH1 0x0 SWAP3 DUP4 SWAP3 DUP4 SWAP3 SWAP2 DUP8 AND SWAP2 PUSH2 0xBF1 SWAP2 SWAP1 PUSH2 0xF33 JUMP JUMPDEST PUSH1 0x0 PUSH1 0x40 MLOAD DUP1 DUP4 SUB DUP2 DUP6 GAS STATICCALL SWAP2 POP POP RETURNDATASIZE DUP1 PUSH1 0x0 DUP2 EQ PUSH2 0xC2C JUMPI PUSH1 0x40 MLOAD SWAP2 POP PUSH1 0x1F NOT PUSH1 0x3F RETURNDATASIZE ADD AND DUP3 ADD PUSH1 0x40 MSTORE RETURNDATASIZE DUP3 MSTORE RETURNDATASIZE PUSH1 0x0 PUSH1 0x20 DUP5 ADD RETURNDATACOPY PUSH2 0xC31 JUMP JUMPDEST PUSH1 0x60 SWAP2 POP JUMPDEST POP SWAP2 POP SWAP2 POP DUP2 DUP1 ISZERO PUSH2 0xC45 JUMPI POP PUSH1 0x20 DUP2 MLOAD LT ISZERO JUMPDEST PUSH2 0xC4E JUMPI PUSH1 0x0 DUP1 REVERT JUMPDEST DUP1 DUP1 PUSH1 0x20 ADD SWAP1 MLOAD DUP2 ADD SWAP1 PUSH2 0xC62 SWAP2 SWAP1 PUSH2 0xF1A JUMP JUMPDEST SWAP3 POP POP POP JUMPDEST SWAP3 SWAP2 POP POP JUMP JUMPDEST PUSH1 0x0 SLOAD PUSH20 0xFFFFFFFFFFFFFFFFFFFFFFFFFFFFFFFFFFFFFFFF AND CALLER EQ PUSH2 0x7B9 JUMPI PUSH1 0x40 MLOAD PUSH32 0x8C379A000000000000000000000000000000000000000000000000000000000 DUP2 MSTORE PUSH1 0x20 PUSH1 0x4 DUP3 ADD DUP2 SWAP1 MSTORE PUSH1 0x24 DUP3 ADD MSTORE PUSH32 0x4F776E61626C653A2063616C6C6572206973206E6F7420746865206F776E6572 PUSH1 0x44 DUP3 ADD MSTORE PUSH1 0x64 ADD PUSH2 0xA9F JUMP JUMPDEST PUSH1 0x0 DUP1 SLOAD PUSH20 0xFFFFFFFFFFFFFFFFFFFFFFFFFFFFFFFFFFFFFFFF DUP4 DUP2 AND PUSH32 0xFFFFFFFFFFFFFFFFFFFFFFFF0000000000000000000000000000000000000000 DUP4 AND DUP2 OR DUP5 SSTORE PUSH1 0x40 MLOAD SWAP2 SWAP1 SWAP3 AND SWAP3 DUP4 SWAP2 PUSH32 0x8BE0079C531659141344CD1FD0A4F28419497F9722A3DAAFE3B4186F6B6457E0 SWAP2 SWAP1 LOG3 POP POP JUMP JUMPDEST PUSH2 0x3A73 DUP1 PUSH2 0xF63 DUP4 CODECOPY ADD SWAP1 JUMP JUMPDEST PUSH20 0xFFFFFFFFFFFFFFFFFFFFFFFFFFFFFFFFFFFFFFFF DUP2 AND DUP2 EQ PUSH2 0xAB1 JUMPI PUSH1 0x0 DUP1 REVERT JUMPDEST PUSH1 0x0 DUP1 PUSH1 0x0 PUSH1 0x60 DUP5 DUP7 SUB SLT ISZERO PUSH2 0xDA7 JUMPI PUSH1 0x0 DUP1 REVERT JUMPDEST DUP4 CALLDATALOAD PUSH2 0xDB2 DUP2 PUSH2 0xD70 JUMP JUMPDEST SWAP6 PUSH1 0x20 DUP6 ADD CALLDATALOAD SWAP6 POP PUSH1 0x40 SWAP1 SWAP5 ADD CALLDATALOAD SWAP4 SWAP3 POP POP POP JUMP JUMPDEST PUSH1 0x0 DUP1 PUSH1 0x0 PUSH1 0x60 DUP5 DUP7 SUB SLT ISZERO PUSH2 0xDDC JUMPI PUSH1 0x0 DUP1 REVERT JUMPDEST DUP4 CALLDATALOAD PUSH2 0xDE7 DUP2 PUSH2 0xD70 JUMP JUMPDEST SWAP3 POP PUSH1 0x20 DUP5 ADD CALLDATALOAD PUSH2 0xDF7 DUP2 PUSH2 0xD70 JUMP JUMPDEST SWAP3 SWAP6 SWAP3 SWAP5 POP POP POP PUSH1 0x40 SWAP2 SWAP1 SWAP2 ADD CALLDATALOAD SWAP1 JUMP JUMPDEST PUSH1 0x0 DUP1 PUSH1 0x0 PUSH1 0x60 DUP5 DUP7 SUB SLT ISZERO PUSH2 0xE1D JUMPI PUSH1 0x0 DUP1 REVERT JUMPDEST DUP4 CALLDATALOAD PUSH2 0xE28 DUP2 PUSH2 0xD70 JUMP JUMPDEST SWAP3 POP PUSH1 0x20 DUP5 ADD CALLDATALOAD SWAP2 POP PUSH1 0x40 DUP5 ADD CALLDATALOAD PUSH1 0x2 DUP2 SWAP1 SIGNEXTEND DUP2 EQ PUSH2 0xE46 JUMPI PUSH1 0x0 DUP1 REVERT JUMPDEST DUP1 SWAP2 POP POP SWAP3 POP SWAP3 POP SWAP3 JUMP JUMPDEST PUSH1 0x0 PUSH1 0x20 DUP3 DUP5 SUB SLT ISZERO PUSH2 0xE63 JUMPI PUSH1 0x0 DUP1 REVERT JUMPDEST DUP2 CALLDATALOAD PUSH2 0xE6E DUP2 PUSH2 0xD70 JUMP JUMPDEST SWAP4 SWAP3 POP POP POP JUMP JUMPDEST PUSH1 0x0 DUP1 PUSH1 0x40 DUP4 DUP6 SUB SLT ISZERO PUSH2 0xE88 JUMPI PUSH1 0x0 DUP1 REVERT JUMPDEST DUP3 CALLDATALOAD PUSH2 0xE93 DUP2 PUSH2 0xD70 JUMP JUMPDEST SWAP5 PUSH1 0x20 SWAP4 SWAP1 SWAP4 ADD CALLDATALOAD SWAP4 POP POP POP JUMP JUMPDEST PUSH1 0x0 PUSH1 0x20 DUP3 DUP5 SUB SLT ISZERO PUSH2 0xEB3 JUMPI PUSH1 0x0 DUP1 REVERT JUMPDEST DUP2 MLOAD PUSH2 0xE6E DUP2 PUSH2 0xD70 JUMP JUMPDEST PUSH1 0x0 PUSH1 0x20 DUP3 DUP5 SUB SLT ISZERO PUSH2 0xED0 JUMPI PUSH1 0x0 DUP1 REVERT JUMPDEST DUP2 MLOAD DUP1 ISZERO ISZERO DUP2 EQ PUSH2 0xE6E JUMPI PUSH1 0x0 DUP1 REVERT JUMPDEST DUP2 DUP2 SUB DUP2 DUP2 GT ISZERO PUSH2 0xC67 JUMPI PUSH32 0x4E487B7100000000000000000000000000000000000000000000000000000000 PUSH1 0x0 MSTORE PUSH1 0x11 PUSH1 0x4 MSTORE PUSH1 0x24 PUSH1 0x0 REVERT JUMPDEST PUSH1 0x0 PUSH1 0x20 DUP3 DUP5 SUB SLT ISZERO PUSH2 0xF2C JUMPI PUSH1 0x0 DUP1 REVERT JUMPDEST POP MLOAD SWAP2 SWAP1 POP JUMP JUMPDEST PUSH1 0x0 DUP3 MLOAD PUSH1 0x0 JUMPDEST DUP2 DUP2 LT ISZERO PUSH2 0xF54 JUMPI PUSH1 0x20 DUP2 DUP7 ADD DUP2 ADD MLOAD DUP6 DUP4 ADD MSTORE ADD PUSH2 0xF3A JUMP JUMPDEST POP PUSH1 0x0 SWAP3 ADD SWAP2 DUP3 MSTORE POP SWAP2 SWAP1 POP JUMP INVALID PUSH2 0x120 PUSH1 0x40 MSTORE CALLVALUE DUP1 ISZERO PUSH3 0x12 JUMPI PUSH1 0x0 DUP1 REVERT JUMPDEST POP PUSH1 0x40 MLOAD PUSH3 0x3A73 CODESIZE SUB DUP1 PUSH3 0x3A73 DUP4 CODECOPY DUP2 ADD PUSH1 0x40 DUP2 SWAP1 MSTORE PUSH3 0x35 SWAP2 PUSH3 0x7F JUMP JUMPDEST PUSH1 0x1 PUSH1 0x0 SSTORE ADDRESS PUSH1 0x80 MSTORE PUSH1 0x1 PUSH1 0x1 PUSH1 0xA0 SHL SUB SWAP4 DUP5 AND PUSH1 0xA0 MSTORE SWAP2 DUP4 AND PUSH1 0xC0 MSTORE SWAP1 SWAP2 AND PUSH1 0xE0 MSTORE PUSH2 0x100 MSTORE PUSH3 0xD1 JUMP JUMPDEST DUP1 MLOAD PUSH1 0x1 PUSH1 0x1 PUSH1 0xA0 SHL SUB DUP2 AND DUP2 EQ PUSH3 0x7A JUMPI PUSH1 0x0 DUP1 REVERT JUMPDEST SWAP2 SWAP1 POP JUMP JUMPDEST PUSH1 0x0 DUP1 PUSH1 0x0 DUP1 PUSH1 0x80 DUP6 DUP8 SUB SLT ISZERO PUSH3 0x96 JUMPI PUSH1 0x0 DUP1 REVERT JUMPDEST PUSH3 0xA1 DUP6 PUSH3 0x62 JUMP JUMPDEST SWAP4 POP PUSH3 0xB1 PUSH1 0x20 DUP7 ADD PUSH3 0x62 JUMP JUMPDEST SWAP3 POP PUSH3 0xC1 PUSH1 0x40 DUP7 ADD PUSH3 0x62 JUMP JUMPDEST PUSH1 0x60 SWAP6 SWAP1 SWAP6 ADD MLOAD SWAP4 SWAP7 SWAP3 SWAP6 POP POP POP JUMP JUMPDEST PUSH1 0x80 MLOAD PUSH1 0xA0 MLOAD PUSH1 0xC0 MLOAD PUSH1 0xE0 MLOAD PUSH2 0x100 MLOAD PUSH2 0x38C3 PUSH3 0x1B0 PUSH1 0x0 CODECOPY PUSH1 0x0 DUP2 DUP2 PUSH2 0x1EE ADD MSTORE DUP2 DUP2 PUSH2 0x7E8 ADD MSTORE DUP2 DUP2 PUSH2 0x8ED ADD MSTORE DUP2 DUP2 PUSH2 0xC5B ADD MSTORE DUP2 DUP2 PUSH2 0xE24 ADD MSTORE DUP2 DUP2 PUSH2 0xF6E ADD MSTORE DUP2 DUP2 PUSH2 0x12CB ADD MSTORE DUP2 DUP2 PUSH2 0x17ED ADD MSTORE PUSH2 0x18C6 ADD MSTORE PUSH1 0x0 DUP2 DUP2 PUSH2 0x3D8 ADD MSTORE DUP2 DUP2 PUSH2 0xA9F ADD MSTORE PUSH2 0x14E2 ADD MSTORE PUSH1 0x0 DUP2 DUP2 PUSH2 0x215 ADD MSTORE DUP2 DUP2 PUSH2 0x989 ADD MSTORE DUP2 DUP2 PUSH2 0x10B5 ADD MSTORE DUP2 DUP2 PUSH2 0x1420 ADD MSTORE DUP2 DUP2 PUSH2 0x2334 ADD MSTORE DUP2 DUP2 PUSH2 0x24D4 ADD MSTORE DUP2 DUP2 PUSH2 0x25FA ADD MSTORE PUSH2 0x275C ADD MSTORE PUSH1 0x0 DUP2 DUP2 PUSH2 0x612 ADD MSTORE DUP2 DUP2 PUSH2 0x6CA ADD MSTORE DUP2 DUP2 PUSH2 0xCDF ADD MSTORE DUP2 DUP2 PUSH2 0xF2F ADD MSTORE DUP2 DUP2 PUSH2 0x1280 ADD MSTORE PUSH2 0x19A0 ADD MSTORE PUSH1 0x0 PUSH2 0x1BD7 ADD MSTORE PUSH2 0x38C3 PUSH1 0x0 RETURN INVALID PUSH1 0x80 PUSH1 0x40 MSTORE CALLVALUE DUP1 ISZERO PUSH2 0x10 JUMPI PUSH1 0x0 DUP1 REVERT JUMPDEST POP PUSH1 0x4 CALLDATASIZE LT PUSH2 0x197 JUMPI PUSH1 0x0 CALLDATALOAD PUSH1 0xE0 SHR DUP1 PUSH4 0xA0BF0E22 GT PUSH2 0xE3 JUMPI DUP1 PUSH4 0xD311636B GT PUSH2 0x8C JUMPI DUP1 PUSH4 0xE785B7EC GT PUSH2 0x66 JUMPI DUP1 PUSH4 0xE785B7EC EQ PUSH2 0x568 JUMPI DUP1 PUSH4 0xF30DBA93 EQ PUSH2 0x571 JUMPI DUP1 PUSH4 0xF887EA40 EQ PUSH2 0x60D JUMPI PUSH1 0x0 DUP1 REVERT JUMPDEST DUP1 PUSH4 0xD311636B EQ PUSH2 0x3FA JUMPI DUP1 PUSH4 0xD449887C EQ PUSH2 0x52D JUMPI DUP1 PUSH4 0xDE587993 EQ PUSH2 0x555 JUMPI PUSH1 0x0 DUP1 REVERT JUMPDEST DUP1 PUSH4 0xB0E21E8A GT PUSH2 0xBD JUMPI DUP1 PUSH4 0xB0E21E8A EQ PUSH2 0x361 JUMPI DUP1 PUSH4 0xB648A2B4 EQ PUSH2 0x36A JUMPI DUP1 PUSH4 0xB7D19FC4 EQ PUSH2 0x3D3 JUMPI PUSH1 0x0 DUP1 REVERT JUMPDEST DUP1 PUSH4 0xA0BF0E22 EQ PUSH2 0x30E JUMPI DUP1 PUSH4 0xA60B4623 EQ PUSH2 0x32E JUMPI DUP1 PUSH4 0xAB103F69 EQ PUSH2 0x34E JUMPI PUSH1 0x0 DUP1 REVERT JUMPDEST DUP1 PUSH4 0x22163AC0 GT PUSH2 0x145 JUMPI DUP1 PUSH4 0x5339C296 GT PUSH2 0x11F JUMPI DUP1 PUSH4 0x5339C296 EQ PUSH2 0x2C8 JUMPI DUP1 PUSH4 0x58ABFA59 EQ PUSH2 0x2E8 JUMPI DUP1 PUSH4 0x9DA6E8A8 EQ PUSH2 0x2FB JUMPI PUSH1 0x0 DUP1 REVERT JUMPDEST DUP1 PUSH4 0x22163AC0 EQ PUSH2 0x25C JUMPI DUP1 PUSH4 0x2886AE29 EQ PUSH2 0x26F JUMPI DUP1 PUSH4 0x3C1EC29C EQ PUSH2 0x29C JUMPI PUSH1 0x0 DUP1 REVERT JUMPDEST DUP1 PUSH4 0xEBE7474 GT PUSH2 0x176 JUMPI DUP1 PUSH4 0xEBE7474 EQ PUSH2 0x1E0 JUMPI DUP1 PUSH4 0x13643B4E EQ PUSH2 0x1E9 JUMPI DUP1 PUSH4 0x16DC165B EQ PUSH2 0x210 JUMPI PUSH1 0x0 DUP1 REVERT JUMPDEST DUP1 PUSH3 0xF714CE EQ PUSH2 0x19C JUMPI DUP1 PUSH4 0xB29D055 EQ PUSH2 0x1B1 JUMPI DUP1 PUSH4 0xD0164BE EQ PUSH2 0x1CD JUMPI JUMPDEST PUSH1 0x0 DUP1 REVERT JUMPDEST PUSH2 0x1AF PUSH2 0x1AA CALLDATASIZE PUSH1 0x4 PUSH2 0x3436 JUMP JUMPDEST PUSH2 0x634 JUMP JUMPDEST STOP JUMPDEST PUSH2 0x1BA PUSH1 0x2 SLOAD DUP2 JUMP JUMPDEST PUSH1 0x40 MLOAD SWAP1 DUP2 MSTORE PUSH1 0x20 ADD JUMPDEST PUSH1 0x40 MLOAD DUP1 SWAP2 SUB SWAP1 RETURN JUMPDEST PUSH2 0x1BA PUSH2 0x1DB CALLDATASIZE PUSH1 0x4 PUSH2 0x3466 JUMP JUMPDEST PUSH2 0xC45 JUMP JUMPDEST PUSH2 0x1BA PUSH1 0x5 SLOAD DUP2 JUMP JUMPDEST PUSH2 0x1BA PUSH32 0x0 DUP2 JUMP JUMPDEST PUSH2 0x237 PUSH32 0x0 DUP2 JUMP JUMPDEST PUSH1 0x40 MLOAD PUSH20 0xFFFFFFFFFFFFFFFFFFFFFFFFFFFFFFFFFFFFFFFF SWAP1 SWAP2 AND DUP2 MSTORE PUSH1 0x20 ADD PUSH2 0x1C4 JUMP JUMPDEST PUSH2 0x1AF PUSH2 0x26A CALLDATASIZE PUSH1 0x4 PUSH2 0x347F JUMP JUMPDEST PUSH2 0xCDD JUMP JUMPDEST PUSH2 0x282 PUSH2 0x27D CALLDATASIZE PUSH1 0x4 PUSH2 0x34CA JUMP JUMPDEST PUSH2 0xDF2 JUMP JUMPDEST PUSH1 0x40 DUP1 MLOAD PUSH1 0x2 SWAP4 SWAP1 SWAP4 SIGNEXTEND DUP4 MSTORE SWAP1 ISZERO ISZERO PUSH1 0x20 DUP4 ADD MSTORE ADD PUSH2 0x1C4 JUMP JUMPDEST PUSH2 0x1BA PUSH2 0x2AA CALLDATASIZE PUSH1 0x4 PUSH2 0x34CA JUMP JUMPDEST PUSH1 0x2 SIGNEXTEND PUSH1 0x8 SWAP1 DUP2 SAR PUSH1 0x1 SIGNEXTEND PUSH1 0x0 SWAP1 DUP2 MSTORE PUSH1 0x20 SWAP2 SWAP1 SWAP2 MSTORE PUSH1 0x40 SWAP1 KECCAK256 SLOAD SWAP1 JUMP JUMPDEST PUSH2 0x1BA PUSH2 0x2D6 CALLDATASIZE PUSH1 0x4 PUSH2 0x34EC JUMP JUMPDEST PUSH1 0x8 PUSH1 0x20 MSTORE PUSH1 0x0 SWAP1 DUP2 MSTORE PUSH1 0x40 SWAP1 KECCAK256 SLOAD DUP2 JUMP JUMPDEST PUSH2 0x1BA PUSH2 0x2F6 CALLDATASIZE PUSH1 0x4 PUSH2 0x3466 JUMP JUMPDEST PUSH2 0xE0E JUMP JUMPDEST PUSH2 0x1AF PUSH2 0x309 CALLDATASIZE PUSH1 0x4 PUSH2 0x347F JUMP JUMPDEST PUSH2 0xE9E JUMP JUMPDEST PUSH1 0x6 SLOAD PUSH2 0x31B SWAP1 PUSH1 0x2 SIGNEXTEND DUP2 JUMP JUMPDEST PUSH1 0x40 MLOAD PUSH1 0x2 SWAP2 SWAP1 SWAP2 SIGNEXTEND DUP2 MSTORE PUSH1 0x20 ADD PUSH2 0x1C4 JUMP JUMPDEST PUSH1 0x4 SLOAD PUSH2 0x237 SWAP1 PUSH20 0xFFFFFFFFFFFFFFFFFFFFFFFFFFFFFFFFFFFFFFFF AND DUP2 JUMP JUMPDEST PUSH2 0x1AF PUSH2 0x35C CALLDATASIZE PUSH1 0x4 PUSH2 0x347F JUMP JUMPDEST PUSH2 0x11EF JUMP JUMPDEST PUSH2 0x1BA PUSH1 0x1 SLOAD DUP2 JUMP JUMPDEST PUSH2 0x37D PUSH2 0x378 CALLDATASIZE PUSH1 0x4 PUSH2 0x34CA JUMP JUMPDEST PUSH2 0x165F JUMP JUMPDEST PUSH1 0x40 MLOAD PUSH2 0x1C4 SWAP2 SWAP1 PUSH1 0x0 PUSH1 0xA0 DUP3 ADD SWAP1 POP DUP3 MLOAD DUP3 MSTORE PUSH1 0x20 DUP4 ADD MLOAD PUSH1 0x20 DUP4 ADD MSTORE PUSH1 0x40 DUP4 ADD MLOAD PUSH1 0x40 DUP4 ADD MSTORE PUSH16 0xFFFFFFFFFFFFFFFFFFFFFFFFFFFFFFFF PUSH1 0x60 DUP5 ADD MLOAD AND PUSH1 0x60 DUP4 ADD MSTORE PUSH1 0x80 DUP4 ADD MLOAD ISZERO ISZERO PUSH1 0x80 DUP4 ADD MSTORE SWAP3 SWAP2 POP POP JUMP JUMPDEST PUSH2 0x237 PUSH32 0x0 DUP2 JUMP JUMPDEST PUSH2 0x4C0 PUSH2 0x408 CALLDATASIZE PUSH1 0x4 PUSH2 0x3466 JUMP JUMPDEST PUSH1 0x40 DUP1 MLOAD PUSH1 0xA0 DUP2 ADD DUP3 MSTORE PUSH1 0x0 DUP1 DUP3 MSTORE PUSH1 0x20 DUP3 ADD DUP2 SWAP1 MSTORE SWAP2 DUP2 ADD DUP3 SWAP1 MSTORE PUSH1 0x60 DUP2 ADD DUP3 SWAP1 MSTORE PUSH1 0x80 DUP2 ADD SWAP2 SWAP1 SWAP2 MSTORE POP PUSH1 0x0 SWAP1 DUP2 MSTORE PUSH1 0x9 PUSH1 0x20 SWAP1 DUP2 MSTORE PUSH1 0x40 SWAP2 DUP3 SWAP1 KECCAK256 DUP3 MLOAD PUSH1 0xA0 DUP2 ADD DUP5 MSTORE DUP2 SLOAD PUSH20 0xFFFFFFFFFFFFFFFFFFFFFFFFFFFFFFFFFFFFFFFF DUP2 AND DUP3 MSTORE PUSH21 0x10000000000000000000000000000000000000000 SWAP1 DIV PUSH1 0x2 SWAP1 DUP2 SIGNEXTEND SWAP4 DUP3 ADD SWAP4 SWAP1 SWAP4 MSTORE PUSH1 0x1 DUP3 ADD SLOAD PUSH16 0xFFFFFFFFFFFFFFFFFFFFFFFFFFFFFFFF AND SWAP4 DUP2 ADD SWAP4 SWAP1 SWAP4 MSTORE SWAP1 DUP2 ADD SLOAD PUSH1 0x60 DUP4 ADD MSTORE PUSH1 0x3 ADD SLOAD PUSH1 0x80 DUP3 ADD MSTORE SWAP1 JUMP JUMPDEST PUSH1 0x40 MLOAD PUSH2 0x1C4 SWAP2 SWAP1 PUSH1 0x0 PUSH1 0xA0 DUP3 ADD SWAP1 POP PUSH20 0xFFFFFFFFFFFFFFFFFFFFFFFFFFFFFFFFFFFFFFFF DUP4 MLOAD AND DUP3 MSTORE PUSH1 0x20 DUP4 ADD MLOAD PUSH1 0x2 SIGNEXTEND PUSH1 0x20 DUP4 ADD MSTORE PUSH16 0xFFFFFFFFFFFFFFFFFFFFFFFFFFFFFFFF PUSH1 0x40 DUP5 ADD MLOAD AND PUSH1 0x40 DUP4 ADD MSTORE PUSH1 0x60 DUP4 ADD MLOAD PUSH1 0x60 DUP4 ADD MSTORE PUSH1 0x80 DUP4 ADD MLOAD PUSH1 0x80 DUP4 ADD MSTORE SWAP3 SWAP2 POP POP JUMP JUMPDEST PUSH2 0x540 PUSH2 0x53B CALLDATASIZE PUSH1 0x4 PUSH2 0x3466 JUMP JUMPDEST PUSH2 0x171F JUMP JUMPDEST PUSH1 0x40 DUP1 MLOAD SWAP3 DUP4 MSTORE PUSH1 0x20 DUP4 ADD SWAP2 SWAP1 SWAP2 MSTORE ADD PUSH2 0x1C4 JUMP JUMPDEST PUSH2 0x1BA PUSH2 0x563 CALLDATASIZE PUSH1 0x4 PUSH2 0x350F JUMP JUMPDEST PUSH2 0x190D JUMP JUMPDEST PUSH2 0x1BA PUSH1 0x3 SLOAD DUP2 JUMP JUMPDEST PUSH2 0x5D1 PUSH2 0x57F CALLDATASIZE PUSH1 0x4 PUSH2 0x34CA JUMP JUMPDEST PUSH1 0x7 PUSH1 0x20 MSTORE PUSH1 0x0 SWAP1 DUP2 MSTORE PUSH1 0x40 SWAP1 KECCAK256 DUP1 SLOAD PUSH1 0x1 DUP3 ADD SLOAD PUSH1 0x2 DUP4 ADD SLOAD PUSH1 0x3 SWAP1 SWAP4 ADD SLOAD SWAP2 SWAP3 SWAP1 SWAP2 PUSH16 0xFFFFFFFFFFFFFFFFFFFFFFFFFFFFFFFF DUP2 AND SWAP1 PUSH17 0x100000000000000000000000000000000 SWAP1 DIV PUSH1 0xFF AND DUP6 JUMP JUMPDEST PUSH1 0x40 DUP1 MLOAD SWAP6 DUP7 MSTORE PUSH1 0x20 DUP7 ADD SWAP5 SWAP1 SWAP5 MSTORE SWAP3 DUP5 ADD SWAP2 SWAP1 SWAP2 MSTORE PUSH16 0xFFFFFFFFFFFFFFFFFFFFFFFFFFFFFFFF AND PUSH1 0x60 DUP4 ADD MSTORE ISZERO ISZERO PUSH1 0x80 DUP3 ADD MSTORE PUSH1 0xA0 ADD PUSH2 0x1C4 JUMP JUMPDEST PUSH2 0x237 PUSH32 0x0 DUP2 JUMP JUMPDEST PUSH1 0x2 PUSH1 0x0 SLOAD SUB PUSH2 0x6A5 JUMPI PUSH1 0x40 MLOAD PUSH32 0x8C379A000000000000000000000000000000000000000000000000000000000 DUP2 MSTORE PUSH1 0x20 PUSH1 0x4 DUP3 ADD MSTORE PUSH1 0x1F PUSH1 0x24 DUP3 ADD MSTORE PUSH32 0x5265656E7472616E637947756172643A207265656E7472616E742063616C6C00 PUSH1 0x44 DUP3 ADD MSTORE PUSH1 0x64 ADD JUMPDEST PUSH1 0x40 MLOAD DUP1 SWAP2 SUB SWAP1 REVERT JUMPDEST PUSH1 0x2 PUSH1 0x0 SSTORE PUSH2 0x6B2 PUSH2 0x1BBF JUMP JUMPDEST CALLER PUSH20 0xFFFFFFFFFFFFFFFFFFFFFFFFFFFFFFFFFFFFFFFF PUSH32 0x0 AND EQ PUSH2 0x6F4 JUMPI PUSH1 0x0 DUP1 REVERT JUMPDEST PUSH1 0x0 DUP3 DUP2 MSTORE PUSH1 0x9 PUSH1 0x20 SWAP1 DUP2 MSTORE PUSH1 0x40 SWAP2 DUP3 SWAP1 KECCAK256 DUP3 MLOAD PUSH1 0xA0 DUP2 ADD DUP5 MSTORE DUP2 SLOAD PUSH20 0xFFFFFFFFFFFFFFFFFFFFFFFFFFFFFFFFFFFFFFFF DUP1 DUP3 AND DUP1 DUP5 MSTORE PUSH21 0x10000000000000000000000000000000000000000 SWAP1 SWAP3 DIV PUSH1 0x2 SWAP1 DUP2 SIGNEXTEND SWAP6 DUP5 ADD SWAP6 SWAP1 SWAP6 MSTORE PUSH1 0x1 DUP5 ADD SLOAD PUSH16 0xFFFFFFFFFFFFFFFFFFFFFFFFFFFFFFFF AND SWAP6 DUP4 ADD SWAP6 SWAP1 SWAP6 MSTORE SWAP3 DUP3 ADD SLOAD PUSH1 0x60 DUP3 ADD MSTORE PUSH1 0x3 SWAP1 SWAP2 ADD SLOAD PUSH1 0x80 DUP3 ADD MSTORE SWAP2 DUP4 AND EQ PUSH2 0x78F JUMPI PUSH1 0x0 DUP1 REVERT JUMPDEST PUSH1 0x20 DUP2 DUP2 ADD MLOAD PUSH1 0x2 DUP2 SWAP1 SIGNEXTEND PUSH1 0x0 SWAP1 DUP2 MSTORE PUSH1 0x7 SWAP1 SWAP3 MSTORE PUSH1 0x40 DUP3 KECCAK256 PUSH1 0x3 DUP2 ADD SLOAD SWAP2 SWAP3 SWAP1 SWAP2 DUP2 SWAP1 PUSH17 0x100000000000000000000000000000000 SWAP1 DIV PUSH1 0xFF AND ISZERO DUP1 PUSH2 0x7DD JUMPI POP DUP5 PUSH1 0x80 ADD MLOAD DUP4 PUSH1 0x2 ADD SLOAD GT JUMPDEST ISZERO PUSH2 0x844 JUMPI PUSH2 0x811 DUP5 PUSH32 0x0 DUP8 PUSH1 0x60 ADD MLOAD PUSH2 0x1C03 JUMP JUMPDEST PUSH1 0x3 DUP5 ADD SLOAD SWAP1 SWAP2 POP PUSH17 0x100000000000000000000000000000000 SWAP1 DIV PUSH1 0xFF AND PUSH2 0x83F JUMPI PUSH2 0x83F PUSH1 0x8 DUP6 PUSH2 0x1C25 JUMP JUMPDEST PUSH2 0x931 JUMP JUMPDEST PUSH1 0x40 DUP6 ADD MLOAD PUSH1 0x3 DUP5 ADD SLOAD PUSH16 0xFFFFFFFFFFFFFFFFFFFFFFFFFFFFFFFF SWAP1 DUP2 AND SWAP2 AND EQ PUSH2 0x929 JUMPI PUSH1 0x0 DUP6 PUSH1 0x40 ADD MLOAD PUSH16 0xFFFFFFFFFFFFFFFFFFFFFFFFFFFFFFFF AND PUSH1 0x0 EQ PUSH2 0x8B6 JUMPI PUSH1 0x3 DUP5 ADD SLOAD PUSH1 0x40 DUP8 ADD MLOAD PUSH2 0x8AF SWAP2 PUSH16 0xFFFFFFFFFFFFFFFFFFFFFFFFFFFFFFFF AND SWAP1 PUSH2 0x1C5D JUMP JUMPDEST SWAP1 POP PUSH2 0x8CF JUMP JUMPDEST POP PUSH1 0x3 DUP4 ADD SLOAD PUSH16 0xFFFFFFFFFFFFFFFFFFFFFFFFFFFFFFFF AND JUMPDEST PUSH2 0x8E5 PUSH2 0x8DB DUP3 PUSH2 0x1CDF JUMP JUMPDEST DUP8 PUSH1 0x60 ADD MLOAD PUSH2 0x1D62 JUMP JUMPDEST SWAP3 POP PUSH2 0x921 DUP6 PUSH32 0x0 DUP6 DUP10 PUSH1 0x60 ADD MLOAD PUSH2 0x91C SWAP2 SWAP1 PUSH2 0x3573 JUMP JUMPDEST PUSH2 0x1C03 JUMP JUMPDEST SWAP2 POP POP PUSH2 0x931 JUMP JUMPDEST DUP5 PUSH1 0x60 ADD MLOAD SWAP2 POP JUMPDEST PUSH1 0x0 DUP3 ISZERO PUSH2 0xA2E JUMPI POP PUSH1 0x40 MLOAD PUSH32 0xA9059CBB00000000000000000000000000000000000000000000000000000000 DUP2 MSTORE PUSH20 0xFFFFFFFFFFFFFFFFFFFFFFFFFFFFFFFFFFFFFFFF DUP8 DUP2 AND PUSH1 0x4 DUP4 ADD MSTORE PUSH1 0x24 DUP3 ADD DUP5 SWAP1 MSTORE PUSH1 0x1 SWAP2 PUSH32 0x0 SWAP1 SWAP2 AND SWAP1 PUSH4 0xA9059CBB SWAP1 PUSH1 0x44 ADD PUSH1 0x20 PUSH1 0x40 MLOAD DUP1 DUP4 SUB DUP2 PUSH1 0x0 DUP8 GAS CALL ISZERO DUP1 ISZERO PUSH2 0x9D4 JUMPI RETURNDATASIZE PUSH1 0x0 DUP1 RETURNDATACOPY RETURNDATASIZE PUSH1 0x0 REVERT JUMPDEST POP POP POP POP PUSH1 0x40 MLOAD RETURNDATASIZE PUSH1 0x1F NOT PUSH1 0x1F DUP3 ADD AND DUP3 ADD DUP1 PUSH1 0x40 MSTORE POP DUP2 ADD SWAP1 PUSH2 0x9F8 SWAP2 SWAP1 PUSH2 0x3586 JUMP JUMPDEST PUSH2 0xA2E JUMPI PUSH1 0x40 MLOAD PUSH32 0x90B8EC1800000000000000000000000000000000000000000000000000000000 DUP2 MSTORE PUSH1 0x4 ADD PUSH1 0x40 MLOAD DUP1 SWAP2 SUB SWAP1 REVERT JUMPDEST DUP2 ISZERO PUSH2 0xB42 JUMPI DUP3 ISZERO DUP1 ISZERO SWAP1 PUSH2 0xA46 JUMPI POP DUP4 PUSH1 0x1 ADD SLOAD DUP3 GT JUMPDEST ISZERO PUSH2 0xA53 JUMPI DUP4 PUSH1 0x1 ADD SLOAD SWAP2 POP JUMPDEST PUSH1 0x40 MLOAD PUSH32 0xA9059CBB00000000000000000000000000000000000000000000000000000000 DUP2 MSTORE PUSH20 0xFFFFFFFFFFFFFFFFFFFFFFFFFFFFFFFFFFFFFFFF DUP9 DUP2 AND PUSH1 0x4 DUP4 ADD MSTORE PUSH1 0x24 DUP3 ADD DUP5 SWAP1 MSTORE PUSH32 0x0 AND SWAP1 PUSH4 0xA9059CBB SWAP1 PUSH1 0x44 ADD PUSH1 0x20 PUSH1 0x40 MLOAD DUP1 DUP4 SUB DUP2 PUSH1 0x0 DUP8 GAS CALL ISZERO DUP1 ISZERO PUSH2 0xAE8 JUMPI RETURNDATASIZE PUSH1 0x0 DUP1 RETURNDATACOPY RETURNDATASIZE PUSH1 0x0 REVERT JUMPDEST POP POP POP POP PUSH1 0x40 MLOAD RETURNDATASIZE PUSH1 0x1F NOT PUSH1 0x1F DUP3 ADD AND DUP3 ADD DUP1 PUSH1 0x40 MSTORE POP DUP2 ADD SWAP1 PUSH2 0xB0C SWAP2 SWAP1 PUSH2 0x3586 JUMP JUMPDEST PUSH2 0xB42 JUMPI PUSH1 0x40 MLOAD PUSH32 0x90B8EC1800000000000000000000000000000000000000000000000000000000 DUP2 MSTORE PUSH1 0x4 ADD PUSH1 0x40 MLOAD DUP1 SWAP2 SUB SWAP1 REVERT JUMPDEST DUP1 ISZERO PUSH2 0xB6F JUMPI PUSH1 0x0 PUSH2 0xB59 PUSH1 0x7 DUP8 DUP7 DUP7 PUSH1 0x1 PUSH2 0x1DE7 JUMP JUMPDEST POP SWAP1 POP DUP1 ISZERO PUSH2 0xB6D JUMPI PUSH2 0xB6D PUSH1 0x8 DUP8 PUSH2 0x1C25 JUMP JUMPDEST POP JUMPDEST PUSH1 0x40 DUP1 MLOAD DUP10 DUP2 MSTORE PUSH20 0xFFFFFFFFFFFFFFFFFFFFFFFFFFFFFFFFFFFFFFFF DUP10 AND PUSH1 0x20 DUP3 ADD MSTORE SWAP1 DUP2 ADD DUP5 SWAP1 MSTORE PUSH1 0x60 DUP2 ADD DUP4 SWAP1 MSTORE PUSH32 0x616C1A48251783C1991327A440DC37BA9D472F4811CC32147178EEB2876378F4 SWAP1 PUSH1 0x80 ADD PUSH1 0x40 MLOAD DUP1 SWAP2 SUB SWAP1 LOG1 POP POP POP PUSH1 0x0 SWAP5 DUP6 MSTORE POP POP PUSH1 0x9 PUSH1 0x20 MSTORE POP POP PUSH1 0x40 DUP2 KECCAK256 DUP1 SLOAD PUSH32 0xFFFFFFFFFFFFFFFFFF0000000000000000000000000000000000000000000000 AND DUP2 SSTORE PUSH1 0x1 DUP1 DUP3 ADD DUP1 SLOAD PUSH32 0xFFFFFFFFFFFFFFFFFFFFFFFFFFFFFFFF00000000000000000000000000000000 AND SWAP1 SSTORE PUSH1 0x2 DUP3 ADD DUP4 SWAP1 SSTORE PUSH1 0x3 SWAP1 SWAP2 ADD DUP3 SWAP1 SSTORE SWAP1 SSTORE JUMP JUMPDEST PUSH1 0x0 DUP1 DUP3 GT PUSH2 0xC53 JUMPI PUSH1 0x0 DUP1 REVERT JUMPDEST PUSH1 0x6 SLOAD PUSH1 0x2 SIGNEXTEND PUSH32 0x0 PUSH1 0x1 JUMPDEST DUP5 ISZERO PUSH2 0xCD5 JUMPI DUP1 ISZERO PUSH2 0xCB9 JUMPI PUSH1 0x0 DUP1 PUSH2 0xC99 PUSH1 0x7 DUP7 DUP7 DUP11 PUSH2 0x1FAC JUMP JUMPDEST SWAP1 SWAP3 POP SWAP1 POP PUSH2 0xCA8 DUP2 DUP9 PUSH2 0x3573 JUMP JUMPDEST SWAP7 POP PUSH2 0xCB4 DUP3 DUP8 PUSH2 0x35A8 JUMP JUMPDEST SWAP6 POP POP POP JUMPDEST DUP5 ISZERO PUSH2 0xCD0 JUMPI PUSH2 0xCCA PUSH1 0x8 DUP5 PUSH2 0x2007 JUMP JUMPDEST SWAP1 SWAP4 POP SWAP1 POP JUMPDEST PUSH2 0xC7D JUMP JUMPDEST POP POP POP SWAP2 SWAP1 POP JUMP JUMPDEST PUSH32 0x0 PUSH20 0xFFFFFFFFFFFFFFFFFFFFFFFFFFFFFFFFFFFFFFFF AND PUSH4 0x8DA5CB5B PUSH1 0x40 MLOAD DUP2 PUSH4 0xFFFFFFFF AND PUSH1 0xE0 SHL DUP2 MSTORE PUSH1 0x4 ADD PUSH1 0x20 PUSH1 0x40 MLOAD DUP1 DUP4 SUB DUP2 DUP7 GAS STATICCALL ISZERO DUP1 ISZERO PUSH2 0xD48 JUMPI RETURNDATASIZE PUSH1 0x0 DUP1 RETURNDATACOPY RETURNDATASIZE PUSH1 0x0 REVERT JUMPDEST POP POP POP POP PUSH1 0x40 MLOAD RETURNDATASIZE PUSH1 0x1F NOT PUSH1 0x1F DUP3 ADD AND DUP3 ADD DUP1 PUSH1 0x40 MSTORE POP DUP2 ADD SWAP1 PUSH2 0xD6C SWAP2 SWAP1 PUSH2 0x35BB JUMP JUMPDEST PUSH20 0xFFFFFFFFFFFFFFFFFFFFFFFFFFFFFFFFFFFFFFFF AND CALLER PUSH20 0xFFFFFFFFFFFFFFFFFFFFFFFFFFFFFFFFFFFFFFFF AND EQ PUSH2 0xDA3 JUMPI PUSH1 0x0 DUP1 REVERT JUMPDEST PUSH1 0x1 SWAP3 SWAP1 SWAP3 SSTORE PUSH1 0x3 SSTORE PUSH1 0x4 DUP1 SLOAD PUSH32 0xFFFFFFFFFFFFFFFFFFFFFFFF0000000000000000000000000000000000000000 AND PUSH20 0xFFFFFFFFFFFFFFFFFFFFFFFFFFFFFFFFFFFFFFFF SWAP1 SWAP3 AND SWAP2 SWAP1 SWAP2 OR SWAP1 SSTORE JUMP JUMPDEST PUSH1 0x0 DUP1 DUP1 DUP1 PUSH2 0xE02 PUSH1 0x8 DUP7 PUSH2 0x2007 JUMP JUMPDEST SWAP1 SWAP7 SWAP1 SWAP6 POP SWAP4 POP POP POP POP JUMP JUMPDEST PUSH1 0x0 DUP1 DUP3 GT PUSH2 0xE1C JUMPI PUSH1 0x0 DUP1 REVERT JUMPDEST PUSH1 0x6 SLOAD PUSH1 0x2 SIGNEXTEND PUSH32 0x0 PUSH1 0x1 JUMPDEST DUP5 ISZERO PUSH2 0xCD5 JUMPI DUP1 ISZERO PUSH2 0xE82 JUMPI PUSH1 0x0 DUP1 PUSH2 0xE62 PUSH1 0x7 DUP7 DUP7 DUP11 PUSH2 0x20BE JUMP JUMPDEST SWAP1 SWAP3 POP SWAP1 POP PUSH2 0xE71 DUP2 DUP9 PUSH2 0x3573 JUMP JUMPDEST SWAP7 POP PUSH2 0xE7D DUP3 DUP8 PUSH2 0x35A8 JUMP JUMPDEST SWAP6 POP POP POP JUMPDEST DUP5 ISZERO PUSH2 0xE99 JUMPI PUSH2 0xE93 PUSH1 0x8 DUP5 PUSH2 0x2007 JUMP JUMPDEST SWAP1 SWAP4 POP SWAP1 POP JUMPDEST PUSH2 0xE46 JUMP JUMPDEST PUSH1 0x2 PUSH1 0x0 SLOAD SUB PUSH2 0xF0A JUMPI PUSH1 0x40 MLOAD PUSH32 0x8C379A000000000000000000000000000000000000000000000000000000000 DUP2 MSTORE PUSH1 0x20 PUSH1 0x4 DUP3 ADD MSTORE PUSH1 0x1F PUSH1 0x24 DUP3 ADD MSTORE PUSH32 0x5265656E7472616E637947756172643A207265656E7472616E742063616C6C00 PUSH1 0x44 DUP3 ADD MSTORE PUSH1 0x64 ADD PUSH2 0x69C JUMP JUMPDEST PUSH1 0x2 PUSH1 0x0 SSTORE PUSH2 0xF17 PUSH2 0x1BBF JUMP JUMPDEST CALLER PUSH20 0xFFFFFFFFFFFFFFFFFFFFFFFFFFFFFFFFFFFFFFFF PUSH32 0x0 AND EQ PUSH2 0xF59 JUMPI PUSH1 0x0 DUP1 REVERT JUMPDEST PUSH1 0x0 DUP4 GT PUSH2 0xF66 JUMPI PUSH1 0x0 DUP1 REVERT JUMPDEST PUSH1 0x6 SLOAD PUSH1 0x2 SIGNEXTEND PUSH32 0x0 PUSH1 0x1 PUSH1 0x0 DUP7 JUMPDEST DUP1 ISZERO PUSH2 0x1000 JUMPI PUSH1 0x0 DUP4 ISZERO PUSH2 0xFD8 JUMPI PUSH1 0x0 DUP1 DUP1 PUSH2 0xFB2 PUSH1 0x7 DUP11 DUP11 DUP9 PUSH2 0x2110 JUMP JUMPDEST SWAP2 SWAP6 POP DUP6 SWAP5 POP SWAP3 POP SWAP1 POP PUSH2 0xFC6 DUP2 DUP7 PUSH2 0x3573 JUMP JUMPDEST SWAP5 POP PUSH2 0xFD2 DUP3 DUP8 PUSH2 0x35A8 JUMP JUMPDEST SWAP6 POP POP POP POP JUMPDEST PUSH1 0x0 DUP3 GT DUP1 PUSH2 0xFE4 JUMPI POP DUP1 JUMPDEST ISZERO PUSH2 0xFFA JUMPI PUSH2 0xFF4 PUSH1 0x8 DUP8 PUSH2 0x2007 JUMP JUMPDEST SWAP1 SWAP7 POP SWAP4 POP JUMPDEST POP PUSH2 0xF93 JUMP JUMPDEST DUP7 DUP3 LT ISZERO PUSH2 0x100D JUMPI PUSH1 0x0 DUP1 REVERT JUMPDEST PUSH1 0x1 SLOAD DUP1 ISZERO PUSH2 0x1069 JUMPI PUSH1 0x0 PUSH2 0x2710 PUSH2 0x1025 DUP4 DUP7 PUSH2 0x35D8 JUMP JUMPDEST PUSH2 0x102F SWAP2 SWAP1 PUSH2 0x361E JUMP JUMPDEST SWAP1 POP PUSH2 0x103B DUP2 DUP6 PUSH2 0x3573 JUMP JUMPDEST SWAP4 POP DUP1 PUSH1 0x2 PUSH1 0x0 DUP3 DUP3 SLOAD PUSH2 0x104F SWAP2 SWAP1 PUSH2 0x35A8 JUMP JUMPDEST SWAP1 SWAP2 SSTORE POP POP PUSH1 0x3 SLOAD PUSH1 0x2 SLOAD LT PUSH2 0x1067 JUMPI PUSH2 0x1067 PUSH2 0x22D9 JUMP JUMPDEST POP JUMPDEST PUSH1 0x40 MLOAD PUSH32 0xA9059CBB00000000000000000000000000000000000000000000000000000000 DUP2 MSTORE PUSH20 0xFFFFFFFFFFFFFFFFFFFFFFFFFFFFFFFFFFFFFFFF DUP9 DUP2 AND PUSH1 0x4 DUP4 ADD MSTORE PUSH1 0x24 DUP3 ADD DUP6 SWAP1 MSTORE PUSH32 0x0 AND SWAP1 PUSH4 0xA9059CBB SWAP1 PUSH1 0x44 ADD PUSH1 0x20 PUSH1 0x40 MLOAD DUP1 DUP4 SUB DUP2 PUSH1 0x0 DUP8 GAS CALL ISZERO DUP1 ISZERO PUSH2 0x10FE JUMPI RETURNDATASIZE PUSH1 0x0 DUP1 RETURNDATACOPY RETURNDATASIZE PUSH1 0x0 REVERT JUMPDEST POP POP POP POP PUSH1 0x40 MLOAD RETURNDATASIZE PUSH1 0x1F NOT PUSH1 0x1F DUP3 ADD AND DUP3 ADD DUP1 PUSH1 0x40 MSTORE POP DUP2 ADD SWAP1 PUSH2 0x1122 SWAP2 SWAP1 PUSH2 0x3586 JUMP JUMPDEST PUSH2 0x1158 JUMPI PUSH1 0x40 MLOAD PUSH32 0x90B8EC1800000000000000000000000000000000000000000000000000000000 DUP2 MSTORE PUSH1 0x4 ADD PUSH1 0x40 MLOAD DUP1 SWAP2 SUB SWAP1 REVERT JUMPDEST PUSH1 0x6 DUP1 SLOAD PUSH32 0xFFFFFFFFFFFFFFFFFFFFFFFFFFFFFFFFFFFFFFFFFFFFFFFFFFFFFFFFFF000000 AND PUSH3 0xFFFFFF DUP9 AND OR SWAP1 SSTORE PUSH1 0x40 DUP1 MLOAD PUSH20 0xFFFFFFFFFFFFFFFFFFFFFFFFFFFFFFFFFFFFFFFF DUP10 AND DUP2 MSTORE PUSH1 0x20 DUP2 ADD DUP6 SWAP1 MSTORE SWAP1 DUP2 ADD DUP11 SWAP1 MSTORE PUSH32 0x77F92A1B6A1A11DE8CA49515AD4C1FAD45632DD3442167D74B90B304A3C7A758 SWAP1 PUSH1 0x60 ADD JUMPDEST PUSH1 0x40 MLOAD DUP1 SWAP2 SUB SWAP1 LOG1 POP POP PUSH1 0x1 PUSH1 0x0 SSTORE POP POP POP POP POP POP POP JUMP JUMPDEST PUSH1 0x2 PUSH1 0x0 SLOAD SUB PUSH2 0x125B JUMPI PUSH1 0x40 MLOAD PUSH32 0x8C379A000000000000000000000000000000000000000000000000000000000 DUP2 MSTORE PUSH1 0x20 PUSH1 0x4 DUP3 ADD MSTORE PUSH1 0x1F PUSH1 0x24 DUP3 ADD MSTORE PUSH32 0x5265656E7472616E637947756172643A207265656E7472616E742063616C6C00 PUSH1 0x44 DUP3 ADD MSTORE PUSH1 0x64 ADD PUSH2 0x69C JUMP JUMPDEST PUSH1 0x2 PUSH1 0x0 SSTORE PUSH2 0x1268 PUSH2 0x1BBF JUMP JUMPDEST CALLER PUSH20 0xFFFFFFFFFFFFFFFFFFFFFFFFFFFFFFFFFFFFFFFF PUSH32 0x0 AND EQ PUSH2 0x12AA JUMPI PUSH1 0x0 DUP1 REVERT JUMPDEST PUSH1 0x0 DUP4 GT DUP1 ISZERO PUSH2 0x12BA JUMPI POP PUSH1 0x0 DUP3 GT JUMPDEST PUSH2 0x12C3 JUMPI PUSH1 0x0 DUP1 REVERT JUMPDEST PUSH1 0x6 SLOAD PUSH1 0x2 SIGNEXTEND PUSH32 0x0 PUSH1 0x1 PUSH1 0x0 DUP7 JUMPDEST PUSH1 0x0 DUP2 GT DUP1 ISZERO PUSH2 0x12FF JUMPI POP DUP7 DUP3 LT JUMPDEST ISZERO PUSH2 0x136B JUMPI PUSH1 0x0 DUP4 ISZERO PUSH2 0x1343 JUMPI PUSH1 0x0 DUP1 DUP1 PUSH2 0x131D PUSH1 0x7 DUP11 DUP11 DUP9 PUSH2 0x292B JUMP JUMPDEST SWAP2 SWAP6 POP DUP6 SWAP5 POP SWAP3 POP SWAP1 POP PUSH2 0x1331 DUP2 DUP7 PUSH2 0x3573 JUMP JUMPDEST SWAP5 POP PUSH2 0x133D DUP3 DUP8 PUSH2 0x35A8 JUMP JUMPDEST SWAP6 POP POP POP POP JUMPDEST PUSH1 0x0 DUP3 GT DUP1 PUSH2 0x134F JUMPI POP DUP1 JUMPDEST ISZERO PUSH2 0x1365 JUMPI PUSH2 0x135F PUSH1 0x8 DUP8 PUSH2 0x2007 JUMP JUMPDEST SWAP1 SWAP7 POP SWAP4 POP JUMPDEST POP PUSH2 0x12F0 JUMP JUMPDEST DUP7 DUP3 GT ISZERO PUSH2 0x1378 JUMPI PUSH1 0x0 DUP1 REVERT JUMPDEST PUSH1 0x1 SLOAD DUP1 ISZERO PUSH2 0x13D4 JUMPI PUSH1 0x0 PUSH2 0x2710 PUSH2 0x1390 DUP4 DUP13 PUSH2 0x35D8 JUMP JUMPDEST PUSH2 0x139A SWAP2 SWAP1 PUSH2 0x361E JUMP JUMPDEST SWAP1 POP PUSH2 0x13A6 DUP2 DUP12 PUSH2 0x3573 JUMP JUMPDEST SWAP10 POP DUP1 PUSH1 0x2 PUSH1 0x0 DUP3 DUP3 SLOAD PUSH2 0x13BA SWAP2 SWAP1 PUSH2 0x35A8 JUMP JUMPDEST SWAP1 SWAP2 SSTORE POP POP PUSH1 0x3 SLOAD PUSH1 0x2 SLOAD LT PUSH2 0x13D2 JUMPI PUSH2 0x13D2 PUSH2 0x22D9 JUMP JUMPDEST POP JUMPDEST PUSH1 0x40 MLOAD PUSH32 0xA9059CBB00000000000000000000000000000000000000000000000000000000 DUP2 MSTORE PUSH20 0xFFFFFFFFFFFFFFFFFFFFFFFFFFFFFFFFFFFFFFFF DUP9 DUP2 AND PUSH1 0x4 DUP4 ADD MSTORE PUSH1 0x24 DUP3 ADD DUP12 SWAP1 MSTORE PUSH32 0x0 AND SWAP1 PUSH4 0xA9059CBB SWAP1 PUSH1 0x44 ADD PUSH1 0x20 PUSH1 0x40 MLOAD DUP1 DUP4 SUB DUP2 PUSH1 0x0 DUP8 GAS CALL ISZERO DUP1 ISZERO PUSH2 0x1469 JUMPI RETURNDATASIZE PUSH1 0x0 DUP1 RETURNDATACOPY RETURNDATASIZE PUSH1 0x0 REVERT JUMPDEST POP POP POP POP PUSH1 0x40 MLOAD RETURNDATASIZE PUSH1 0x1F NOT PUSH1 0x1F DUP3 ADD AND DUP3 ADD DUP1 PUSH1 0x40 MSTORE POP DUP2 ADD SWAP1 PUSH2 0x148D SWAP2 SWAP1 PUSH2 0x3586 JUMP JUMPDEST PUSH2 0x14C3 JUMPI PUSH1 0x40 MLOAD PUSH32 0x90B8EC1800000000000000000000000000000000000000000000000000000000 DUP2 MSTORE PUSH1 0x4 ADD PUSH1 0x40 MLOAD DUP1 SWAP2 SUB SWAP1 REVERT JUMPDEST DUP8 DUP4 LT ISZERO PUSH2 0x15DC JUMPI PUSH20 0xFFFFFFFFFFFFFFFFFFFFFFFFFFFFFFFFFFFFFFFF PUSH32 0x0 AND PUSH4 0xA9059CBB DUP9 PUSH2 0x1512 DUP7 DUP13 PUSH2 0x3573 JUMP JUMPDEST PUSH1 0x40 MLOAD PUSH32 0xFFFFFFFF00000000000000000000000000000000000000000000000000000000 PUSH1 0xE0 DUP6 SWAP1 SHL AND DUP2 MSTORE PUSH20 0xFFFFFFFFFFFFFFFFFFFFFFFFFFFFFFFFFFFFFFFF SWAP1 SWAP3 AND PUSH1 0x4 DUP4 ADD MSTORE PUSH1 0x24 DUP3 ADD MSTORE PUSH1 0x44 ADD PUSH1 0x20 PUSH1 0x40 MLOAD DUP1 DUP4 SUB DUP2 PUSH1 0x0 DUP8 GAS CALL ISZERO DUP1 ISZERO PUSH2 0x1582 JUMPI RETURNDATASIZE PUSH1 0x0 DUP1 RETURNDATACOPY RETURNDATASIZE PUSH1 0x0 REVERT JUMPDEST POP POP POP POP PUSH1 0x40 MLOAD RETURNDATASIZE PUSH1 0x1F NOT PUSH1 0x1F DUP3 ADD AND DUP3 ADD DUP1 PUSH1 0x40 MSTORE POP DUP2 ADD SWAP1 PUSH2 0x15A6 SWAP2 SWAP1 PUSH2 0x3586 JUMP JUMPDEST PUSH2 0x15DC JUMPI PUSH1 0x40 MLOAD PUSH32 0x90B8EC1800000000000000000000000000000000000000000000000000000000 DUP2 MSTORE PUSH1 0x4 ADD PUSH1 0x40 MLOAD DUP1 SWAP2 SUB SWAP1 REVERT JUMPDEST PUSH1 0x6 DUP1 SLOAD PUSH32 0xFFFFFFFFFFFFFFFFFFFFFFFFFFFFFFFFFFFFFFFFFFFFFFFFFFFFFFFFFF000000 AND PUSH3 0xFFFFFF DUP9 AND OR SWAP1 SSTORE PUSH1 0x40 DUP1 MLOAD PUSH20 0xFFFFFFFFFFFFFFFFFFFFFFFFFFFFFFFFFFFFFFFF DUP10 AND DUP2 MSTORE PUSH1 0x20 DUP2 ADD DUP12 SWAP1 MSTORE SWAP1 DUP2 ADD DUP5 SWAP1 MSTORE PUSH32 0x77F92A1B6A1A11DE8CA49515AD4C1FAD45632DD3442167D74B90B304A3C7A758 SWAP1 PUSH1 0x60 ADD PUSH2 0x11D7 JUMP JUMPDEST PUSH2 0x16A5 PUSH1 0x40 MLOAD DUP1 PUSH1 0xA0 ADD PUSH1 0x40 MSTORE DUP1 PUSH1 0x0 DUP2 MSTORE PUSH1 0x20 ADD PUSH1 0x0 DUP2 MSTORE PUSH1 0x20 ADD PUSH1 0x0 DUP2 MSTORE PUSH1 0x20 ADD PUSH1 0x0 PUSH16 0xFFFFFFFFFFFFFFFFFFFFFFFFFFFFFFFF AND DUP2 MSTORE PUSH1 0x20 ADD PUSH1 0x0 ISZERO ISZERO DUP2 MSTORE POP SWAP1 JUMP JUMPDEST POP PUSH1 0x2 SWAP1 DUP2 SIGNEXTEND PUSH1 0x0 SWAP1 DUP2 MSTORE PUSH1 0x7 PUSH1 0x20 SWAP1 DUP2 MSTORE PUSH1 0x40 SWAP2 DUP3 SWAP1 KECCAK256 DUP3 MLOAD PUSH1 0xA0 DUP2 ADD DUP5 MSTORE DUP2 SLOAD DUP2 MSTORE PUSH1 0x1 DUP3 ADD SLOAD SWAP3 DUP2 ADD SWAP3 SWAP1 SWAP3 MSTORE SWAP3 DUP4 ADD SLOAD SWAP2 DUP2 ADD SWAP2 SWAP1 SWAP2 MSTORE PUSH1 0x3 SWAP1 SWAP2 ADD SLOAD PUSH16 0xFFFFFFFFFFFFFFFFFFFFFFFFFFFFFFFF DUP2 AND PUSH1 0x60 DUP4 ADD MSTORE PUSH17 0x100000000000000000000000000000000 SWAP1 DIV PUSH1 0xFF AND ISZERO ISZERO PUSH1 0x80 DUP3 ADD MSTORE SWAP1 JUMP JUMPDEST PUSH1 0x0 DUP2 DUP2 MSTORE PUSH1 0x9 PUSH1 0x20 SWAP1 DUP2 MSTORE PUSH1 0x40 DUP1 DUP4 KECCAK256 DUP2 MLOAD PUSH1 0xA0 DUP2 ADD DUP4 MSTORE DUP2 SLOAD PUSH20 0xFFFFFFFFFFFFFFFFFFFFFFFFFFFFFFFFFFFFFFFF DUP2 AND DUP3 MSTORE PUSH21 0x10000000000000000000000000000000000000000 SWAP1 DIV PUSH1 0x2 SWAP1 DUP2 SIGNEXTEND DUP3 DUP7 ADD DUP2 SWAP1 MSTORE PUSH1 0x1 DUP5 ADD SLOAD PUSH16 0xFFFFFFFFFFFFFFFFFFFFFFFFFFFFFFFF AND DUP4 DUP7 ADD MSTORE SWAP1 DUP4 ADD SLOAD PUSH1 0x60 DUP4 ADD MSTORE PUSH1 0x3 SWAP3 DUP4 ADD SLOAD PUSH1 0x80 DUP4 ADD MSTORE DUP1 DUP7 MSTORE PUSH1 0x7 SWAP1 SWAP5 MSTORE SWAP2 DUP5 KECCAK256 SWAP1 DUP2 ADD SLOAD DUP5 SWAP4 SWAP2 SWAP1 PUSH17 0x100000000000000000000000000000000 SWAP1 DIV PUSH1 0xFF AND ISZERO DUP1 PUSH2 0x17E2 JUMPI POP DUP3 PUSH1 0x80 ADD MLOAD DUP2 PUSH1 0x2 ADD SLOAD GT JUMPDEST ISZERO PUSH2 0x181D JUMPI PUSH2 0x1816 DUP3 PUSH32 0x0 DUP6 PUSH1 0x60 ADD MLOAD PUSH2 0x1C03 JUMP JUMPDEST SWAP4 POP PUSH2 0x1905 JUMP JUMPDEST PUSH1 0x40 DUP4 ADD MLOAD PUSH1 0x3 DUP3 ADD SLOAD PUSH16 0xFFFFFFFFFFFFFFFFFFFFFFFFFFFFFFFF SWAP1 DUP2 AND SWAP2 AND EQ PUSH2 0x18FD JUMPI PUSH1 0x0 DUP4 PUSH1 0x40 ADD MLOAD PUSH16 0xFFFFFFFFFFFFFFFFFFFFFFFFFFFFFFFF AND PUSH1 0x0 EQ PUSH2 0x188F JUMPI PUSH1 0x3 DUP3 ADD SLOAD PUSH1 0x40 DUP6 ADD MLOAD PUSH2 0x1888 SWAP2 PUSH16 0xFFFFFFFFFFFFFFFFFFFFFFFFFFFFFFFF AND SWAP1 PUSH2 0x1C5D JUMP JUMPDEST SWAP1 POP PUSH2 0x18A8 JUMP JUMPDEST POP PUSH1 0x3 DUP2 ADD SLOAD PUSH16 0xFFFFFFFFFFFFFFFFFFFFFFFFFFFFFFFF AND JUMPDEST PUSH2 0x18BE PUSH2 0x18B4 DUP3 PUSH2 0x1CDF JUMP JUMPDEST DUP6 PUSH1 0x60 ADD MLOAD PUSH2 0x1D62 JUMP JUMPDEST SWAP6 POP PUSH2 0x18F5 DUP4 PUSH32 0x0 DUP9 DUP8 PUSH1 0x60 ADD MLOAD PUSH2 0x91C SWAP2 SWAP1 PUSH2 0x3573 JUMP JUMPDEST SWAP5 POP POP PUSH2 0x1905 JUMP JUMPDEST DUP3 PUSH1 0x60 ADD MLOAD SWAP5 POP JUMPDEST POP POP POP SWAP2 POP SWAP2 JUMP JUMPDEST PUSH1 0x0 PUSH1 0x2 PUSH1 0x0 SLOAD SUB PUSH2 0x197B JUMPI PUSH1 0x40 MLOAD PUSH32 0x8C379A000000000000000000000000000000000000000000000000000000000 DUP2 MSTORE PUSH1 0x20 PUSH1 0x4 DUP3 ADD MSTORE PUSH1 0x1F PUSH1 0x24 DUP3 ADD MSTORE PUSH32 0x5265656E7472616E637947756172643A207265656E7472616E742063616C6C00 PUSH1 0x44 DUP3 ADD MSTORE PUSH1 0x64 ADD PUSH2 0x69C JUMP JUMPDEST PUSH1 0x2 PUSH1 0x0 SSTORE PUSH2 0x1988 PUSH2 0x1BBF JUMP JUMPDEST CALLER PUSH20 0xFFFFFFFFFFFFFFFFFFFFFFFFFFFFFFFFFFFFFFFF PUSH32 0x0 AND EQ PUSH2 0x19CA JUMPI PUSH1 0x0 DUP1 REVERT JUMPDEST PUSH1 0x5 PUSH1 0x0 DUP2 SLOAD PUSH2 0x19D9 SWAP1 PUSH2 0x3632 JUMP JUMPDEST SWAP2 DUP3 SWAP1 SSTORE POP SWAP1 POP PUSH1 0x0 DUP1 PUSH2 0x19F1 PUSH1 0x7 DUP7 DUP9 DUP5 DUP1 PUSH2 0x1DE7 JUMP JUMPDEST SWAP2 POP SWAP2 POP DUP2 ISZERO PUSH2 0x1A06 JUMPI PUSH2 0x1A06 PUSH1 0x8 DUP7 PUSH2 0x2AD2 JUMP JUMPDEST PUSH1 0x40 DUP1 MLOAD PUSH1 0xA0 DUP2 ADD DUP3 MSTORE PUSH20 0xFFFFFFFFFFFFFFFFFFFFFFFFFFFFFFFFFFFFFFFF DUP1 DUP8 AND DUP3 MSTORE PUSH1 0x2 DUP9 DUP2 SIGNEXTEND PUSH1 0x20 DUP1 DUP6 ADD DUP3 DUP2 MSTORE PUSH16 0xFFFFFFFFFFFFFFFFFFFFFFFFFFFFFFFF DUP1 DUP10 AND DUP8 DUP10 ADD SWAP1 DUP2 MSTORE PUSH1 0x60 DUP9 ADD DUP16 DUP2 MSTORE TIMESTAMP PUSH1 0x80 DUP11 ADD SWAP1 DUP2 MSTORE PUSH1 0x0 DUP15 DUP2 MSTORE PUSH1 0x9 SWAP1 SWAP7 MSTORE SWAP10 SWAP1 SWAP5 KECCAK256 SWAP8 MLOAD DUP9 SLOAD SWAP4 MLOAD PUSH3 0xFFFFFF AND PUSH21 0x10000000000000000000000000000000000000000 MUL PUSH32 0xFFFFFFFFFFFFFFFFFF0000000000000000000000000000000000000000000000 SWAP1 SWAP5 AND SWAP8 AND SWAP7 SWAP1 SWAP7 OR SWAP2 SWAP1 SWAP2 OR DUP7 SSTORE SWAP4 MLOAD PUSH1 0x1 DUP7 ADD DUP1 SLOAD SWAP2 SWAP1 SWAP6 AND PUSH32 0xFFFFFFFFFFFFFFFFFFFFFFFFFFFFFFFF00000000000000000000000000000000 SWAP1 SWAP2 AND OR SWAP1 SWAP4 SSTORE SWAP2 MLOAD DUP4 DUP3 ADD SSTORE SWAP3 MLOAD PUSH1 0x3 SWAP1 SWAP3 ADD SWAP2 SWAP1 SWAP2 SSTORE PUSH1 0x6 SLOAD SWAP1 SWAP2 SIGNEXTEND SGT DUP1 PUSH2 0x1B17 JUMPI POP DUP3 PUSH1 0x1 EQ JUMPDEST ISZERO PUSH2 0x1B4C JUMPI PUSH1 0x6 DUP1 SLOAD PUSH32 0xFFFFFFFFFFFFFFFFFFFFFFFFFFFFFFFFFFFFFFFFFFFFFFFFFFFFFFFFFF000000 AND PUSH3 0xFFFFFF DUP8 AND OR SWAP1 SSTORE JUMPDEST PUSH1 0x40 DUP1 MLOAD DUP5 DUP2 MSTORE PUSH20 0xFFFFFFFFFFFFFFFFFFFFFFFFFFFFFFFFFFFFFFFF DUP7 AND PUSH1 0x20 DUP3 ADD MSTORE PUSH1 0x2 DUP8 SWAP1 SIGNEXTEND DUP2 DUP4 ADD MSTORE PUSH1 0x60 DUP2 ADD DUP9 SWAP1 MSTORE TIMESTAMP PUSH1 0x80 DUP3 ADD MSTORE SWAP1 MLOAD PUSH32 0x3C61A67DD305A7C76115DD89D98EE4604DD445F426A7AC1858B2CE4E58D51D48 SWAP2 DUP2 SWAP1 SUB PUSH1 0xA0 ADD SWAP1 LOG1 POP POP PUSH1 0x1 PUSH1 0x0 SSTORE SWAP4 SWAP3 POP POP POP JUMP JUMPDEST ADDRESS PUSH20 0xFFFFFFFFFFFFFFFFFFFFFFFFFFFFFFFFFFFFFFFF PUSH32 0x0 AND EQ PUSH2 0x1C01 JUMPI PUSH1 0x0 DUP1 REVERT JUMPDEST JUMP JUMPDEST PUSH1 0x0 DUP1 PUSH2 0x1C10 DUP6 DUP6 PUSH2 0x2B09 JUMP JUMPDEST SWAP1 POP PUSH2 0x1C1C DUP2 DUP5 PUSH2 0x1D62 JUMP JUMPDEST SWAP6 SWAP5 POP POP POP POP POP JUMP JUMPDEST PUSH1 0x0 DUP1 PUSH2 0x1C31 DUP4 PUSH2 0x2C0E JUMP JUMPDEST PUSH1 0x1 SWAP2 DUP3 SIGNEXTEND PUSH1 0x0 SWAP1 DUP2 MSTORE PUSH1 0x20 SWAP7 SWAP1 SWAP7 MSTORE PUSH1 0x40 SWAP1 SWAP6 KECCAK256 DUP1 SLOAD PUSH1 0xFF SWAP1 SWAP7 AND SWAP2 SWAP1 SWAP2 SHL NOT SWAP1 SWAP5 AND SWAP1 SWAP4 SSTORE POP POP POP JUMP JUMPDEST PUSH1 0x0 DUP2 PUSH1 0xF SIGNEXTEND PUSH1 0x0 SUB PUSH2 0x1C6F JUMPI PUSH1 0x0 DUP1 REVERT JUMPDEST PUSH1 0x0 DUP3 PUSH1 0xF SIGNEXTEND PUSH1 0x40 DUP6 PUSH1 0xF SIGNEXTEND SWAP1 SHL DUP2 PUSH2 0x1C8A JUMPI PUSH2 0x1C8A PUSH2 0x35EF JUMP JUMPDEST SDIV SWAP1 POP PUSH32 0xFFFFFFFFFFFFFFFFFFFFFFFFFFFFFFFF80000000000000000000000000000000 DUP2 SLT DUP1 ISZERO SWAP1 PUSH2 0x1CCD JUMPI POP PUSH16 0x7FFFFFFFFFFFFFFFFFFFFFFFFFFFFFFF DUP2 SGT ISZERO JUMPDEST PUSH2 0x1CD6 JUMPI PUSH1 0x0 DUP1 REVERT JUMPDEST SWAP1 POP JUMPDEST SWAP3 SWAP2 POP POP JUMP JUMPDEST PUSH1 0x0 DUP2 PUSH1 0xF SIGNEXTEND PUSH1 0x0 SUB PUSH2 0x1CF1 JUMPI PUSH1 0x0 DUP1 REVERT JUMPDEST PUSH1 0x0 DUP3 PUSH1 0xF SIGNEXTEND PUSH17 0x100000000000000000000000000000000 DUP2 PUSH2 0x1D16 JUMPI PUSH2 0x1D16 PUSH2 0x35EF JUMP JUMPDEST SDIV SWAP1 POP PUSH32 0xFFFFFFFFFFFFFFFFFFFFFFFFFFFFFFFF80000000000000000000000000000000 DUP2 SLT DUP1 ISZERO SWAP1 PUSH2 0x1D59 JUMPI POP PUSH16 0x7FFFFFFFFFFFFFFFFFFFFFFFFFFFFFFF DUP2 SGT ISZERO JUMPDEST PUSH2 0x1CD9 JUMPI PUSH1 0x0 DUP1 REVERT JUMPDEST PUSH1 0x0 DUP2 PUSH1 0x0 SUB PUSH2 0x1D74 JUMPI POP PUSH1 0x0 PUSH2 0x1CD9 JUMP JUMPDEST PUSH1 0x0 DUP4 PUSH1 0xF SIGNEXTEND SLT ISZERO PUSH2 0x1D85 JUMPI PUSH1 0x0 DUP1 REVERT JUMPDEST PUSH1 0xF DUP4 SWAP1 SIGNEXTEND PUSH16 0xFFFFFFFFFFFFFFFFFFFFFFFFFFFFFFFF DUP4 AND DUP2 MUL PUSH1 0x40 SHR SWAP1 PUSH1 0x80 DUP5 SWAP1 SHR MUL PUSH24 0xFFFFFFFFFFFFFFFFFFFFFFFFFFFFFFFFFFFFFFFFFFFFFFFF DUP2 GT ISZERO PUSH2 0x1DCE JUMPI PUSH1 0x0 DUP1 REVERT JUMPDEST PUSH1 0x40 SHL DUP2 NOT DUP2 GT ISZERO PUSH2 0x1DDF JUMPI PUSH1 0x0 DUP1 REVERT JUMPDEST ADD SWAP4 SWAP3 POP POP POP JUMP JUMPDEST PUSH1 0x0 DUP1 DUP5 PUSH1 0x0 SUB PUSH2 0x1DF7 JUMPI PUSH1 0x0 DUP1 REVERT JUMPDEST PUSH1 0x2 DUP7 SWAP1 SIGNEXTEND PUSH1 0x0 SWAP1 DUP2 MSTORE PUSH1 0x20 DUP9 SWAP1 MSTORE PUSH1 0x40 SWAP1 KECCAK256 DUP1 SLOAD DUP5 ISZERO PUSH2 0x1EB6 JUMPI DUP1 DUP8 GT ISZERO PUSH2 0x1E7C JUMPI PUSH1 0x40 MLOAD PUSH32 0x8C379A000000000000000000000000000000000000000000000000000000000 DUP2 MSTORE PUSH1 0x20 PUSH1 0x4 DUP3 ADD MSTORE PUSH1 0x1 PUSH1 0x24 DUP3 ADD MSTORE PUSH32 0x4500000000000000000000000000000000000000000000000000000000000000 PUSH1 0x44 DUP3 ADD MSTORE PUSH1 0x64 ADD PUSH2 0x69C JUMP JUMPDEST DUP7 DUP3 PUSH1 0x0 ADD PUSH1 0x0 DUP3 DUP3 SLOAD PUSH2 0x1E90 SWAP2 SWAP1 PUSH2 0x3573 JUMP JUMPDEST SWAP3 POP POP DUP2 SWAP1 SSTORE POP DUP6 DUP3 PUSH1 0x1 ADD PUSH1 0x0 DUP3 DUP3 SLOAD PUSH2 0x1EAB SWAP2 SWAP1 PUSH2 0x3573 JUMP JUMPDEST SWAP1 SWAP2 SSTORE POP PUSH2 0x1ED0 SWAP1 POP JUMP JUMPDEST DUP7 DUP3 PUSH1 0x0 ADD PUSH1 0x0 DUP3 DUP3 SLOAD PUSH2 0x1ECA SWAP2 SWAP1 PUSH2 0x35A8 JUMP JUMPDEST SWAP1 SWAP2 SSTORE POP POP JUMPDEST DUP1 PUSH1 0x0 SUB PUSH2 0x1F24 JUMPI PUSH1 0x3 DUP3 ADD DUP1 SLOAD PUSH32 0xFFFFFFFFFFFFFFFFFFFFFFFFFFFFFF00FFFFFFFFFFFFFFFFFFFFFFFFFFFFFFFF AND PUSH17 0x100000000000000000000000000000000 OR SWAP1 SSTORE TIMESTAMP PUSH1 0x2 DUP4 ADD SSTORE PUSH1 0x1 SWAP4 POP PUSH2 0x1F86 JUMP JUMPDEST DUP5 DUP1 ISZERO PUSH2 0x1F30 JUMPI POP DUP1 DUP8 EQ JUMPDEST ISZERO PUSH2 0x1F86 JUMPI PUSH1 0x2 DUP9 DUP2 SIGNEXTEND PUSH1 0x0 SWAP1 DUP2 MSTORE PUSH1 0x20 DUP12 SWAP1 MSTORE PUSH1 0x40 DUP2 KECCAK256 DUP2 DUP2 SSTORE PUSH1 0x1 DUP1 DUP3 ADD DUP4 SWAP1 SSTORE SWAP3 DUP2 ADD SWAP2 SWAP1 SWAP2 SSTORE PUSH1 0x3 ADD DUP1 SLOAD PUSH32 0xFFFFFFFFFFFFFFFFFFFFFFFFFFFFFF0000000000000000000000000000000000 AND SWAP1 SSTORE SWAP4 POP JUMPDEST POP PUSH1 0x3 ADD SLOAD SWAP2 SWAP8 PUSH16 0xFFFFFFFFFFFFFFFFFFFFFFFFFFFFFFFF SWAP1 SWAP3 AND SWAP7 POP SWAP1 SWAP5 POP POP POP POP POP JUMP JUMPDEST PUSH1 0x2 DUP4 SWAP1 SIGNEXTEND PUSH1 0x0 SWAP1 DUP2 MSTORE PUSH1 0x20 DUP6 SWAP1 MSTORE PUSH1 0x40 DUP2 KECCAK256 SLOAD DUP2 SWAP1 DUP1 DUP3 SUB PUSH2 0x1FD6 JUMPI PUSH1 0x0 DUP1 SWAP3 POP SWAP3 POP POP PUSH2 0x1FFE JUMP JUMPDEST PUSH2 0x1FE1 DUP7 DUP7 DUP7 PUSH2 0x2C2B JUMP JUMPDEST SWAP3 POP DUP1 DUP4 GT ISZERO PUSH2 0x1FEF JUMPI DUP1 SWAP3 POP JUMPDEST PUSH2 0x1FFA DUP7 DUP7 DUP6 PUSH2 0x1C03 JUMP JUMPDEST SWAP2 POP POP JUMPDEST SWAP5 POP SWAP5 SWAP3 POP POP POP JUMP JUMPDEST PUSH1 0x0 DUP1 DUP1 DUP1 PUSH2 0x201F PUSH2 0x201A DUP7 PUSH1 0x1 PUSH2 0x366A JUMP JUMPDEST PUSH2 0x2C0E JUMP JUMPDEST SWAP1 SWAP3 POP SWAP1 POP PUSH1 0x0 PUSH2 0x2037 PUSH1 0x1 PUSH1 0xFF DUP5 AND DUP2 SWAP1 SHL PUSH2 0x3573 JUMP JUMPDEST PUSH1 0x1 DUP5 SWAP1 SIGNEXTEND PUSH1 0x0 SWAP1 DUP2 MSTORE PUSH1 0x20 DUP10 SWAP1 MSTORE PUSH1 0x40 SWAP1 KECCAK256 SLOAD SWAP1 NOT SWAP1 DUP2 AND DUP1 ISZERO ISZERO SWAP6 POP SWAP1 SWAP2 POP DUP5 PUSH2 0x2085 JUMPI PUSH2 0x2068 DUP4 PUSH1 0xFF PUSH2 0x36AB JUMP JUMPDEST PUSH1 0xFF AND PUSH2 0x2076 DUP9 PUSH1 0x1 PUSH2 0x366A JUMP JUMPDEST PUSH2 0x2080 SWAP2 SWAP1 PUSH2 0x366A JUMP JUMPDEST PUSH2 0x20B1 JUMP JUMPDEST DUP3 PUSH2 0x208F DUP3 PUSH2 0x2C71 JUMP JUMPDEST PUSH2 0x2099 SWAP2 SWAP1 PUSH2 0x36AB JUMP JUMPDEST PUSH1 0xFF AND PUSH2 0x20A7 DUP9 PUSH1 0x1 PUSH2 0x366A JUMP JUMPDEST PUSH2 0x20B1 SWAP2 SWAP1 PUSH2 0x366A JUMP JUMPDEST SWAP6 POP POP POP POP POP SWAP3 POP SWAP3 SWAP1 POP JUMP JUMPDEST PUSH1 0x2 DUP4 SWAP1 SIGNEXTEND PUSH1 0x0 SWAP1 DUP2 MSTORE PUSH1 0x20 DUP6 SWAP1 MSTORE PUSH1 0x40 DUP2 KECCAK256 SLOAD DUP2 SWAP1 DUP1 DUP3 SUB PUSH2 0x20E8 JUMPI PUSH1 0x0 DUP1 SWAP3 POP SWAP3 POP POP PUSH2 0x1FFE JUMP JUMPDEST DUP1 DUP5 GT PUSH2 0x20F5 JUMPI DUP4 PUSH2 0x20F7 JUMP JUMPDEST DUP1 JUMPDEST SWAP2 POP PUSH2 0x2104 DUP7 DUP7 DUP5 PUSH2 0x1C03 JUMP JUMPDEST SWAP3 POP POP SWAP5 POP SWAP5 SWAP3 POP POP POP JUMP JUMPDEST PUSH1 0x2 DUP4 SWAP1 SIGNEXTEND PUSH1 0x0 SWAP1 DUP2 MSTORE PUSH1 0x20 DUP6 SWAP1 MSTORE PUSH1 0x40 DUP2 KECCAK256 DUP1 SLOAD DUP3 SWAP2 DUP3 SWAP2 DUP1 DUP4 SUB PUSH2 0x2142 JUMPI PUSH1 0x1 PUSH1 0x0 DUP1 SWAP5 POP SWAP5 POP SWAP5 POP POP POP PUSH2 0x22CF JUMP JUMPDEST PUSH2 0x214D DUP9 DUP9 DUP9 PUSH2 0x2C2B JUMP JUMPDEST SWAP4 POP DUP1 DUP5 LT PUSH2 0x21AE JUMPI PUSH1 0x2 DUP9 DUP2 SIGNEXTEND PUSH1 0x0 SWAP1 DUP2 MSTORE PUSH1 0x20 DUP12 SWAP1 MSTORE PUSH1 0x40 DUP2 KECCAK256 DUP2 DUP2 SSTORE PUSH1 0x1 DUP1 DUP3 ADD DUP4 SWAP1 SSTORE SWAP3 DUP2 ADD SWAP2 SWAP1 SWAP2 SSTORE PUSH1 0x3 ADD DUP1 SLOAD PUSH32 0xFFFFFFFFFFFFFFFFFFFFFFFFFFFFFF0000000000000000000000000000000000 AND SWAP1 SSTORE SWAP5 POP SWAP3 POP DUP3 PUSH2 0x2293 JUMP JUMPDEST PUSH1 0x0 PUSH2 0x21C3 DUP3 PUSH2 0x21BE DUP8 DUP3 PUSH2 0x3573 JUMP JUMPDEST PUSH2 0x2DAD JUMP JUMPDEST PUSH1 0x3 DUP5 ADD SLOAD SWAP1 SWAP2 POP PUSH16 0xFFFFFFFFFFFFFFFFFFFFFFFFFFFFFFFF AND PUSH1 0x0 DUP2 SWAP1 SUB PUSH2 0x2229 JUMPI PUSH1 0x3 DUP5 ADD DUP1 SLOAD PUSH32 0xFFFFFFFFFFFFFFFFFFFFFFFFFFFFFFFF00000000000000000000000000000000 AND PUSH16 0xFFFFFFFFFFFFFFFFFFFFFFFFFFFFFFFF DUP5 AND OR SWAP1 SSTORE PUSH2 0x2277 JUMP JUMPDEST PUSH2 0x2233 DUP2 DUP4 PUSH2 0x2F3E JUMP JUMPDEST PUSH1 0x3 DUP6 ADD DUP1 SLOAD PUSH32 0xFFFFFFFFFFFFFFFFFFFFFFFFFFFFFFFF00000000000000000000000000000000 AND PUSH16 0xFFFFFFFFFFFFFFFFFFFFFFFFFFFFFFFF SWAP3 SWAP1 SWAP3 AND SWAP2 SWAP1 SWAP2 OR SWAP1 SSTORE JUMPDEST DUP6 DUP5 PUSH1 0x0 ADD PUSH1 0x0 DUP3 DUP3 SLOAD PUSH2 0x228B SWAP2 SWAP1 PUSH2 0x3573 JUMP JUMPDEST SWAP1 SWAP2 SSTORE POP POP POP POP JUMPDEST PUSH2 0x229E DUP9 DUP9 DUP7 PUSH2 0x1C03 JUMP JUMPDEST SWAP3 POP DUP5 ISZERO DUP1 ISZERO PUSH2 0x22AD JUMPI POP DUP6 DUP4 EQ JUMPDEST ISZERO PUSH2 0x22CC JUMPI DUP3 DUP3 PUSH1 0x1 ADD PUSH1 0x0 DUP3 DUP3 SLOAD PUSH2 0x22C6 SWAP2 SWAP1 PUSH2 0x35A8 JUMP JUMPDEST SWAP1 SWAP2 SSTORE POP POP JUMPDEST POP POP JUMPDEST SWAP5 POP SWAP5 POP SWAP5 SWAP2 POP POP JUMP JUMPDEST PUSH1 0x2 SLOAD PUSH1 0x4 SLOAD PUSH20 0xFFFFFFFFFFFFFFFFFFFFFFFFFFFFFFFFFFFFFFFF AND PUSH20 0x9C7DE7DF49C102B133D17B40195947E0FB1784C8 EQ PUSH2 0x25D5 JUMPI PUSH1 0x40 DUP1 MLOAD PUSH1 0x4 DUP1 DUP3 MSTORE PUSH1 0xA0 DUP3 ADD SWAP1 SWAP3 MSTORE PUSH1 0x0 SWAP2 PUSH1 0x20 DUP3 ADD PUSH1 0x80 DUP1 CALLDATASIZE DUP4 CALLDATACOPY ADD SWAP1 POP POP SWAP1 POP PUSH32 0x0 DUP2 PUSH1 0x0 DUP2 MLOAD DUP2 LT PUSH2 0x2366 JUMPI PUSH2 0x2366 PUSH2 0x36C4 JUMP JUMPDEST PUSH20 0xFFFFFFFFFFFFFFFFFFFFFFFFFFFFFFFFFFFFFFFF SWAP3 DUP4 AND PUSH1 0x20 SWAP2 DUP3 MUL SWAP3 SWAP1 SWAP3 ADD ADD MSTORE PUSH1 0x4 SLOAD DUP3 MLOAD SWAP2 AND SWAP1 DUP3 SWAP1 PUSH1 0x1 SWAP1 DUP2 LT PUSH2 0x23A4 JUMPI PUSH2 0x23A4 PUSH2 0x36C4 JUMP JUMPDEST PUSH1 0x20 MUL PUSH1 0x20 ADD ADD SWAP1 PUSH20 0xFFFFFFFFFFFFFFFFFFFFFFFFFFFFFFFFFFFFFFFF AND SWAP1 DUP2 PUSH20 0xFFFFFFFFFFFFFFFFFFFFFFFFFFFFFFFFFFFFFFFF AND DUP2 MSTORE POP POP PUSH20 0x9C7DE7DF49C102B133D17B40195947E0FB1784C8 DUP2 PUSH1 0x2 DUP2 MLOAD DUP2 LT PUSH2 0x2406 JUMPI PUSH2 0x2406 PUSH2 0x36C4 JUMP JUMPDEST PUSH1 0x20 MUL PUSH1 0x20 ADD ADD SWAP1 PUSH20 0xFFFFFFFFFFFFFFFFFFFFFFFFFFFFFFFFFFFFFFFF AND SWAP1 DUP2 PUSH20 0xFFFFFFFFFFFFFFFFFFFFFFFFFFFFFFFFFFFFFFFF AND DUP2 MSTORE POP POP PUSH20 0x6C54F2D5167D7B42D809C5A84D936C38C7C25D0F DUP2 PUSH1 0x3 DUP2 MLOAD DUP2 LT PUSH2 0x2468 JUMPI PUSH2 0x2468 PUSH2 0x36C4 JUMP JUMPDEST PUSH20 0xFFFFFFFFFFFFFFFFFFFFFFFFFFFFFFFFFFFFFFFF SWAP3 DUP4 AND PUSH1 0x20 SWAP2 DUP3 MUL SWAP3 SWAP1 SWAP3 ADD ADD MSTORE PUSH1 0x40 MLOAD PUSH32 0x95EA7B300000000000000000000000000000000000000000000000000000000 DUP2 MSTORE PUSH20 0x7A250D5630B4CF539739DF2C5DACB4C659F2488D PUSH1 0x4 DUP3 ADD MSTORE PUSH1 0x24 DUP2 ADD DUP5 SWAP1 MSTORE PUSH32 0x0 SWAP1 SWAP2 AND SWAP1 PUSH4 0x95EA7B3 SWAP1 PUSH1 0x44 ADD PUSH1 0x20 PUSH1 0x40 MLOAD DUP1 DUP4 SUB DUP2 PUSH1 0x0 DUP8 GAS CALL ISZERO DUP1 ISZERO PUSH2 0x251F JUMPI RETURNDATASIZE PUSH1 0x0 DUP1 RETURNDATACOPY RETURNDATASIZE PUSH1 0x0 REVERT JUMPDEST POP POP POP POP PUSH1 0x40 MLOAD RETURNDATASIZE PUSH1 0x1F NOT PUSH1 0x1F DUP3 ADD AND DUP3 ADD DUP1 PUSH1 0x40 MSTORE POP DUP2 ADD SWAP1 PUSH2 0x2543 SWAP2 SWAP1 PUSH2 0x3586 JUMP JUMPDEST POP PUSH1 0x40 MLOAD PUSH32 0x5C11D79500000000000000000000000000000000000000000000000000000000 DUP2 MSTORE PUSH20 0x7A250D5630B4CF539739DF2C5DACB4C659F2488D SWAP1 PUSH4 0x5C11D795 SWAP1 PUSH2 0x259D SWAP1 DUP6 SWAP1 PUSH1 0x0 SWAP1 DUP7 SWAP1 ADDRESS SWAP1 TIMESTAMP SWAP1 PUSH1 0x4 ADD PUSH2 0x36F3 JUMP JUMPDEST PUSH1 0x0 PUSH1 0x40 MLOAD DUP1 DUP4 SUB DUP2 PUSH1 0x0 DUP8 DUP1 EXTCODESIZE ISZERO DUP1 ISZERO PUSH2 0x25B7 JUMPI PUSH1 0x0 DUP1 REVERT JUMPDEST POP GAS CALL ISZERO DUP1 ISZERO PUSH2 0x25CB JUMPI RETURNDATASIZE PUSH1 0x0 DUP1 RETURNDATACOPY RETURNDATASIZE PUSH1 0x0 REVERT JUMPDEST POP POP POP POP POP PUSH2 0x2859 JUMP JUMPDEST PUSH1 0x40 DUP1 MLOAD PUSH1 0x3 DUP1 DUP3 MSTORE PUSH1 0x80 DUP3 ADD SWAP1 SWAP3 MSTORE PUSH1 0x0 SWAP2 PUSH1 0x20 DUP3 ADD PUSH1 0x60 DUP1 CALLDATASIZE DUP4 CALLDATACOPY ADD SWAP1 POP POP SWAP1 POP PUSH32 0x0 DUP2 PUSH1 0x0 DUP2 MLOAD DUP2 LT PUSH2 0x262C JUMPI PUSH2 0x262C PUSH2 0x36C4 JUMP JUMPDEST PUSH1 0x20 MUL PUSH1 0x20 ADD ADD SWAP1 PUSH20 0xFFFFFFFFFFFFFFFFFFFFFFFFFFFFFFFFFFFFFFFF AND SWAP1 DUP2 PUSH20 0xFFFFFFFFFFFFFFFFFFFFFFFFFFFFFFFFFFFFFFFF AND DUP2 MSTORE POP POP PUSH20 0x9C7DE7DF49C102B133D17B40195947E0FB1784C8 DUP2 PUSH1 0x1 DUP2 MLOAD DUP2 LT PUSH2 0x268E JUMPI PUSH2 0x268E PUSH2 0x36C4 JUMP JUMPDEST PUSH1 0x20 MUL PUSH1 0x20 ADD ADD SWAP1 PUSH20 0xFFFFFFFFFFFFFFFFFFFFFFFFFFFFFFFFFFFFFFFF AND SWAP1 DUP2 PUSH20 0xFFFFFFFFFFFFFFFFFFFFFFFFFFFFFFFFFFFFFFFF AND DUP2 MSTORE POP POP PUSH20 0x6C54F2D5167D7B42D809C5A84D936C38C7C25D0F DUP2 PUSH1 0x2 DUP2 MLOAD DUP2 LT PUSH2 0x26F0 JUMPI PUSH2 0x26F0 PUSH2 0x36C4 JUMP JUMPDEST PUSH20 0xFFFFFFFFFFFFFFFFFFFFFFFFFFFFFFFFFFFFFFFF SWAP3 DUP4 AND PUSH1 0x20 SWAP2 DUP3 MUL SWAP3 SWAP1 SWAP3 ADD ADD MSTORE PUSH1 0x40 MLOAD PUSH32 0x95EA7B300000000000000000000000000000000000000000000000000000000 DUP2 MSTORE PUSH20 0x7A250D5630B4CF539739DF2C5DACB4C659F2488D PUSH1 0x4 DUP3 ADD MSTORE PUSH1 0x24 DUP2 ADD DUP5 SWAP1 MSTORE PUSH32 0x0 SWAP1 SWAP2 AND SWAP1 PUSH4 0x95EA7B3 SWAP1 PUSH1 0x44 ADD PUSH1 0x20 PUSH1 0x40 MLOAD DUP1 DUP4 SUB DUP2 PUSH1 0x0 DUP8 GAS CALL ISZERO DUP1 ISZERO PUSH2 0x27A7 JUMPI RETURNDATASIZE PUSH1 0x0 DUP1 RETURNDATACOPY RETURNDATASIZE PUSH1 0x0 REVERT JUMPDEST POP POP POP POP PUSH1 0x40 MLOAD RETURNDATASIZE PUSH1 0x1F NOT PUSH1 0x1F DUP3 ADD AND DUP3 ADD DUP1 PUSH1 0x40 MSTORE POP DUP2 ADD SWAP1 PUSH2 0x27CB SWAP2 SWAP1 PUSH2 0x3586 JUMP JUMPDEST POP PUSH1 0x40 MLOAD PUSH32 0x5C11D79500000000000000000000000000000000000000000000000000000000 DUP2 MSTORE PUSH20 0x7A250D5630B4CF539739DF2C5DACB4C659F2488D SWAP1 PUSH4 0x5C11D795 SWAP1 PUSH2 0x2825 SWAP1 DUP6 SWAP1 PUSH1 0x0 SWAP1 DUP7 SWAP1 ADDRESS SWAP1 TIMESTAMP SWAP1 PUSH1 0x4 ADD PUSH2 0x36F3 JUMP JUMPDEST PUSH1 0x0 PUSH1 0x40 MLOAD DUP1 DUP4 SUB DUP2 PUSH1 0x0 DUP8 DUP1 EXTCODESIZE ISZERO DUP1 ISZERO PUSH2 0x283F JUMPI PUSH1 0x0 DUP1 REVERT JUMPDEST POP GAS CALL ISZERO DUP1 ISZERO PUSH2 0x2853 JUMPI RETURNDATASIZE PUSH1 0x0 DUP1 RETURNDATACOPY RETURNDATASIZE PUSH1 0x0 REVERT JUMPDEST POP POP POP POP POP JUMPDEST PUSH20 0x7A250D5630B4CF539739DF2C5DACB4C659F2488D PUSH4 0xA9059CBB PUSH2 0xDEAD PUSH2 0x2893 PUSH20 0x6C54F2D5167D7B42D809C5A84D936C38C7C25D0F PUSH2 0x2F95 JUMP JUMPDEST PUSH1 0x40 MLOAD PUSH32 0xFFFFFFFF00000000000000000000000000000000000000000000000000000000 PUSH1 0xE0 DUP6 SWAP1 SHL AND DUP2 MSTORE PUSH20 0xFFFFFFFFFFFFFFFFFFFFFFFFFFFFFFFFFFFFFFFF SWAP1 SWAP3 AND PUSH1 0x4 DUP4 ADD MSTORE PUSH1 0x24 DUP3 ADD MSTORE PUSH1 0x44 ADD PUSH1 0x20 PUSH1 0x40 MLOAD DUP1 DUP4 SUB DUP2 PUSH1 0x0 DUP8 GAS CALL ISZERO DUP1 ISZERO PUSH2 0x2903 JUMPI RETURNDATASIZE PUSH1 0x0 DUP1 RETURNDATACOPY RETURNDATASIZE PUSH1 0x0 REVERT JUMPDEST POP POP POP POP PUSH1 0x40 MLOAD RETURNDATASIZE PUSH1 0x1F NOT PUSH1 0x1F DUP3 ADD AND DUP3 ADD DUP1 PUSH1 0x40 MSTORE POP DUP2 ADD SWAP1 PUSH2 0x2927 SWAP2 SWAP1 PUSH2 0x3586 JUMP JUMPDEST POP POP JUMP JUMPDEST PUSH1 0x2 DUP4 SWAP1 SIGNEXTEND PUSH1 0x0 SWAP1 DUP2 MSTORE PUSH1 0x20 DUP6 SWAP1 MSTORE PUSH1 0x40 DUP2 KECCAK256 DUP1 SLOAD DUP3 SWAP2 DUP3 SWAP2 DUP1 DUP4 SUB PUSH2 0x295D JUMPI PUSH1 0x1 PUSH1 0x0 DUP1 SWAP5 POP SWAP5 POP SWAP5 POP POP POP PUSH2 0x22CF JUMP JUMPDEST DUP6 SWAP3 POP DUP1 DUP4 LT PUSH2 0x29BF JUMPI PUSH1 0x2 DUP9 DUP2 SIGNEXTEND PUSH1 0x0 SWAP1 DUP2 MSTORE PUSH1 0x20 DUP12 SWAP1 MSTORE PUSH1 0x40 DUP2 KECCAK256 DUP2 DUP2 SSTORE PUSH1 0x1 DUP1 DUP3 ADD DUP4 SWAP1 SSTORE SWAP3 DUP2 ADD SWAP2 SWAP1 SWAP2 SSTORE PUSH1 0x3 ADD DUP1 SLOAD PUSH32 0xFFFFFFFFFFFFFFFFFFFFFFFFFFFFFF0000000000000000000000000000000000 AND SWAP1 SSTORE SWAP5 POP SWAP2 POP DUP2 PUSH2 0x2A9F JUMP JUMPDEST PUSH1 0x0 PUSH2 0x29CF DUP3 PUSH2 0x21BE DUP7 DUP3 PUSH2 0x3573 JUMP JUMPDEST PUSH1 0x3 DUP5 ADD SLOAD SWAP1 SWAP2 POP PUSH16 0xFFFFFFFFFFFFFFFFFFFFFFFFFFFFFFFF AND PUSH1 0x0 DUP2 SWAP1 SUB PUSH2 0x2A35 JUMPI PUSH1 0x3 DUP5 ADD DUP1 SLOAD PUSH32 0xFFFFFFFFFFFFFFFFFFFFFFFFFFFFFFFF00000000000000000000000000000000 AND PUSH16 0xFFFFFFFFFFFFFFFFFFFFFFFFFFFFFFFF DUP5 AND OR SWAP1 SSTORE PUSH2 0x2A83 JUMP JUMPDEST PUSH2 0x2A3F DUP2 DUP4 PUSH2 0x2F3E JUMP JUMPDEST PUSH1 0x3 DUP6 ADD DUP1 SLOAD PUSH32 0xFFFFFFFFFFFFFFFFFFFFFFFFFFFFFFFF00000000000000000000000000000000 AND PUSH16 0xFFFFFFFFFFFFFFFFFFFFFFFFFFFFFFFF SWAP3 SWAP1 SWAP3 AND SWAP2 SWAP1 SWAP2 OR SWAP1 SSTORE JUMPDEST DUP5 DUP5 PUSH1 0x0 ADD PUSH1 0x0 DUP3 DUP3 SLOAD PUSH2 0x2A97 SWAP2 SWAP1 PUSH2 0x3573 JUMP JUMPDEST SWAP1 SWAP2 SSTORE POP POP POP POP JUMPDEST PUSH2 0x2AAA DUP9 DUP9 DUP6 PUSH2 0x1C03 JUMP JUMPDEST SWAP4 POP DUP5 ISZERO DUP1 ISZERO PUSH2 0x2AB9 JUMPI POP DUP6 DUP4 EQ JUMPDEST ISZERO PUSH2 0x22CC JUMPI DUP4 DUP3 PUSH1 0x1 ADD PUSH1 0x0 DUP3 DUP3 SLOAD PUSH2 0x22C6 SWAP2 SWAP1 PUSH2 0x35A8 JUMP JUMPDEST PUSH1 0x0 DUP1 PUSH2 0x2ADE DUP4 PUSH2 0x2C0E JUMP JUMPDEST PUSH1 0x1 SWAP2 DUP3 SIGNEXTEND PUSH1 0x0 SWAP1 DUP2 MSTORE PUSH1 0x20 SWAP7 SWAP1 SWAP7 MSTORE PUSH1 0x40 SWAP1 SWAP6 KECCAK256 DUP1 SLOAD PUSH1 0xFF SWAP1 SWAP7 AND SWAP2 SWAP1 SWAP2 SHL SWAP1 SWAP5 OR SWAP1 SWAP4 SSTORE POP POP POP JUMP JUMPDEST PUSH1 0x0 DUP1 PUSH1 0x0 DUP5 PUSH1 0x2 SIGNEXTEND SLT PUSH2 0x2B20 JUMPI DUP4 PUSH1 0x2 SIGNEXTEND PUSH2 0x2B2D JUMP JUMPDEST DUP4 PUSH1 0x2 SIGNEXTEND PUSH2 0x2B2D SWAP1 PUSH2 0x377E JUMP JUMPDEST SWAP1 POP PUSH3 0x6A9E0 DUP2 GT ISZERO PUSH2 0x2B9C JUMPI PUSH1 0x40 MLOAD PUSH32 0x8C379A000000000000000000000000000000000000000000000000000000000 DUP2 MSTORE PUSH1 0x20 PUSH1 0x4 DUP3 ADD MSTORE PUSH1 0x1 PUSH1 0x24 DUP3 ADD MSTORE PUSH32 0x5400000000000000000000000000000000000000000000000000000000000000 PUSH1 0x44 DUP3 ADD MSTORE PUSH1 0x64 ADD PUSH2 0x69C JUMP JUMPDEST DUP3 PUSH1 0x0 SUB PUSH2 0x2BBE JUMPI PUSH2 0x2BB7 PUSH9 0x100068DB8BAC710CB DUP3 PUSH2 0x30A0 JUMP JUMPDEST SWAP2 POP PUSH2 0x2BEF JUMP JUMPDEST DUP3 PUSH1 0x1 SUB PUSH2 0x2BD9 JUMPI PUSH2 0x2BB7 PUSH9 0x1004189374BC6A7EF DUP3 PUSH2 0x30A0 JUMP JUMPDEST PUSH2 0x2BEC PUSH9 0x1028F5C28F5C28F5C DUP3 PUSH2 0x30A0 JUMP JUMPDEST SWAP2 POP JUMPDEST PUSH1 0x0 DUP5 PUSH1 0x2 SIGNEXTEND SLT ISZERO PUSH2 0x2C07 JUMPI PUSH2 0x2C04 DUP3 PUSH2 0x1CDF JUMP JUMPDEST SWAP2 POP JUMPDEST POP SWAP3 SWAP2 POP POP JUMP JUMPDEST PUSH1 0x2 DUP2 SWAP1 SIGNEXTEND PUSH1 0x8 SAR PUSH1 0x0 PUSH2 0x2C24 PUSH2 0x100 DUP5 PUSH2 0x37B6 JUMP JUMPDEST SWAP1 POP SWAP2 POP SWAP2 JUMP JUMPDEST PUSH1 0x0 DUP1 PUSH2 0x2C40 PUSH2 0x2C3A DUP7 PUSH2 0x37D8 JUMP JUMPDEST DUP6 PUSH2 0x2B09 JUMP JUMPDEST SWAP1 POP PUSH2 0x2C4C DUP2 DUP5 PUSH2 0x1D62 JUMP JUMPDEST SWAP2 POP DUP3 PUSH2 0x2C5A DUP7 DUP7 DUP6 PUSH2 0x1C03 JUMP JUMPDEST LT ISZERO PUSH2 0x2C69 JUMPI PUSH2 0x1C1C DUP3 PUSH2 0x3632 JUMP JUMPDEST POP SWAP4 SWAP3 POP POP POP JUMP JUMPDEST PUSH1 0x0 DUP1 DUP3 GT PUSH2 0x2C7F JUMPI PUSH1 0x0 DUP1 REVERT JUMPDEST POP PUSH1 0xFF PUSH16 0xFFFFFFFFFFFFFFFFFFFFFFFFFFFFFFFF DUP3 AND ISZERO PUSH2 0x2CAC JUMPI PUSH2 0x2CA5 PUSH1 0x80 DUP3 PUSH2 0x36AB JUMP JUMPDEST SWAP1 POP PUSH2 0x2CB4 JUMP JUMPDEST PUSH1 0x80 DUP3 SWAP1 SHR SWAP2 POP JUMPDEST PUSH8 0xFFFFFFFFFFFFFFFF DUP3 AND ISZERO PUSH2 0x2CD6 JUMPI PUSH2 0x2CCF PUSH1 0x40 DUP3 PUSH2 0x36AB JUMP JUMPDEST SWAP1 POP PUSH2 0x2CDE JUMP JUMPDEST PUSH1 0x40 DUP3 SWAP1 SHR SWAP2 POP JUMPDEST PUSH4 0xFFFFFFFF DUP3 AND ISZERO PUSH2 0x2CFC JUMPI PUSH2 0x2CF5 PUSH1 0x20 DUP3 PUSH2 0x36AB JUMP JUMPDEST SWAP1 POP PUSH2 0x2D04 JUMP JUMPDEST PUSH1 0x20 DUP3 SWAP1 SHR SWAP2 POP JUMPDEST PUSH2 0xFFFF DUP3 AND ISZERO PUSH2 0x2D20 JUMPI PUSH2 0x2D19 PUSH1 0x10 DUP3 PUSH2 0x36AB JUMP JUMPDEST SWAP1 POP PUSH2 0x2D28 JUMP JUMPDEST PUSH1 0x10 DUP3 SWAP1 SHR SWAP2 POP JUMPDEST PUSH1 0xFF DUP3 AND ISZERO PUSH2 0x2D43 JUMPI PUSH2 0x2D3C PUSH1 0x8 DUP3 PUSH2 0x36AB JUMP JUMPDEST SWAP1 POP PUSH2 0x2D4B JUMP JUMPDEST PUSH1 0x8 DUP3 SWAP1 SHR SWAP2 POP JUMPDEST PUSH1 0xF DUP3 AND ISZERO PUSH2 0x2D66 JUMPI PUSH2 0x2D5F PUSH1 0x4 DUP3 PUSH2 0x36AB JUMP JUMPDEST SWAP1 POP PUSH2 0x2D6E JUMP JUMPDEST PUSH1 0x4 DUP3 SWAP1 SHR SWAP2 POP JUMPDEST PUSH1 0x3 DUP3 AND ISZERO PUSH2 0x2D89 JUMPI PUSH2 0x2D82 PUSH1 0x2 DUP3 PUSH2 0x36AB JUMP JUMPDEST SWAP1 POP PUSH2 0x2D91 JUMP JUMPDEST PUSH1 0x2 DUP3 SWAP1 SHR SWAP2 POP JUMPDEST PUSH1 0x1 DUP3 AND ISZERO PUSH2 0x2DA8 JUMPI PUSH2 0x2DA5 PUSH1 0x1 DUP3 PUSH2 0x36AB JUMP JUMPDEST SWAP1 POP JUMPDEST SWAP2 SWAP1 POP JUMP JUMPDEST PUSH1 0x0 DUP2 PUSH1 0x0 SUB PUSH2 0x2DBC JUMPI PUSH1 0x0 DUP1 REVERT JUMPDEST PUSH1 0x0 PUSH24 0xFFFFFFFFFFFFFFFFFFFFFFFFFFFFFFFFFFFFFFFFFFFFFFFF DUP5 GT PUSH2 0x2DF8 JUMPI DUP3 PUSH1 0x40 DUP6 SWAP1 SHL DUP2 PUSH2 0x2DF0 JUMPI PUSH2 0x2DF0 PUSH2 0x35EF JUMP JUMPDEST DIV SWAP1 POP PUSH2 0x2F21 JUMP JUMPDEST PUSH1 0xC0 DUP5 DUP2 SHR PUSH5 0x100000000 DUP2 LT PUSH2 0x2E11 JUMPI PUSH1 0x20 SWAP2 DUP3 ADD SWAP2 SHR JUMPDEST PUSH3 0x10000 DUP2 LT PUSH2 0x2E23 JUMPI PUSH1 0x10 SWAP2 DUP3 ADD SWAP2 SHR JUMPDEST PUSH2 0x100 DUP2 LT PUSH2 0x2E34 JUMPI PUSH1 0x8 SWAP2 DUP3 ADD SWAP2 SHR JUMPDEST PUSH1 0x10 DUP2 LT PUSH2 0x2E44 JUMPI PUSH1 0x4 SWAP2 DUP3 ADD SWAP2 SHR JUMPDEST PUSH1 0x4 DUP2 LT PUSH2 0x2E54 JUMPI PUSH1 0x2 SWAP2 DUP3 ADD SWAP2 SHR JUMPDEST PUSH1 0x2 DUP2 LT PUSH2 0x2E63 JUMPI PUSH1 0x1 DUP3 ADD SWAP2 POP JUMPDEST PUSH1 0xBF DUP3 SUB PUSH1 0x1 DUP7 SUB SWAP1 SHR PUSH1 0x1 ADD DUP3 PUSH1 0xFF SUB DUP8 SWAP1 SHL DUP2 PUSH2 0x2E84 JUMPI PUSH2 0x2E84 PUSH2 0x35EF JUMP JUMPDEST DIV SWAP3 POP PUSH16 0xFFFFFFFFFFFFFFFFFFFFFFFFFFFFFFFF DUP4 GT ISZERO PUSH2 0x2EA4 JUMPI PUSH1 0x0 DUP1 REVERT JUMPDEST PUSH1 0x80 DUP6 SWAP1 SHR DUP4 MUL PUSH16 0xFFFFFFFFFFFFFFFFFFFFFFFFFFFFFFFF DUP7 AND DUP5 MUL PUSH1 0xC0 DUP9 SWAP1 SHR PUSH1 0x40 DUP10 SWAP1 SHL DUP3 DUP2 LT ISZERO PUSH2 0x2ED9 JUMPI PUSH1 0x1 DUP3 SUB SWAP2 POP JUMPDEST PUSH1 0x80 DUP5 SWAP1 SHL SWAP3 SWAP1 SUB DUP3 DUP2 LT ISZERO PUSH2 0x2EF0 JUMPI PUSH1 0x1 DUP3 SUB SWAP2 POP JUMPDEST DUP3 SWAP1 SUB PUSH1 0x80 DUP5 SWAP1 SHR DUP3 EQ PUSH2 0x2F06 JUMPI PUSH2 0x2F06 PUSH2 0x3816 JUMP JUMPDEST DUP9 DUP2 DUP2 PUSH2 0x2F15 JUMPI PUSH2 0x2F15 PUSH2 0x35EF JUMP JUMPDEST DIV DUP8 ADD SWAP7 POP POP POP POP POP POP POP JUMPDEST PUSH16 0xFFFFFFFFFFFFFFFFFFFFFFFFFFFFFFFF DUP2 GT ISZERO PUSH2 0x1CD6 JUMPI PUSH1 0x0 DUP1 REVERT JUMPDEST PUSH1 0x0 PUSH1 0xF DUP4 DUP2 SIGNEXTEND SWAP1 DUP4 SWAP1 SIGNEXTEND MUL PUSH1 0x40 SAR PUSH32 0xFFFFFFFFFFFFFFFFFFFFFFFFFFFFFFFF80000000000000000000000000000000 DUP2 SLT DUP1 ISZERO SWAP1 PUSH2 0x1CCD JUMPI POP PUSH16 0x7FFFFFFFFFFFFFFFFFFFFFFFFFFFFFFF DUP2 SGT ISZERO PUSH2 0x1CD6 JUMPI PUSH1 0x0 DUP1 REVERT JUMPDEST PUSH1 0x40 DUP1 MLOAD ADDRESS PUSH1 0x24 DUP1 DUP4 ADD SWAP2 SWAP1 SWAP2 MSTORE DUP3 MLOAD DUP1 DUP4 SUB SWAP1 SWAP2 ADD DUP2 MSTORE PUSH1 0x44 SWAP1 SWAP2 ADD DUP3 MSTORE PUSH1 0x20 DUP2 ADD DUP1 MLOAD PUSH28 0xFFFFFFFFFFFFFFFFFFFFFFFFFFFFFFFFFFFFFFFFFFFFFFFFFFFFFFFF AND PUSH32 0x70A0823100000000000000000000000000000000000000000000000000000000 OR SWAP1 MSTORE SWAP1 MLOAD PUSH1 0x0 SWAP2 DUP3 SWAP2 DUP3 SWAP2 PUSH20 0xFFFFFFFFFFFFFFFFFFFFFFFFFFFFFFFFFFFFFFFF DUP7 AND SWAP2 PUSH2 0x3027 SWAP2 SWAP1 PUSH2 0x3845 JUMP JUMPDEST PUSH1 0x0 PUSH1 0x40 MLOAD DUP1 DUP4 SUB DUP2 DUP6 GAS STATICCALL SWAP2 POP POP RETURNDATASIZE DUP1 PUSH1 0x0 DUP2 EQ PUSH2 0x3062 JUMPI PUSH1 0x40 MLOAD SWAP2 POP PUSH1 0x1F NOT PUSH1 0x3F RETURNDATASIZE ADD AND DUP3 ADD PUSH1 0x40 MSTORE RETURNDATASIZE DUP3 MSTORE RETURNDATASIZE PUSH1 0x0 PUSH1 0x20 DUP5 ADD RETURNDATACOPY PUSH2 0x3067 JUMP JUMPDEST PUSH1 0x60 SWAP2 POP JUMPDEST POP SWAP2 POP SWAP2 POP DUP2 DUP1 ISZERO PUSH2 0x307B JUMPI POP PUSH1 0x20 DUP2 MLOAD LT ISZERO JUMPDEST PUSH2 0x3084 JUMPI PUSH1 0x0 DUP1 REVERT JUMPDEST DUP1 DUP1 PUSH1 0x20 ADD SWAP1 MLOAD DUP2 ADD SWAP1 PUSH2 0x3098 SWAP2 SWAP1 PUSH2 0x3874 JUMP JUMPDEST SWAP5 SWAP4 POP POP POP POP JUMP JUMPDEST PUSH1 0x0 DUP1 PUSH1 0x0 DUP5 PUSH1 0xF SIGNEXTEND SLT DUP1 ISZERO PUSH2 0x30B9 JUMPI POP DUP3 PUSH1 0x1 AND PUSH1 0x1 EQ JUMPDEST SWAP1 POP PUSH1 0x0 DUP1 DUP6 PUSH1 0xF SIGNEXTEND SLT PUSH2 0x30CD JUMPI DUP5 PUSH2 0x30D2 JUMP JUMPDEST DUP5 PUSH1 0x0 SUB JUMPDEST PUSH16 0xFFFFFFFFFFFFFFFFFFFFFFFFFFFFFFFF AND SWAP1 POP PUSH17 0x100000000000000000000000000000000 PUSH9 0x10000000000000000 DUP3 GT PUSH2 0x3182 JUMPI PUSH1 0x3F DUP3 SWAP1 SHL SWAP2 POP JUMPDEST DUP5 ISZERO PUSH2 0x317A JUMPI PUSH1 0x1 DUP6 AND ISZERO PUSH2 0x3125 JUMPI DUP2 MUL PUSH1 0x7F SHR JUMPDEST SWAP1 DUP1 MUL PUSH1 0x7F SHR SWAP1 PUSH1 0x2 DUP6 AND ISZERO PUSH2 0x313B JUMPI DUP2 MUL PUSH1 0x7F SHR JUMPDEST SWAP1 DUP1 MUL PUSH1 0x7F SHR SWAP1 PUSH1 0x4 DUP6 AND ISZERO PUSH2 0x3151 JUMPI DUP2 MUL PUSH1 0x7F SHR JUMPDEST SWAP1 DUP1 MUL PUSH1 0x7F SHR SWAP1 PUSH1 0x8 DUP6 AND ISZERO PUSH2 0x3167 JUMPI DUP2 MUL PUSH1 0x7F SHR JUMPDEST PUSH1 0x4 SWAP5 SWAP1 SWAP5 SHR SWAP4 SWAP1 DUP1 MUL PUSH1 0x7F SHR SWAP1 PUSH2 0x3110 JUMP JUMPDEST PUSH1 0x40 SHR PUSH2 0x33AA JUMP JUMPDEST PUSH1 0x3F PUSH13 0x1000000000000000000000000 DUP4 LT ISZERO PUSH2 0x31C3 JUMPI PUSH1 0x20 SWAP3 SWAP1 SWAP3 SHL SWAP2 PUSH32 0xFFFFFFFFFFFFFFFFFFFFFFFFFFFFFFFFFFFFFFFFFFFFFFFFFFFFFFFFFFFFFFE0 ADD JUMPDEST PUSH15 0x10000000000000000000000000000 DUP4 LT ISZERO PUSH2 0x3204 JUMPI PUSH1 0x10 SWAP3 SWAP1 SWAP3 SHL SWAP2 PUSH32 0xFFFFFFFFFFFFFFFFFFFFFFFFFFFFFFFFFFFFFFFFFFFFFFFFFFFFFFFFFFFFFFF0 ADD JUMPDEST PUSH16 0x1000000000000000000000000000000 DUP4 LT ISZERO PUSH2 0x3246 JUMPI PUSH1 0x8 SWAP3 SWAP1 SWAP3 SHL SWAP2 PUSH32 0xFFFFFFFFFFFFFFFFFFFFFFFFFFFFFFFFFFFFFFFFFFFFFFFFFFFFFFFFFFFFFFF8 ADD JUMPDEST PUSH16 0x10000000000000000000000000000000 DUP4 LT ISZERO PUSH2 0x3288 JUMPI PUSH1 0x4 SWAP3 SWAP1 SWAP3 SHL SWAP2 PUSH32 0xFFFFFFFFFFFFFFFFFFFFFFFFFFFFFFFFFFFFFFFFFFFFFFFFFFFFFFFFFFFFFFFC ADD JUMPDEST PUSH16 0x40000000000000000000000000000000 DUP4 LT ISZERO PUSH2 0x32CA JUMPI PUSH1 0x2 SWAP3 SWAP1 SWAP3 SHL SWAP2 PUSH32 0xFFFFFFFFFFFFFFFFFFFFFFFFFFFFFFFFFFFFFFFFFFFFFFFFFFFFFFFFFFFFFFFE ADD JUMPDEST PUSH16 0x80000000000000000000000000000000 DUP4 LT ISZERO PUSH2 0x330C JUMPI PUSH1 0x1 SWAP3 SWAP1 SWAP3 SHL SWAP2 PUSH32 0xFFFFFFFFFFFFFFFFFFFFFFFFFFFFFFFFFFFFFFFFFFFFFFFFFFFFFFFFFFFFFFFF ADD JUMPDEST PUSH1 0x0 JUMPDEST DUP7 ISZERO PUSH2 0x3393 JUMPI PUSH1 0x40 DUP3 LT PUSH2 0x3322 JUMPI PUSH1 0x0 DUP1 REVERT JUMPDEST PUSH1 0x1 DUP8 AND ISZERO PUSH2 0x3355 JUMPI SWAP2 DUP4 MUL PUSH1 0x7F SHR SWAP2 DUP2 ADD PUSH17 0x100000000000000000000000000000000 DUP4 GT ISZERO PUSH2 0x3355 JUMPI PUSH1 0x1 SWAP3 DUP4 SHR SWAP3 ADD JUMPDEST SWAP3 DUP1 MUL PUSH1 0x7F SHR SWAP3 PUSH1 0x1 SWAP2 SWAP1 SWAP2 SHL SWAP1 PUSH17 0x100000000000000000000000000000000 DUP5 LT PUSH2 0x3387 JUMPI PUSH1 0x1 SWAP4 DUP5 SHR SWAP4 SWAP2 SWAP1 SWAP2 ADD SWAP1 JUMPDEST PUSH1 0x1 DUP8 SWAP1 SHR SWAP7 POP PUSH2 0x330F JUMP JUMPDEST PUSH1 0x40 DUP2 LT PUSH2 0x33A0 JUMPI PUSH1 0x0 DUP1 REVERT JUMPDEST PUSH1 0x40 SUB SWAP2 SWAP1 SWAP2 SHR SWAP1 POP JUMPDEST PUSH1 0x0 DUP4 PUSH2 0x33B7 JUMPI DUP2 PUSH2 0x33BC JUMP JUMPDEST DUP2 PUSH1 0x0 SUB JUMPDEST SWAP1 POP PUSH32 0xFFFFFFFFFFFFFFFFFFFFFFFFFFFFFFFF80000000000000000000000000000000 DUP2 SLT DUP1 ISZERO SWAP1 PUSH2 0x33FE JUMPI POP PUSH16 0x7FFFFFFFFFFFFFFFFFFFFFFFFFFFFFFF DUP2 SGT ISZERO JUMPDEST PUSH2 0x3407 JUMPI PUSH1 0x0 DUP1 REVERT JUMPDEST SWAP7 SWAP6 POP POP POP POP POP POP JUMP JUMPDEST PUSH20 0xFFFFFFFFFFFFFFFFFFFFFFFFFFFFFFFFFFFFFFFF DUP2 AND DUP2 EQ PUSH2 0x3433 JUMPI PUSH1 0x0 DUP1 REVERT JUMPDEST POP JUMP JUMPDEST PUSH1 0x0 DUP1 PUSH1 0x40 DUP4 DUP6 SUB SLT ISZERO PUSH2 0x3449 JUMPI PUSH1 0x0 DUP1 REVERT JUMPDEST DUP3 CALLDATALOAD SWAP2 POP PUSH1 0x20 DUP4 ADD CALLDATALOAD PUSH2 0x345B DUP2 PUSH2 0x3411 JUMP JUMPDEST DUP1 SWAP2 POP POP SWAP3 POP SWAP3 SWAP1 POP JUMP JUMPDEST PUSH1 0x0 PUSH1 0x20 DUP3 DUP5 SUB SLT ISZERO PUSH2 0x3478 JUMPI PUSH1 0x0 DUP1 REVERT JUMPDEST POP CALLDATALOAD SWAP2 SWAP1 POP JUMP JUMPDEST PUSH1 0x0 DUP1 PUSH1 0x0 PUSH1 0x60 DUP5 DUP7 SUB SLT ISZERO PUSH2 0x3494 JUMPI PUSH1 0x0 DUP1 REVERT JUMPDEST DUP4 CALLDATALOAD SWAP3 POP PUSH1 0x20 DUP5 ADD CALLDATALOAD SWAP2 POP PUSH1 0x40 DUP5 ADD CALLDATALOAD PUSH2 0x34AD DUP2 PUSH2 0x3411 JUMP JUMPDEST DUP1 SWAP2 POP POP SWAP3 POP SWAP3 POP SWAP3 JUMP JUMPDEST DUP1 CALLDATALOAD PUSH1 0x2 DUP2 SWAP1 SIGNEXTEND DUP2 EQ PUSH2 0x2DA8 JUMPI PUSH1 0x0 DUP1 REVERT JUMPDEST PUSH1 0x0 PUSH1 0x20 DUP3 DUP5 SUB SLT ISZERO PUSH2 0x34DC JUMPI PUSH1 0x0 DUP1 REVERT JUMPDEST PUSH2 0x34E5 DUP3 PUSH2 0x34B8 JUMP JUMPDEST SWAP4 SWAP3 POP POP POP JUMP JUMPDEST PUSH1 0x0 PUSH1 0x20 DUP3 DUP5 SUB SLT ISZERO PUSH2 0x34FE JUMPI PUSH1 0x0 DUP1 REVERT JUMPDEST DUP2 CALLDATALOAD DUP1 PUSH1 0x1 SIGNEXTEND DUP2 EQ PUSH2 0x1CD6 JUMPI PUSH1 0x0 DUP1 REVERT JUMPDEST PUSH1 0x0 DUP1 PUSH1 0x0 PUSH1 0x60 DUP5 DUP7 SUB SLT ISZERO PUSH2 0x3524 JUMPI PUSH1 0x0 DUP1 REVERT JUMPDEST DUP4 CALLDATALOAD SWAP3 POP PUSH2 0x3534 PUSH1 0x20 DUP6 ADD PUSH2 0x34B8 JUMP JUMPDEST SWAP2 POP PUSH1 0x40 DUP5 ADD CALLDATALOAD PUSH2 0x34AD DUP2 PUSH2 0x3411 JUMP JUMPDEST PUSH32 0x4E487B7100000000000000000000000000000000000000000000000000000000 PUSH1 0x0 MSTORE PUSH1 0x11 PUSH1 0x4 MSTORE PUSH1 0x24 PUSH1 0x0 REVERT JUMPDEST DUP2 DUP2 SUB DUP2 DUP2 GT ISZERO PUSH2 0x1CD9 JUMPI PUSH2 0x1CD9 PUSH2 0x3544 JUMP JUMPDEST PUSH1 0x0 PUSH1 0x20 DUP3 DUP5 SUB SLT ISZERO PUSH2 0x3598 JUMPI PUSH1 0x0 DUP1 REVERT JUMPDEST DUP2 MLOAD DUP1 ISZERO ISZERO DUP2 EQ PUSH2 0x1CD6 JUMPI PUSH1 0x0 DUP1 REVERT JUMPDEST DUP1 DUP3 ADD DUP1 DUP3 GT ISZERO PUSH2 0x1CD9 JUMPI PUSH2 0x1CD9 PUSH2 0x3544 JUMP JUMPDEST PUSH1 0x0 PUSH1 0x20 DUP3 DUP5 SUB SLT ISZERO PUSH2 0x35CD JUMPI PUSH1 0x0 DUP1 REVERT JUMPDEST DUP2 MLOAD PUSH2 0x1CD6 DUP2 PUSH2 0x3411 JUMP JUMPDEST DUP1 DUP3 MUL DUP2 ISZERO DUP3 DUP3 DIV DUP5 EQ OR PUSH2 0x1CD9 JUMPI PUSH2 0x1CD9 PUSH2 0x3544 JUMP JUMPDEST PUSH32 0x4E487B7100000000000000000000000000000000000000000000000000000000 PUSH1 0x0 MSTORE PUSH1 0x12 PUSH1 0x4 MSTORE PUSH1 0x24 PUSH1 0x0 REVERT JUMPDEST PUSH1 0x0 DUP3 PUSH2 0x362D JUMPI PUSH2 0x362D PUSH2 0x35EF JUMP JUMPDEST POP DIV SWAP1 JUMP JUMPDEST PUSH1 0x0 PUSH32 0xFFFFFFFFFFFFFFFFFFFFFFFFFFFFFFFFFFFFFFFFFFFFFFFFFFFFFFFFFFFFFFFF DUP3 SUB PUSH2 0x3663 JUMPI PUSH2 0x3663 PUSH2 0x3544 JUMP JUMPDEST POP PUSH1 0x1 ADD SWAP1 JUMP JUMPDEST PUSH1 0x2 DUP2 DUP2 SIGNEXTEND SWAP1 DUP4 SWAP1 SIGNEXTEND ADD PUSH3 0x7FFFFF DUP2 SGT PUSH32 0xFFFFFFFFFFFFFFFFFFFFFFFFFFFFFFFFFFFFFFFFFFFFFFFFFFFFFFFFFF800000 DUP3 SLT OR ISZERO PUSH2 0x1CD9 JUMPI PUSH2 0x1CD9 PUSH2 0x3544 JUMP JUMPDEST PUSH1 0xFF DUP3 DUP2 AND DUP3 DUP3 AND SUB SWAP1 DUP2 GT ISZERO PUSH2 0x1CD9 JUMPI PUSH2 0x1CD9 PUSH2 0x3544 JUMP JUMPDEST PUSH32 0x4E487B7100000000000000000000000000000000000000000000000000000000 PUSH1 0x0 MSTORE PUSH1 0x32 PUSH1 0x4 MSTORE PUSH1 0x24 PUSH1 0x0 REVERT JUMPDEST PUSH1 0x0 PUSH1 0xA0 DUP3 ADD DUP8 DUP4 MSTORE PUSH1 0x20 DUP8 DUP2 DUP6 ADD MSTORE PUSH1 0xA0 PUSH1 0x40 DUP6 ADD MSTORE DUP2 DUP8 MLOAD DUP1 DUP5 MSTORE PUSH1 0xC0 DUP7 ADD SWAP2 POP DUP3 DUP10 ADD SWAP4 POP PUSH1 0x0 JUMPDEST DUP2 DUP2 LT ISZERO PUSH2 0x3750 JUMPI DUP5 MLOAD PUSH20 0xFFFFFFFFFFFFFFFFFFFFFFFFFFFFFFFFFFFFFFFF AND DUP4 MSTORE SWAP4 DUP4 ADD SWAP4 SWAP2 DUP4 ADD SWAP2 PUSH1 0x1 ADD PUSH2 0x371E JUMP JUMPDEST POP POP PUSH20 0xFFFFFFFFFFFFFFFFFFFFFFFFFFFFFFFFFFFFFFFF SWAP7 SWAP1 SWAP7 AND PUSH1 0x60 DUP6 ADD MSTORE POP POP POP PUSH1 0x80 ADD MSTORE SWAP4 SWAP3 POP POP POP JUMP JUMPDEST PUSH1 0x0 PUSH32 0x8000000000000000000000000000000000000000000000000000000000000000 DUP3 SUB PUSH2 0x37AF JUMPI PUSH2 0x37AF PUSH2 0x3544 JUMP JUMPDEST POP PUSH1 0x0 SUB SWAP1 JUMP JUMPDEST PUSH1 0x0 DUP3 PUSH1 0x2 SIGNEXTEND DUP1 PUSH2 0x37C9 JUMPI PUSH2 0x37C9 PUSH2 0x35EF JUMP JUMPDEST DUP1 DUP4 PUSH1 0x2 SIGNEXTEND SMOD SWAP2 POP POP SWAP3 SWAP2 POP POP JUMP JUMPDEST PUSH1 0x0 DUP2 PUSH1 0x2 SIGNEXTEND PUSH32 0xFFFFFFFFFFFFFFFFFFFFFFFFFFFFFFFFFFFFFFFFFFFFFFFFFFFFFFFFFF800000 DUP2 SUB PUSH2 0x380D JUMPI PUSH2 0x380D PUSH2 0x3544 JUMP JUMPDEST PUSH1 0x0 SUB SWAP3 SWAP2 POP POP JUMP JUMPDEST PUSH32 0x4E487B7100000000000000000000000000000000000000000000000000000000 PUSH1 0x0 MSTORE PUSH1 0x1 PUSH1 0x4 MSTORE PUSH1 0x24 PUSH1 0x0 REVERT JUMPDEST PUSH1 0x0 DUP3 MLOAD PUSH1 0x0 JUMPDEST DUP2 DUP2 LT ISZERO PUSH2 0x3866 JUMPI PUSH1 0x20 DUP2 DUP7 ADD DUP2 ADD MLOAD DUP6 DUP4 ADD MSTORE ADD PUSH2 0x384C JUMP JUMPDEST POP PUSH1 0x0 SWAP3 ADD SWAP2 DUP3 MSTORE POP SWAP2 SWAP1 POP JUMP JUMPDEST PUSH1 0x0 PUSH1 0x20 DUP3 DUP5 SUB SLT ISZERO PUSH2 0x3886 JUMPI PUSH1 0x0 DUP1 REVERT JUMPDEST POP MLOAD SWAP2 SWAP1 POP JUMP INVALID LOG2 PUSH5 0x6970667358 0x22 SLT KECCAK256 0xB8 0x29 PUSH5 0xC9B9D437F0 LOG3 CHAINID 0xC4 SLOAD 0xE9 MSTORE8 COINBASE PUSH16 0xEC6BA162B17D845A814D090D2465CD92 PUSH5 0x736F6C6343 STOP ADDMOD EQ STOP CALLER LOG2 PUSH5 0x6970667358 0x22 SLT KECCAK256 PUSH10 0xA6668666C81069C4BA0F SWAP16 0x49 CREATE JUMPI 0x4A 0xB2 SWAP16 0x1F DUP13 PUSH0 GASPRICE PUSH18 0x46694E0222463604D764736F6C6343000814 STOP CALLER "},"methodIdentifiers":{"createLimitOrder(address,uint256,int24)":"7788a560","createPair(address,address,uint256)":"6b600d1c","getPair(address,address,uint256)":"5eced480","owner()":"8da5cb5b","pairAddresses(address,address,uint256)":"fc4c96e9","renounceOwnership()":"715018a6","swapExactTokenYForTokenX(address,uint256,uint256)":"426043bf","swapTokenYForExactTokenX(address,uint256,uint256)":"06e5adb3","transferOwnership(address)":"f2fde38b","withdraw(address,uint256)":"f3fef3a3"}}}}}