{
  "_format": "hh-sol-artifact-1",
  "contractName": "PhotonPair",
  "sourceName": "contracts/PhotonPair.sol",
  "abi": [
    {
      "inputs": [
        {
          "internalType": "address",
          "name": "_router",
          "type": "address"
        },
        {
          "internalType": "address",
          "name": "_tokenX",
          "type": "address"
        },
        {
          "internalType": "address",
          "name": "_tokenY",
          "type": "address"
        },
        {
          "internalType": "uint256",
          "name": "_tickMode",
          "type": "uint256"
        }
      ],
      "stateMutability": "nonpayable",
      "type": "constructor"
    },
    {
      "inputs": [],
      "name": "TransferFailed",
      "type": "error"
    },
    {
      "anonymous": false,
      "inputs": [
        {
          "indexed": false,
          "internalType": "uint256",
          "name": "orderId",
          "type": "uint256"
        },
        {
          "indexed": false,
          "internalType": "address",
          "name": "maker",
          "type": "address"
        },
        {
          "indexed": false,
          "internalType": "int24",
          "name": "tick",
          "type": "int24"
        },
        {
          "indexed": false,
          "internalType": "uint256",
          "name": "tokenXAmount",
          "type": "uint256"
        },
        {
          "indexed": false,
          "internalType": "uint256",
          "name": "creationTimestamp",
          "type": "uint256"
        }
      ],
      "name": "OrderCreated",
      "type": "event"
    },
    {
      "anonymous": false,
      "inputs": [
        {
          "indexed": false,
          "internalType": "uint256",
          "name": "orderId",
          "type": "uint256"
        },
        {
          "indexed": false,
          "internalType": "address",
          "name": "maker",
          "type": "address"
        },
        {
          "indexed": false,
          "internalType": "uint256",
          "name": "tokenXAmount",
          "type": "uint256"
        },
        {
          "indexed": false,
          "internalType": "uint256",
          "name": "tokenYAmount",
          "type": "uint256"
        }
      ],
      "name": "OrderWithdrawn",
      "type": "event"
    },
    {
      "anonymous": false,
      "inputs": [
        {
          "indexed": false,
          "internalType": "address",
          "name": "taker",
          "type": "address"
        },
        {
          "indexed": false,
          "internalType": "uint256",
          "name": "tokenXAmount",
          "type": "uint256"
        },
        {
          "indexed": false,
          "internalType": "uint256",
          "name": "tokenYAmount",
          "type": "uint256"
        }
      ],
      "name": "Swap",
      "type": "event"
    },
    {
      "inputs": [],
      "name": "ORDER_ID",
      "outputs": [
        {
          "internalType": "uint256",
          "name": "",
          "type": "uint256"
        }
      ],
      "stateMutability": "view",
      "type": "function"
    },
    {
      "inputs": [
        {
          "internalType": "uint256",
          "name": "tokenXAmount",
          "type": "uint256"
        },
        {
          "internalType": "int24",
          "name": "tick",
          "type": "int24"
        },
        {
          "internalType": "address",
          "name": "maker",
          "type": "address"
        }
      ],
      "name": "createLimitOrder",
      "outputs": [
        {
          "internalType": "uint256",
          "name": "orderId",
          "type": "uint256"
        }
      ],
      "stateMutability": "nonpayable",
      "type": "function"
    },
    {
      "inputs": [],
      "name": "feeTokenXAmountAccumulated",
      "outputs": [
        {
          "internalType": "uint256",
          "name": "",
          "type": "uint256"
        }
      ],
      "stateMutability": "view",
      "type": "function"
    },
    {
      "inputs": [
        {
          "internalType": "uint256",
          "name": "tokenYAmount",
          "type": "uint256"
        }
      ],
      "name": "getExactTokenXForTokenY",
      "outputs": [
        {
          "internalType": "uint256",
          "name": "tokenXAmountOut",
          "type": "uint256"
        }
      ],
      "stateMutability": "view",
      "type": "function"
    },
    {
      "inputs": [
        {
          "internalType": "uint256",
          "name": "tokenXAmount",
          "type": "uint256"
        }
      ],
      "name": "getExactTokenYForTokenX",
      "outputs": [
        {
          "internalType": "uint256",
          "name": "tokenYAmountRequired",
          "type": "uint256"
        }
      ],
      "stateMutability": "view",
      "type": "function"
    },
    {
      "inputs": [
        {
          "internalType": "int24",
          "name": "tick",
          "type": "int24"
        }
      ],
      "name": "getNextInitializedTick",
      "outputs": [
        {
          "internalType": "int24",
          "name": "",
          "type": "int24"
        },
        {
          "internalType": "bool",
          "name": "",
          "type": "bool"
        }
      ],
      "stateMutability": "view",
      "type": "function"
    },
    {
      "inputs": [
        {
          "internalType": "uint256",
          "name": "orderId",
          "type": "uint256"
        }
      ],
      "name": "getOrderInfo",
      "outputs": [
        {
          "components": [
            {
              "internalType": "address",
              "name": "maker",
              "type": "address"
            },
            {
              "internalType": "int24",
              "name": "tick",
              "type": "int24"
            },
            {
              "internalType": "uint128",
              "name": "tickMultiplier",
              "type": "uint128"
            },
            {
              "internalType": "uint256",
              "name": "tokenXAmount",
              "type": "uint256"
            },
            {
              "internalType": "uint256",
              "name": "creationTimestamp",
              "type": "uint256"
            }
          ],
          "internalType": "struct PhotonPair.Order",
          "name": "",
          "type": "tuple"
        }
      ],
      "stateMutability": "view",
      "type": "function"
    },
    {
      "inputs": [
        {
          "internalType": "int24",
          "name": "tick",
          "type": "int24"
        }
      ],
      "name": "getTickBitmap",
      "outputs": [
        {
          "internalType": "uint256",
          "name": "",
          "type": "uint256"
        }
      ],
      "stateMutability": "view",
      "type": "function"
    },
    {
      "inputs": [
        {
          "internalType": "int24",
          "name": "tick",
          "type": "int24"
        }
      ],
      "name": "getTickInfo",
      "outputs": [
        {
          "components": [
            {
              "internalType": "uint256",
              "name": "tokenXAmount",
              "type": "uint256"
            },
            {
              "internalType": "uint256",
              "name": "tokenYAmount",
              "type": "uint256"
            },
            {
              "internalType": "uint256",
              "name": "lastInitializationTimestamp",
              "type": "uint256"
            },
            {
              "internalType": "uint128",
              "name": "multiplier",
              "type": "uint128"
            },
            {
              "internalType": "bool",
              "name": "initialized",
              "type": "bool"
            }
          ],
          "internalType": "struct Tick.Info",
          "name": "",
          "type": "tuple"
        }
      ],
      "stateMutability": "view",
      "type": "function"
    },
    {
      "inputs": [
        {
          "internalType": "uint256",
          "name": "orderId",
          "type": "uint256"
        }
      ],
      "name": "getWithdrawableTokenAmounts",
      "outputs": [
        {
          "internalType": "uint256",
          "name": "tokenXAmountWithdrawable",
          "type": "uint256"
        },
        {
          "internalType": "uint256",
          "name": "tokenYAmountWithdrawable",
          "type": "uint256"
        }
      ],
      "stateMutability": "view",
      "type": "function"
    },
    {
      "inputs": [],
      "name": "lowestTick",
      "outputs": [
        {
          "internalType": "int24",
          "name": "",
          "type": "int24"
        }
      ],
      "stateMutability": "view",
      "type": "function"
    },
    {
      "inputs": [],
      "name": "protocolFee",
      "outputs": [
        {
          "internalType": "uint256",
          "name": "",
          "type": "uint256"
        }
      ],
      "stateMutability": "view",
      "type": "function"
    },
    {
      "inputs": [],
      "name": "router",
      "outputs": [
        {
          "internalType": "address",
          "name": "",
          "type": "address"
        }
      ],
      "stateMutability": "view",
      "type": "function"
    },
    {
      "inputs": [
        {
          "internalType": "uint256",
          "name": "newProtocolFee",
          "type": "uint256"
        },
        {
          "internalType": "uint256",
          "name": "newSwapFeeTokenXAmountAt",
          "type": "uint256"
        },
        {
          "internalType": "address",
          "name": "newTokenXPairedAddress",
          "type": "address"
        }
      ],
      "name": "setProtocolFees",
      "outputs": [],
      "stateMutability": "nonpayable",
      "type": "function"
    },
    {
      "inputs": [
        {
          "internalType": "uint256",
          "name": "tokenYAmount",
          "type": "uint256"
        },
        {
          "internalType": "uint256",
          "name": "minTokenXAmount",
          "type": "uint256"
        },
        {
          "internalType": "address",
          "name": "maker",
          "type": "address"
        }
      ],
      "name": "swapExactTokenYForTokenX",
      "outputs": [],
      "stateMutability": "nonpayable",
      "type": "function"
    },
    {
      "inputs": [],
      "name": "swapFeeTokenXAmountAt",
      "outputs": [
        {
          "internalType": "uint256",
          "name": "",
          "type": "uint256"
        }
      ],
      "stateMutability": "view",
      "type": "function"
    },
    {
      "inputs": [
        {
          "internalType": "uint256",
          "name": "tokenXAmount",
          "type": "uint256"
        },
        {
          "internalType": "uint256",
          "name": "maxTokenYAmount",
          "type": "uint256"
        },
        {
          "internalType": "address",
          "name": "maker",
          "type": "address"
        }
      ],
      "name": "swapTokenYForExactTokenX",
      "outputs": [],
      "stateMutability": "nonpayable",
      "type": "function"
    },
    {
      "inputs": [
        {
          "internalType": "int16",
          "name": "",
          "type": "int16"
        }
      ],
      "name": "tickBitmap",
      "outputs": [
        {
          "internalType": "uint256",
          "name": "",
          "type": "uint256"
        }
      ],
      "stateMutability": "view",
      "type": "function"
    },
    {
      "inputs": [],
      "name": "tickMode",
      "outputs": [
        {
          "internalType": "uint256",
          "name": "",
          "type": "uint256"
        }
      ],
      "stateMutability": "view",
      "type": "function"
    },
    {
      "inputs": [
        {
          "internalType": "int24",
          "name": "",
          "type": "int24"
        }
      ],
      "name": "ticks",
      "outputs": [
        {
          "internalType": "uint256",
          "name": "tokenXAmount",
          "type": "uint256"
        },
        {
          "internalType": "uint256",
          "name": "tokenYAmount",
          "type": "uint256"
        },
        {
          "internalType": "uint256",
          "name": "lastInitializationTimestamp",
          "type": "uint256"
        },
        {
          "internalType": "uint128",
          "name": "multiplier",
          "type": "uint128"
        },
        {
          "internalType": "bool",
          "name": "initialized",
          "type": "bool"
        }
      ],
      "stateMutability": "view",
      "type": "function"
    },
    {
      "inputs": [],
      "name": "tokenX",
      "outputs": [
        {
          "internalType": "address",
          "name": "",
          "type": "address"
        }
      ],
      "stateMutability": "view",
      "type": "function"
    },
    {
      "inputs": [],
      "name": "tokenXPairedAddress",
      "outputs": [
        {
          "internalType": "address",
          "name": "",
          "type": "address"
        }
      ],
      "stateMutability": "view",
      "type": "function"
    },
    {
      "inputs": [],
      "name": "tokenY",
      "outputs": [
        {
          "internalType": "address",
          "name": "",
          "type": "address"
        }
      ],
      "stateMutability": "view",
      "type": "function"
    },
    {
      "inputs": [
        {
          "internalType": "uint256",
          "name": "orderId",
          "type": "uint256"
        },
        {
          "internalType": "address",
          "name": "maker",
          "type": "address"
        }
      ],
      "name": "withdraw",
      "outputs": [],
      "stateMutability": "nonpayable",
      "type": "function"
    }
  ],
  "bytecode": "0x6101206040523480156200001257600080fd5b5060405162003a7338038062003a7383398101604081905262000035916200007f565b6001600055306080526001600160a01b0393841660a05291831660c05290911660e05261010052620000d1565b80516001600160a01b03811681146200007a57600080fd5b919050565b600080600080608085870312156200009657600080fd5b620000a18562000062565b9350620000b16020860162000062565b9250620000c16040860162000062565b6060959095015193969295505050565b60805160a05160c05160e051610100516138c3620001b0600039600081816101ee015281816107e8015281816108ed01528181610c5b01528181610e2401528181610f6e015281816112cb015281816117ed01526118c60152600081816103d801528181610a9f01526114e201526000818161021501528181610989015281816110b50152818161142001528181612334015281816124d4015281816125fa015261275c015260008181610612015281816106ca01528181610cdf01528181610f2f0152818161128001526119a001526000611bd701526138c36000f3fe608060405234801561001057600080fd5b50600436106101975760003560e01c8063a0bf0e22116100e3578063d311636b1161008c578063e785b7ec11610066578063e785b7ec14610568578063f30dba9314610571578063f887ea401461060d57600080fd5b8063d311636b146103fa578063d449887c1461052d578063de5879931461055557600080fd5b8063b0e21e8a116100bd578063b0e21e8a14610361578063b648a2b41461036a578063b7d19fc4146103d357600080fd5b8063a0bf0e221461030e578063a60b46231461032e578063ab103f691461034e57600080fd5b806322163ac0116101455780635339c2961161011f5780635339c296146102c857806358abfa59146102e85780639da6e8a8146102fb57600080fd5b806322163ac01461025c5780632886ae291461026f5780633c1ec29c1461029c57600080fd5b80630ebe7474116101765780630ebe7474146101e057806313643b4e146101e957806316dc165b1461021057600080fd5b8062f714ce1461019c5780630b29d055146101b15780630d0164be146101cd575b600080fd5b6101af6101aa366004613436565b610634565b005b6101ba60025481565b6040519081526020015b60405180910390f35b6101ba6101db366004613466565b610c45565b6101ba60055481565b6101ba7f000000000000000000000000000000000000000000000000000000000000000081565b6102377f000000000000000000000000000000000000000000000000000000000000000081565b60405173ffffffffffffffffffffffffffffffffffffffff90911681526020016101c4565b6101af61026a36600461347f565b610cdd565b61028261027d3660046134ca565b610df2565b6040805160029390930b83529015156020830152016101c4565b6101ba6102aa3660046134ca565b60020b600890811d60010b6000908152602091909152604090205490565b6101ba6102d63660046134ec565b60086020526000908152604090205481565b6101ba6102f6366004613466565b610e0e565b6101af61030936600461347f565b610e9e565b60065461031b9060020b81565b60405160029190910b81526020016101c4565b6004546102379073ffffffffffffffffffffffffffffffffffffffff1681565b6101af61035c36600461347f565b6111ef565b6101ba60015481565b61037d6103783660046134ca565b61165f565b6040516101c49190600060a0820190508251825260208301516020830152604083015160408301526fffffffffffffffffffffffffffffffff606084015116606083015260808301511515608083015292915050565b6102377f000000000000000000000000000000000000000000000000000000000000000081565b6104c0610408366004613466565b6040805160a08101825260008082526020820181905291810182905260608101829052608081019190915250600090815260096020908152604091829020825160a081018452815473ffffffffffffffffffffffffffffffffffffffff81168252740100000000000000000000000000000000000000009004600290810b9382019390935260018201546fffffffffffffffffffffffffffffffff169381019390935290810154606083015260030154608082015290565b6040516101c49190600060a08201905073ffffffffffffffffffffffffffffffffffffffff8351168252602083015160020b60208301526fffffffffffffffffffffffffffffffff6040840151166040830152606083015160608301526080830151608083015292915050565b61054061053b366004613466565b61171f565b604080519283526020830191909152016101c4565b6101ba61056336600461350f565b61190d565b6101ba60035481565b6105d161057f3660046134ca565b6007602052600090815260409020805460018201546002830154600390930154919290916fffffffffffffffffffffffffffffffff811690700100000000000000000000000000000000900460ff1685565b604080519586526020860194909452928401919091526fffffffffffffffffffffffffffffffff1660608301521515608082015260a0016101c4565b6102377f000000000000000000000000000000000000000000000000000000000000000081565b6002600054036106a5576040517f08c379a000000000000000000000000000000000000000000000000000000000815260206004820152601f60248201527f5265656e7472616e637947756172643a207265656e7472616e742063616c6c0060448201526064015b60405180910390fd5b60026000556106b2611bbf565b3373ffffffffffffffffffffffffffffffffffffffff7f000000000000000000000000000000000000000000000000000000000000000016146106f457600080fd5b600082815260096020908152604091829020825160a081018452815473ffffffffffffffffffffffffffffffffffffffff80821680845274010000000000000000000000000000000000000000909204600290810b9584019590955260018401546fffffffffffffffffffffffffffffffff169583019590955292820154606082015260039091015460808201529183161461078f57600080fd5b602081810151600281900b60009081526007909252604082206003810154919290918190700100000000000000000000000000000000900460ff1615806107dd575084608001518360020154115b1561084457610811847f00000000000000000000000000000000000000000000000000000000000000008760600151611c03565b6003840154909150700100000000000000000000000000000000900460ff1661083f5761083f600885611c25565b610931565b604085015160038401546fffffffffffffffffffffffffffffffff90811691161461092957600085604001516fffffffffffffffffffffffffffffffff166000146108b657600384015460408701516108af916fffffffffffffffffffffffffffffffff1690611c5d565b90506108cf565b5060038301546fffffffffffffffffffffffffffffffff165b6108e56108db82611cdf565b8760600151611d62565b9250610921857f000000000000000000000000000000000000000000000000000000000000000085896060015161091c9190613573565b611c03565b915050610931565b846060015191505b60008215610a2e57506040517fa9059cbb00000000000000000000000000000000000000000000000000000000815273ffffffffffffffffffffffffffffffffffffffff8781166004830152602482018490526001917f00000000000000000000000000000000000000000000000000000000000000009091169063a9059cbb906044016020604051808303816000875af11580156109d4573d6000803e3d6000fd5b505050506040513d601f19601f820116820180604052508101906109f89190613586565b610a2e576040517f90b8ec1800000000000000000000000000000000000000000000000000000000815260040160405180910390fd5b8115610b42578215801590610a465750836001015482115b15610a5357836001015491505b6040517fa9059cbb00000000000000000000000000000000000000000000000000000000815273ffffffffffffffffffffffffffffffffffffffff8881166004830152602482018490527f0000000000000000000000000000000000000000000000000000000000000000169063a9059cbb906044016020604051808303816000875af1158015610ae8573d6000803e3d6000fd5b505050506040513d601f19601f82011682018060405250810190610b0c9190613586565b610b42576040517f90b8ec1800000000000000000000000000000000000000000000000000000000815260040160405180910390fd5b8015610b6f576000610b5960078786866001611de7565b5090508015610b6d57610b6d600887611c25565b505b6040805189815273ffffffffffffffffffffffffffffffffffffffff89166020820152908101849052606081018390527f616c1a48251783c1991327a440dc37ba9d472f4811cc32147178eeb2876378f49060800160405180910390a150505060009485525050600960205250506040812080547fffffffffffffffffff0000000000000000000000000000000000000000000000168155600180820180547fffffffffffffffffffffffffffffffff000000000000000000000000000000001690556002820183905560039091018290559055565b6000808211610c5357600080fd5b60065460020b7f000000000000000000000000000000000000000000000000000000000000000060015b8415610cd5578015610cb957600080610c99600786868a611fac565b9092509050610ca88188613573565b9650610cb482876135a8565b955050505b8415610cd057610cca600884612007565b90935090505b610c7d565b505050919050565b7f000000000000000000000000000000000000000000000000000000000000000073ffffffffffffffffffffffffffffffffffffffff16638da5cb5b6040518163ffffffff1660e01b8152600401602060405180830381865afa158015610d48573d6000803e3d6000fd5b505050506040513d601f19601f82011682018060405250810190610d6c91906135bb565b73ffffffffffffffffffffffffffffffffffffffff163373ffffffffffffffffffffffffffffffffffffffff1614610da357600080fd5b600192909255600355600480547fffffffffffffffffffffffff00000000000000000000000000000000000000001673ffffffffffffffffffffffffffffffffffffffff909216919091179055565b6000808080610e02600886612007565b90969095509350505050565b6000808211610e1c57600080fd5b60065460020b7f000000000000000000000000000000000000000000000000000000000000000060015b8415610cd5578015610e8257600080610e62600786868a6120be565b9092509050610e718188613573565b9650610e7d82876135a8565b955050505b8415610e9957610e93600884612007565b90935090505b610e46565b600260005403610f0a576040517f08c379a000000000000000000000000000000000000000000000000000000000815260206004820152601f60248201527f5265656e7472616e637947756172643a207265656e7472616e742063616c6c00604482015260640161069c565b6002600055610f17611bbf565b3373ffffffffffffffffffffffffffffffffffffffff7f00000000000000000000000000000000000000000000000000000000000000001614610f5957600080fd5b60008311610f6657600080fd5b60065460020b7f000000000000000000000000000000000000000000000000000000000000000060016000865b80156110005760008315610fd85760008080610fb260078a8a88612110565b91955085945092509050610fc68186613573565b9450610fd282876135a8565b95505050505b6000821180610fe45750805b15610ffa57610ff4600887612007565b90965093505b50610f93565b8682101561100d57600080fd5b600154801561106957600061271061102583866135d8565b61102f919061361e565b905061103b8185613573565b9350806002600082825461104f91906135a8565b909155505060035460025410611067576110676122d9565b505b6040517fa9059cbb00000000000000000000000000000000000000000000000000000000815273ffffffffffffffffffffffffffffffffffffffff8881166004830152602482018590527f0000000000000000000000000000000000000000000000000000000000000000169063a9059cbb906044016020604051808303816000875af11580156110fe573d6000803e3d6000fd5b505050506040513d601f19601f820116820180604052508101906111229190613586565b611158576040517f90b8ec1800000000000000000000000000000000000000000000000000000000815260040160405180910390fd5b600680547fffffffffffffffffffffffffffffffffffffffffffffffffffffffffff0000001662ffffff88161790556040805173ffffffffffffffffffffffffffffffffffffffff89168152602081018590529081018a90527f77f92a1b6a1a11de8ca49515ad4c1fad45632dd3442167d74b90b304a3c7a758906060015b60405180910390a15050600160005550505050505050565b60026000540361125b576040517f08c379a000000000000000000000000000000000000000000000000000000000815260206004820152601f60248201527f5265656e7472616e637947756172643a207265656e7472616e742063616c6c00604482015260640161069c565b6002600055611268611bbf565b3373ffffffffffffffffffffffffffffffffffffffff7f000000000000000000000000000000000000000000000000000000000000000016146112aa57600080fd5b6000831180156112ba5750600082115b6112c357600080fd5b60065460020b7f000000000000000000000000000000000000000000000000000000000000000060016000865b6000811180156112ff57508682105b1561136b5760008315611343576000808061131d60078a8a8861292b565b919550859450925090506113318186613573565b945061133d82876135a8565b95505050505b600082118061134f5750805b156113655761135f600887612007565b90965093505b506112f0565b8682111561137857600080fd5b60015480156113d4576000612710611390838c6135d8565b61139a919061361e565b90506113a6818b613573565b995080600260008282546113ba91906135a8565b9091555050600354600254106113d2576113d26122d9565b505b6040517fa9059cbb00000000000000000000000000000000000000000000000000000000815273ffffffffffffffffffffffffffffffffffffffff8881166004830152602482018b90527f0000000000000000000000000000000000000000000000000000000000000000169063a9059cbb906044016020604051808303816000875af1158015611469573d6000803e3d6000fd5b505050506040513d601f19601f8201168201806040525081019061148d9190613586565b6114c3576040517f90b8ec1800000000000000000000000000000000000000000000000000000000815260040160405180910390fd5b878310156115dc5773ffffffffffffffffffffffffffffffffffffffff7f00000000000000000000000000000000000000000000000000000000000000001663a9059cbb88611512868c613573565b6040517fffffffff0000000000000000000000000000000000000000000000000000000060e085901b16815273ffffffffffffffffffffffffffffffffffffffff909216600483015260248201526044016020604051808303816000875af1158015611582573d6000803e3d6000fd5b505050506040513d601f19601f820116820180604052508101906115a69190613586565b6115dc576040517f90b8ec1800000000000000000000000000000000000000000000000000000000815260040160405180910390fd5b600680547fffffffffffffffffffffffffffffffffffffffffffffffffffffffffff0000001662ffffff88161790556040805173ffffffffffffffffffffffffffffffffffffffff89168152602081018b90529081018490527f77f92a1b6a1a11de8ca49515ad4c1fad45632dd3442167d74b90b304a3c7a758906060016111d7565b6116a56040518060a0016040528060008152602001600081526020016000815260200160006fffffffffffffffffffffffffffffffff1681526020016000151581525090565b50600290810b600090815260076020908152604091829020825160a0810184528154815260018201549281019290925292830154918101919091526003909101546fffffffffffffffffffffffffffffffff81166060830152700100000000000000000000000000000000900460ff161515608082015290565b6000818152600960209081526040808320815160a081018352815473ffffffffffffffffffffffffffffffffffffffff81168252740100000000000000000000000000000000000000009004600290810b82860181905260018401546fffffffffffffffffffffffffffffffff1683860152908301546060830152600392830154608083015280865260079094529184209081015484939190700100000000000000000000000000000000900460ff1615806117e2575082608001518160020154115b1561181d57611816827f00000000000000000000000000000000000000000000000000000000000000008560600151611c03565b9350611905565b604083015160038201546fffffffffffffffffffffffffffffffff9081169116146118fd57600083604001516fffffffffffffffffffffffffffffffff1660001461188f5760038201546040850151611888916fffffffffffffffffffffffffffffffff1690611c5d565b90506118a8565b5060038101546fffffffffffffffffffffffffffffffff165b6118be6118b482611cdf565b8560600151611d62565b95506118f5837f000000000000000000000000000000000000000000000000000000000000000088876060015161091c9190613573565b945050611905565b826060015194505b505050915091565b600060026000540361197b576040517f08c379a000000000000000000000000000000000000000000000000000000000815260206004820152601f60248201527f5265656e7472616e637947756172643a207265656e7472616e742063616c6c00604482015260640161069c565b6002600055611988611bbf565b3373ffffffffffffffffffffffffffffffffffffffff7f000000000000000000000000000000000000000000000000000000000000000016146119ca57600080fd5b6005600081546119d990613632565b918290555090506000806119f1600786888480611de7565b915091508115611a0657611a06600886612ad2565b6040805160a08101825273ffffffffffffffffffffffffffffffffffffffff8087168252600288810b60208085018281526fffffffffffffffffffffffffffffffff808916878901908152606088018f81524260808a0190815260008e815260099096529990942097518854935162ffffff1674010000000000000000000000000000000000000000027fffffffffffffffffff00000000000000000000000000000000000000000000009094169716969096179190911786559351600186018054919095167fffffffffffffffffffffffffffffffff0000000000000000000000000000000090911617909355915183820155925160039092019190915560065490910b1380611b175750826001145b15611b4c57600680547fffffffffffffffffffffffffffffffffffffffffffffffffffffffffff0000001662ffffff87161790555b6040805184815273ffffffffffffffffffffffffffffffffffffffff86166020820152600287900b818301526060810188905242608082015290517f3c61a67dd305a7c76115dd89d98ee4604dd445f426a7ac1858b2ce4e58d51d489181900360a00190a1505060016000559392505050565b3073ffffffffffffffffffffffffffffffffffffffff7f00000000000000000000000000000000000000000000000000000000000000001614611c0157600080fd5b565b600080611c108585612b09565b9050611c1c8184611d62565b95945050505050565b600080611c3183612c0e565b600191820b60009081526020969096526040909520805460ff9096169190911b19909416909355505050565b600081600f0b600003611c6f57600080fd5b600082600f0b604085600f0b901b81611c8a57611c8a6135ef565b0590507fffffffffffffffffffffffffffffffff800000000000000000000000000000008112801590611ccd57506f7fffffffffffffffffffffffffffffff8113155b611cd657600080fd5b90505b92915050565b600081600f0b600003611cf157600080fd5b600082600f0b70010000000000000000000000000000000081611d1657611d166135ef565b0590507fffffffffffffffffffffffffffffffff800000000000000000000000000000008112801590611d5957506f7fffffffffffffffffffffffffffffff8113155b611cd957600080fd5b600081600003611d7457506000611cd9565b600083600f0b1215611d8557600080fd5b600f83900b6fffffffffffffffffffffffffffffffff8316810260401c90608084901c0277ffffffffffffffffffffffffffffffffffffffffffffffff811115611dce57600080fd5b60401b8119811115611ddf57600080fd5b019392505050565b60008084600003611df757600080fd5b600286900b600090815260208890526040902080548415611eb65780871115611e7c576040517f08c379a000000000000000000000000000000000000000000000000000000000815260206004820152600160248201527f4500000000000000000000000000000000000000000000000000000000000000604482015260640161069c565b86826000016000828254611e909190613573565b9250508190555085826001016000828254611eab9190613573565b90915550611ed09050565b86826000016000828254611eca91906135a8565b90915550505b80600003611f24576003820180547fffffffffffffffffffffffffffffff00ffffffffffffffffffffffffffffffff1670010000000000000000000000000000000017905542600283015560019350611f86565b848015611f3057508087145b15611f8657600288810b600090815260208b90526040812081815560018082018390559281019190915560030180547fffffffffffffffffffffffffffffff000000000000000000000000000000000016905593505b506003015491976fffffffffffffffffffffffffffffffff909216965090945050505050565b600283900b6000908152602085905260408120548190808203611fd6576000809250925050611ffe565b611fe1868686612c2b565b925080831115611fef578092505b611ffa868685611c03565b9150505b94509492505050565b600080808061201f61201a86600161366a565b612c0e565b90925090506000612037600160ff841681901b613573565b600184900b6000908152602089905260409020549019908116801515955090915084612085576120688360ff6136ab565b60ff1661207688600161366a565b612080919061366a565b6120b1565b8261208f82612c71565b61209991906136ab565b60ff166120a788600161366a565b6120b1919061366a565b9550505050509250929050565b600283900b60009081526020859052604081205481908082036120e8576000809250925050611ffe565b8084116120f557836120f7565b805b9150612104868684611c03565b92505094509492505050565b600283900b600090815260208590526040812080548291829180830361214257600160008094509450945050506122cf565b61214d888888612c2b565b93508084106121ae57600288810b600090815260208b90526040812081815560018082018390559281019190915560030180547fffffffffffffffffffffffffffffff00000000000000000000000000000000001690559450925082612293565b60006121c3826121be8782613573565b612dad565b60038401549091506fffffffffffffffffffffffffffffffff166000819003612229576003840180547fffffffffffffffffffffffffffffffff00000000000000000000000000000000166fffffffffffffffffffffffffffffffff8416179055612277565b6122338183612f3e565b6003850180547fffffffffffffffffffffffffffffffff00000000000000000000000000000000166fffffffffffffffffffffffffffffffff929092169190911790555b8584600001600082825461228b9190613573565b909155505050505b61229e888886611c03565b9250841580156122ad57508583145b156122cc57828260010160008282546122c691906135a8565b90915550505b50505b9450945094915050565b60025460045473ffffffffffffffffffffffffffffffffffffffff16739c7de7df49c102b133d17b40195947e0fb1784c8146125d55760408051600480825260a08201909252600091602082016080803683370190505090507f000000000000000000000000000000000000000000000000000000000000000081600081518110612366576123666136c4565b73ffffffffffffffffffffffffffffffffffffffff92831660209182029290920101526004548251911690829060019081106123a4576123a46136c4565b602002602001019073ffffffffffffffffffffffffffffffffffffffff16908173ffffffffffffffffffffffffffffffffffffffff1681525050739c7de7df49c102b133d17b40195947e0fb1784c881600281518110612406576124066136c4565b602002602001019073ffffffffffffffffffffffffffffffffffffffff16908173ffffffffffffffffffffffffffffffffffffffff1681525050736c54f2d5167d7b42d809c5a84d936c38c7c25d0f81600381518110612468576124686136c4565b73ffffffffffffffffffffffffffffffffffffffff92831660209182029290920101526040517f095ea7b3000000000000000000000000000000000000000000000000000000008152737a250d5630b4cf539739df2c5dacb4c659f2488d6004820152602481018490527f00000000000000000000000000000000000000000000000000000000000000009091169063095ea7b3906044016020604051808303816000875af115801561251f573d6000803e3d6000fd5b505050506040513d601f19601f820116820180604052508101906125439190613586565b506040517f5c11d795000000000000000000000000000000000000000000000000000000008152737a250d5630b4cf539739df2c5dacb4c659f2488d90635c11d7959061259d9085906000908690309042906004016136f3565b600060405180830381600087803b1580156125b757600080fd5b505af11580156125cb573d6000803e3d6000fd5b5050505050612859565b60408051600380825260808201909252600091602082016060803683370190505090507f00000000000000000000000000000000000000000000000000000000000000008160008151811061262c5761262c6136c4565b602002602001019073ffffffffffffffffffffffffffffffffffffffff16908173ffffffffffffffffffffffffffffffffffffffff1681525050739c7de7df49c102b133d17b40195947e0fb1784c88160018151811061268e5761268e6136c4565b602002602001019073ffffffffffffffffffffffffffffffffffffffff16908173ffffffffffffffffffffffffffffffffffffffff1681525050736c54f2d5167d7b42d809c5a84d936c38c7c25d0f816002815181106126f0576126f06136c4565b73ffffffffffffffffffffffffffffffffffffffff92831660209182029290920101526040517f095ea7b3000000000000000000000000000000000000000000000000000000008152737a250d5630b4cf539739df2c5dacb4c659f2488d6004820152602481018490527f00000000000000000000000000000000000000000000000000000000000000009091169063095ea7b3906044016020604051808303816000875af11580156127a7573d6000803e3d6000fd5b505050506040513d601f19601f820116820180604052508101906127cb9190613586565b506040517f5c11d795000000000000000000000000000000000000000000000000000000008152737a250d5630b4cf539739df2c5dacb4c659f2488d90635c11d795906128259085906000908690309042906004016136f3565b600060405180830381600087803b15801561283f57600080fd5b505af1158015612853573d6000803e3d6000fd5b50505050505b737a250d5630b4cf539739df2c5dacb4c659f2488d63a9059cbb61dead612893736c54f2d5167d7b42d809c5a84d936c38c7c25d0f612f95565b6040517fffffffff0000000000000000000000000000000000000000000000000000000060e085901b16815273ffffffffffffffffffffffffffffffffffffffff909216600483015260248201526044016020604051808303816000875af1158015612903573d6000803e3d6000fd5b505050506040513d601f19601f820116820180604052508101906129279190613586565b5050565b600283900b600090815260208590526040812080548291829180830361295d57600160008094509450945050506122cf565b8592508083106129bf57600288810b600090815260208b90526040812081815560018082018390559281019190915560030180547fffffffffffffffffffffffffffffff00000000000000000000000000000000001690559450915081612a9f565b60006129cf826121be8682613573565b60038401549091506fffffffffffffffffffffffffffffffff166000819003612a35576003840180547fffffffffffffffffffffffffffffffff00000000000000000000000000000000166fffffffffffffffffffffffffffffffff8416179055612a83565b612a3f8183612f3e565b6003850180547fffffffffffffffffffffffffffffffff00000000000000000000000000000000166fffffffffffffffffffffffffffffffff929092169190911790555b84846000016000828254612a979190613573565b909155505050505b612aaa888885611c03565b935084158015612ab957508583145b156122cc57838260010160008282546122c691906135a8565b600080612ade83612c0e565b600191820b60009081526020969096526040909520805460ff9096169190911b909417909355505050565b60008060008460020b12612b20578360020b612b2d565b8360020b612b2d9061377e565b90506206a9e0811115612b9c576040517f08c379a000000000000000000000000000000000000000000000000000000000815260206004820152600160248201527f5400000000000000000000000000000000000000000000000000000000000000604482015260640161069c565b82600003612bbe57612bb7680100068db8bac710cb826130a0565b9150612bef565b82600103612bd957612bb76801004189374bc6a7ef826130a0565b612bec6801028f5c28f5c28f5c826130a0565b91505b60008460020b1215612c0757612c0482611cdf565b91505b5092915050565b600281900b60081d6000612c24610100846137b6565b9050915091565b600080612c40612c3a866137d8565b85612b09565b9050612c4c8184611d62565b915082612c5a868685611c03565b1015612c6957611c1c82613632565b509392505050565b6000808211612c7f57600080fd5b5060ff6fffffffffffffffffffffffffffffffff821615612cac57612ca56080826136ab565b9050612cb4565b608082901c91505b67ffffffffffffffff821615612cd657612ccf6040826136ab565b9050612cde565b604082901c91505b63ffffffff821615612cfc57612cf56020826136ab565b9050612d04565b602082901c91505b61ffff821615612d2057612d196010826136ab565b9050612d28565b601082901c91505b60ff821615612d4357612d3c6008826136ab565b9050612d4b565b600882901c91505b600f821615612d6657612d5f6004826136ab565b9050612d6e565b600482901c91505b6003821615612d8957612d826002826136ab565b9050612d91565b600282901c91505b6001821615612da857612da56001826136ab565b90505b919050565b600081600003612dbc57600080fd5b600077ffffffffffffffffffffffffffffffffffffffffffffffff8411612df85782604085901b81612df057612df06135ef565b049050612f21565b60c084811c6401000000008110612e11576020918201911c5b620100008110612e23576010918201911c5b6101008110612e34576008918201911c5b60108110612e44576004918201911c5b60048110612e54576002918201911c5b60028110612e63576001820191505b60bf820360018603901c6001018260ff0387901b81612e8457612e846135ef565b0492506fffffffffffffffffffffffffffffffff831115612ea457600080fd5b608085901c83026fffffffffffffffffffffffffffffffff8616840260c088901c604089901b82811015612ed9576001820391505b608084901b92900382811015612ef0576001820391505b829003608084901c8214612f0657612f06613816565b888181612f1557612f156135ef565b04870196505050505050505b6fffffffffffffffffffffffffffffffff811115611cd657600080fd5b6000600f83810b9083900b0260401d7fffffffffffffffffffffffffffffffff800000000000000000000000000000008112801590611ccd57506f7fffffffffffffffffffffffffffffff811315611cd657600080fd5b604080513060248083019190915282518083039091018152604490910182526020810180517bffffffffffffffffffffffffffffffffffffffffffffffffffffffff167f70a082310000000000000000000000000000000000000000000000000000000017905290516000918291829173ffffffffffffffffffffffffffffffffffffffff8616916130279190613845565b600060405180830381855afa9150503d8060008114613062576040519150601f19603f3d011682016040523d82523d6000602084013e613067565b606091505b509150915081801561307b57506020815110155b61308457600080fd5b808060200190518101906130989190613874565b949350505050565b600080600084600f0b1280156130b95750826001166001145b905060008085600f0b126130cd57846130d2565b846000035b6fffffffffffffffffffffffffffffffff16905070010000000000000000000000000000000068010000000000000000821161318257603f82901b91505b841561317a576001851615613125578102607f1c5b908002607f1c90600285161561313b578102607f1c5b908002607f1c906004851615613151578102607f1c5b908002607f1c906008851615613167578102607f1c5b60049490941c93908002607f1c90613110565b60401c6133aa565b603f6c010000000000000000000000008310156131c35760209290921b917fffffffffffffffffffffffffffffffffffffffffffffffffffffffffffffffe0015b6e0100000000000000000000000000008310156132045760109290921b917ffffffffffffffffffffffffffffffffffffffffffffffffffffffffffffffff0015b6f010000000000000000000000000000008310156132465760089290921b917ffffffffffffffffffffffffffffffffffffffffffffffffffffffffffffffff8015b6f100000000000000000000000000000008310156132885760049290921b917ffffffffffffffffffffffffffffffffffffffffffffffffffffffffffffffffc015b6f400000000000000000000000000000008310156132ca5760029290921b917ffffffffffffffffffffffffffffffffffffffffffffffffffffffffffffffffe015b6f8000000000000000000000000000000083101561330c5760019290921b917fffffffffffffffffffffffffffffffffffffffffffffffffffffffffffffffff015b60005b8615613393576040821061332257600080fd5b600187161561335557918302607f1c91810170010000000000000000000000000000000083111561335557600192831c92015b928002607f1c9260019190911b90700100000000000000000000000000000000841061338757600193841c9391909101905b600187901c965061330f565b604081106133a057600080fd5b6040039190911c90505b6000836133b757816133bc565b816000035b90507fffffffffffffffffffffffffffffffff8000000000000000000000000000000081128015906133fe57506f7fffffffffffffffffffffffffffffff8113155b61340757600080fd5b9695505050505050565b73ffffffffffffffffffffffffffffffffffffffff8116811461343357600080fd5b50565b6000806040838503121561344957600080fd5b82359150602083013561345b81613411565b809150509250929050565b60006020828403121561347857600080fd5b5035919050565b60008060006060848603121561349457600080fd5b833592506020840135915060408401356134ad81613411565b809150509250925092565b8035600281900b8114612da857600080fd5b6000602082840312156134dc57600080fd5b6134e5826134b8565b9392505050565b6000602082840312156134fe57600080fd5b81358060010b8114611cd657600080fd5b60008060006060848603121561352457600080fd5b83359250613534602085016134b8565b915060408401356134ad81613411565b7f4e487b7100000000000000000000000000000000000000000000000000000000600052601160045260246000fd5b81810381811115611cd957611cd9613544565b60006020828403121561359857600080fd5b81518015158114611cd657600080fd5b80820180821115611cd957611cd9613544565b6000602082840312156135cd57600080fd5b8151611cd681613411565b8082028115828204841417611cd957611cd9613544565b7f4e487b7100000000000000000000000000000000000000000000000000000000600052601260045260246000fd5b60008261362d5761362d6135ef565b500490565b60007fffffffffffffffffffffffffffffffffffffffffffffffffffffffffffffffff820361366357613663613544565b5060010190565b600281810b9083900b01627fffff81137fffffffffffffffffffffffffffffffffffffffffffffffffffffffffff80000082121715611cd957611cd9613544565b60ff8281168282160390811115611cd957611cd9613544565b7f4e487b7100000000000000000000000000000000000000000000000000000000600052603260045260246000fd5b600060a082018783526020878185015260a0604085015281875180845260c086019150828901935060005b8181101561375057845173ffffffffffffffffffffffffffffffffffffffff168352938301939183019160010161371e565b505073ffffffffffffffffffffffffffffffffffffffff969096166060850152505050608001529392505050565b60007f800000000000000000000000000000000000000000000000000000000000000082036137af576137af613544565b5060000390565b60008260020b806137c9576137c96135ef565b808360020b0791505092915050565b60008160020b7fffffffffffffffffffffffffffffffffffffffffffffffffffffffffff800000810361380d5761380d613544565b60000392915050565b7f4e487b7100000000000000000000000000000000000000000000000000000000600052600160045260246000fd5b6000825160005b81811015613866576020818601810151858301520161384c565b506000920191825250919050565b60006020828403121561388657600080fd5b505191905056fea2646970667358221220b82964c9b9d437f0a346c454e953416fec6ba162b17d845a814d090d2465cd9264736f6c63430008140033",
  "linkReferences": {},
  "deployedLinkReferences": {}
}